:020000040800F2
:1000000000500020E54100085551000857510008F4
:10001000595100085B5100085D51000800000000C4
:100020000000000000000000000000005F51000818
:10003000615100080000000063510008655100088C
:100040002D4200082D4200082D4200082D420008D4
:100050002D4200082D4200082D4200082D420008C4
:100060002D4200082D4200082D4200082D420008B4
:100070002D4200082D4200082D4200082D420008A4
:100080002D4200082D4200082D4200082D42000894
:100090002D4200082D4200082D4200082D42000884
:1000A0002D4200082D4200082D4200082D42000874
:1000B0002D420008554B00082D4200082D42000833
:1000C0002D4200082D4200082D4200082D42000854
:1000D0002D4200082D4200082D4200082D42000844
:1000E0002D4200082D4200082D42000800000000AB
:1000F0000000000000000000000000000000000000
:0C01000000000000000000005FF808F1A3
:1001100010B5054C237833B9044B13B10448AFF341
:1001200000800123237010BD200200200000000089
:10013000DC82000808B5034B1BB103490348AFF349
:10014000008008BD0000000024020020DC820008BE
:1001500081F0004102E000BF83F0004330B54FEA78
:1001600041044FEA430594EA050F08BF90EA020FE5
:100170001FBF54EA000C55EA020C7FEA645C7FEA78
:10018000655C00F0E2804FEA5454D4EB5555B8BF9B
:100190006D420CDD2C4480EA020281EA030382EA0C
:1001A000000083EA010180EA020281EA0303362D9E
:1001B00088BF30BD11F0004F4FEA01314FF4801C71
:1001C0004CEA113102D0404261EB410113F0004F83
:1001D0004FEA03334CEA133302D0524263EB43033A
:1001E00094EA050F00F0A780A4F10104D5F1200ED8
:1001F0000DDB02FA0EFC22FA05F2801841F1000133
:1002000003FA0EF2801843FA05F359410EE0A5F106
:1002100020050EF1200E012A03FA0EFC28BF4CF037
:10022000020C43FA05F3C01851EBE37101F00045ED
:1002300007D54FF0000EDCF1000C7EEB00006EEBFA
:100240000101B1F5801F1BD3B1F5001F0CD3490884
:100250005FEA30004FEA3C0C04F101044FEA4452DB
:1002600012F5800F80F09A80BCF1004F08BF5FEA62
:10027000500C50F1000041EB045141EA050130BD42
:100280005FEA4C0C404141EB0101013C28BFB1F554
:10029000801FE9D291F0000F04BF01460020B1FA9F
:1002A00081F308BF2033A3F10B03B3F120020CDA72
:1002B0000C3208DD02F1140CC2F10C0201FA0CF050
:1002C00021FA02F10CE002F11402D8BFC2F1200CB5
:1002D00001FA02F120FA0CFCDCBF41EA0C0190406B
:1002E000E41AA2BF01EB0451294330BD6FEA0404B4
:1002F0001F3C1CDA0C340EDC04F11404C4F120029F
:1003000020FA04F001FA02F340EA030021FA04F3B0
:1003100045EA030130BDC4F10C04C4F1200220FA07
:1003200002F001FA04F340EA0300294630BD21FA45
:1003300004F0294630BD94F0000F83F4801306BF0B
:1003400081F480110134013D4EE77FEA645C18BFFF
:100350007FEA655C29D094EA050F08BF90EA020F96
:1003600005D054EA000C04BF1946104630BD91EA8E
:10037000030F1EBF0021002030BD5FEA545C05D191
:100380004000494128BF41F0004130BD14F58004D0
:100390003CBF01F5801130BD01F0004545F0FE4144
:1003A00041F470014FF0000030BD7FEA645C1ABF79
:1003B000194610467FEA655C1CBF0B46024650EAB0
:1003C000013406BF52EA033591EA030F41F40021DC
:1003D00030BD00BF90F0000F04BF0021704730B562
:1003E0004FF4806404F132044FF000054FF0000137
:1003F00050E700BF90F0000F04BF0021704730B5F8
:100400004FF4806404F1320410F0004548BF4042CC
:100410004FF000013EE700BF42004FEAE2014FEA21
:1004200031014FEA02701FBF12F07F4393F07F4FFC
:1004300081F06051704732F07F4208BF704793F0FF
:100440007F4F04BF41F40021704730B54FF4607412
:1004500001F0004521F000411CE700BF50EA010215
:1004600008BF704730B54FF000050AE050EA0102BE
:1004700008BF704730B511F0004502D5404261EB2E
:1004800041014FF4806404F132045FEA915C3FF46F
:10049000D8AE4FF003025FEADC0C18BF03325FEA0C
:1004A000DC0C18BF033202EBDC02C2F1200300FABD
:1004B00003FC20FA02F001FA03FE40EA0E0021FAE2
:1004C00002F11444BDE600BF70B54FF0FF0C4CF4D0
:1004D000E06C1CEA11541DBF1CEA135594EA0C0F82
:1004E00095EA0C0F00F0DEF82C4481EA030621EABD
:1004F0004C5123EA4C5350EA013518BF52EA0335F8
:1005000041F4801143F4801338D0A0FB02CE4FF0A9
:100510000005E1FB02E506F00042E0FB03E54FF0D9
:100520000006E1FB03569CF0000F18BF4EF0010ED1
:10053000A4F1FF04B6F5007F64F5407404D25FEACD
:100540004E0E6D4146EB060642EAC62141EA555180
:100550004FEAC52040EA5E504FEACE2EB4F1FD0CC2
:1005600088BFBCF5E06F1ED8BEF1004F08BF5FEA40
:10057000500E50F1000041EB045170BD06F00046F2
:1005800046EA010140EA020081EA0301B4EB5C049F
:10059000C2BFD4EB0C0541EA045170BD41F4801197
:1005A0004FF0000E013C00F3AB8014F1360FDEBFBC
:1005B000002001F0004170BDC4F10004203C35DA98
:1005C0000C341BDC04F11404C4F1200500FA05F31B
:1005D00020FA04F001FA05F240EA020001F00042BC
:1005E00021F0004110EBD37021FA04F642EB060132
:1005F0005EEA430E08BF20EAD37070BDC4F10C045C
:10060000C4F1200500FA04F320FA05F001FA04F21F
:1006100040EA020001F0004110EBD37041F100010B
:100620005EEA430E08BF20EAD37070BDC4F1200516
:1006300000FA05F24EEA020E20FA04F301FA05F27E
:1006400043EA020321FA04F001F0004121FA04F226
:1006500020EA020000EBD3705EEA430E08BF20EAF6
:10066000D37070BD94F0000F0FD101F00046400030
:1006700041EB010111F4801F08BF013CF7D041EAB2
:10068000060195F0000F18BF704703F000465200B6
:1006900043EB030313F4801F08BF013DF7D043EA87
:1006A0000603704794EA0C0F0CEA135518BF95EA3D
:1006B0000C0F0CD050EA410618BF52EA4306D1D1C4
:1006C00081EA030101F000414FF0000070BD50EAE3
:1006D000410606BF1046194652EA430619D094EA6D
:1006E0000C0F02D150EA013613D195EA0C0F05D157
:1006F00052EA03361CBF104619460AD181EA0301AB
:1007000001F0004141F0FE4141F470014FF0000062
:1007100070BD41F0FE4141F4780170BD70B54FF0FD
:10072000FF0C4CF4E06C1CEA11541DBF1CEA13557D
:1007300094EA0C0F95EA0C0F00F0A7F8A4EB05045F
:1007400081EA030E52EA03354FEA013100F0888056
:100750004FEA03334FF0805545EA131343EA12631F
:100760004FEA022245EA111545EA10654FEA0026D4
:100770000EF000419D4208BF964244F1FD0404F58D
:10078000407402D25B084FEA3202B61A65EB0305E9
:100790005B084FEA32024FF480104FF4002CB6EBA6
:1007A000020E75EB030E22BFB61A754640EA0C0026
:1007B0005B084FEA3202B6EB020E75EB030E22BF66
:1007C000B61A754640EA5C005B084FEA3202B6EBA7
:1007D000020E75EB030E22BFB61A754640EA9C0066
:1007E0005B084FEA3202B6EB020E75EB030E22BF36
:1007F000B61A754640EADC0055EA060E18D04FEAF4
:10080000051545EA16754FEA06164FEAC30343EA93
:1008100052734FEAC2025FEA1C1CC0D111F4801F60
:100820000BD141EA00014FF000004FF0004CB6E759
:1008300011F4801F04BF01430020B4F1FD0C88BFF8
:10084000BCF5E06F3FF6AFAEB5EB030C04BFB6EB03
:10085000020C5FEA500C50F1000041EB045170BDF6
:100860000EF0004E4EEA113114EB5C04C2BFD4EB23
:100870000C0541EA045170BD41F480114FF0000EA7
:10088000013C90E645EA060E8DE60CEA135594EA23
:100890000C0F08BF95EA0C0F3FF43BAF94EA0C0F26
:1008A0000AD150EA01347FF434AF95EA0C0F7FF49B
:1008B00025AF104619462CE795EA0C0F06D152EAEF
:1008C00003353FF4FDAE1046194622E750EA4106D3
:1008D00018BF52EA43067FF4C5AE50EA41047FF4E4
:1008E0000DAF52EA43057FF4EBAE12E74FF0FF3C49
:1008F00006E000BF4FF0010C02E000BF4FF0010C1A
:100900004DF804CD4FEA410C7FEA6C5C4FEA430C92
:1009100018BF7FEA6C5C1BD001B050EA410C0CBFE1
:1009200052EA430C91EA030F02BF90EA020F002043
:10093000704710F1000F91EA030F58BF994208BFAA
:1009400090422CBFD8176FEAE37040F00100704767
:100950004FEA410C7FEA6C5C02D150EA013C07D1BE
:100960004FEA430C7FEA6C5CD6D152EA033CD3D009
:100970005DF8040B704700BF8446104662468C4603
:100980001946634600E000BF01B5FFF7B7FF002836
:1009900048BF10F1000F01BD4DF808EDFFF7F4FF5F
:1009A0000CBF012000205DF808FB00BF4DF808EDEA
:1009B000FFF7EAFF34BF012000205DF808FB00BF0D
:1009C0004DF808EDFFF7E0FF94BF012000205DF82F
:1009D00008FB00BF4DF808EDFFF7CEFF94BF0120E4
:1009E00000205DF808FB00BF4DF808EDFFF7C4FFDD
:1009F00034BF012000205DF808FB00BF4FEA410230
:100A000012F5001215D211D56FF47873B3EB625260
:100A100012D94FEAC12343F0004343EA505311F087
:100A2000004F23FA02F018BF404270474FF0000019
:100A3000704750EA013005D111F0004008BF6FF057
:100A4000004070474FF00000704700BF4FEA41027E
:100A5000B2F1E04324BFB3F5001CDCF1FE5C0DD91C
:100A600001F0004C4FEAC0024CEA5070B2F1004F66
:100A700040EB830008BF20F00100704711F0804F69
:100A800021D113F13872BCBF01F00040704741F42E
:100A900080114FEA5252C2F11802C2F1200C10FA32
:100AA0000CF320FA02F018BF40F001004FEAC12316
:100AB0004FEAD32303FA0CFC40EA0C0023FA02F3BA
:100AC0004FEA4303CCE77FEA625307D150EA013390
:100AD0001EBF4FF0FE4040F44000704701F0004060
:100AE00040F0FE4040F40000704700BF42000ED2CC
:100AF000B2F1FE4F0BD34FF09E03B3EB126209D459
:100B00004FEA002343F0004323FA02F070474FF00E
:100B10000000704712F1610F01D1420202D14FF083
:100B2000FF3070474FF00000704700BF7BB972B9CB
:100B30000029BEBF00204FF0004106E008BF00289A
:100B40001CBF6FF000414FF0FF3000F0F9B9ADF17C
:100B5000080C6DE904CE002909DB002B1ADB00F03C
:100B600085F8DDF804E0DDE9022304B07047404277
:100B700061EB4101002B1BDB00F078F8DDF804E0AD
:100B8000DDE9022304B0404261EB4101524263EBD4
:100B900043037047524263EB430300F067F8DDF80C
:100BA00004E0DDE9022304B0404261EB41017047FB
:100BB000524263EB430300F059F8DDF804E0DDE94D
:100BC000022304B0524263EB4303704753B94AB95E
:100BD000002908BF00281CBF4FF0FF314FF0FF3045
:100BE00000F0AEB9ADF1080C6DE904CE00F03EF8AE
:100BF000DDF804E0DDE9022304B0704738B50546AE
:100C00000C460022002328462146FFF7CFFE28B9D4
:100C100028462146BDE8384000F00AB8284604F1CD
:100C2000004100F005F8404261EB410138BD00BFD2
:100C3000D0B500220B4B06460F46FFF745FC00F0EF
:100C400081F90446FFF7C6FB0022074BFFF73CFC87
:100C500002460B4630463946FFF77EFA00F072F93D
:100C60002146D0BD0000F03D0000F0412DE9F047E5
:100C7000089E0D4604468846002B4DD18A42944674
:100C800068D9B2FA82F252B101FA02F3C2F120013C
:100C900020FA01F10CFA02FC41EA030894404FEA01
:100CA0001C41B8FBF1F71FFA8CFE01FB178807FB0C
:100CB0000EF0230C43EA084398420AD91CEB0303C5
:100CC00007F1FF3580F01E81984240F21B81023F00
:100CD00063441B1AB3FBF1F001FB103300FB0EFE63
:100CE000A4B244EA0344A6450AD91CEB040400F16B
:100CF000FF3380F00981A64540F206816444023842
:100D00000021A4EB0E0440EA07401EB10023D440AA
:100D1000C6E90043BDE8F0878B4208D9002E00F0F9
:100D2000EE800021C6E900050846BDE8F087B3FA69
:100D300083F100294AD1AB4202D3824200F2FC8007
:100D4000841A65EB030301209846002EE2D0C6E921
:100D50000048DFE702B9FFDEB2FA82F2002A40F073
:100D60009180A1EB0C0001214FEA1C471FFA8CFE79
:100D7000B0FBF7F307FB1300250C45EA00450EFB1B
:100D800003F0A84208D91CEB050503F1FF3802D295
:100D9000A84200F2CE8043462D1AB5FBF7F007FBC0
:100DA00010550EFB00FEA4B244EA0544A64508D93E
:100DB0001CEB040400F1FF3502D2A64500F2B68018
:100DC0002846A4EB0E0440EA03409EE7C1F1200749
:100DD0008B4022FA07FC4CEA030C25FA07FA4FEA8B
:100DE0001C49BAFBF9F820FA07F309FB18AA8D4051
:100DF0001FFA8CFE1D4300FA01F308FB0EF02C0CC9
:100E000044EA0A44A04202FA01F20BD91CEB0404A2
:100E100008F1FF3A80F08880A04240F28580A8F176
:100E200002086444241AB4FBF9F009FB104400FBE7
:100E30000EFEADB245EA0444A64508D91CEB0404F5
:100E400000F1FF356CD2A6456AD90238644440EA05
:100E50000840A0FB0295A4EB0E04AC42C846AE4687
:100E600056D353D0002E69D0B3EB080264EB0E04C6
:100E700022FA01F304FA07F71F43CC40C6E90074D5
:100E8000002147E70CFA02FCC2F1200125FA01F328
:100E90004FEA1C4720FA01F195400D43B3FBF7F1EF
:100EA00007FB11331FFA8CFE280C40EA034001FBBC
:100EB0000EF3834204FA02F408D91CEB000001F19E
:100EC000FF382FD283422DD902396044C01AB0FBBB
:100ED000F7F307FB1300ADB245EA004503FB0EF044
:100EE000A84208D91CEB050503F1FF3816D2A84229
:100EF00014D9023B6544281A43EA014138E73146D8
:100F0000304607E72F46E4E61846F9E64B45A9D2F6
:100F1000B9EB020865EB0C0E0138A3E74346EAE79C
:100F2000284694E74146D1E7D0467BE7644402383F
:100F300047E7023B65442FE7084606E73146E9E606
:100F4000704700BF4A0011D212F5001211D20DD520
:100F50006FF47873B3EB62520ED44FEAC12343F0BF
:100F6000004343EA505323FA02F070474FF0000069
:100F7000704750EA013002D14FF0FF3070474FF018
:100F800000007047034613F8012B002AFBD1181A02
:100F9000013870474FEA410C7FEA6C5C02D150EA9D
:100FA000013C0AD14FEA430C7FEA6C5C02D152EA61
:100FB000033C02D14FF0000070474FF00100704732
:100FC00070B58AB006460D4614460492039102900D
:100FD000194B019328230093184B194A19490420EF
:100FE00001F0C2F873192344C3F57E43FB337E221C
:100FF0008DF81C20FF228DF81D2006228DF81E2062
:101000008DF81F6000228DF820208DF821508DF87A
:101010002240C3F307228DF823208DF82430EF23DC
:101020008DF825300A2107A800F09AFDC82003F0AA
:1010300013F90AB070BD00BF6C83000898830008E4
:10104000008300085C83000810B5044600F042FDF0
:10105000022200213F20FFF7B3FF22460021062095
:10106000FFF7AEFF10BD08B5024600210620FFF7CE
:10107000A7FF08BD08B5002211460E20FFF7A0FF0C
:1010800008BD08B5002211460D20FFF799FF08BDE5
:1010900008B50A4601460F20FFF792FF08BD000081
:1010A00000B583B00121082000F0FAFE4FF4804320
:1010B000ADF8043048238DF8073001A9024800F04C
:1010C00027FE03B05DF804FB000C014000B583B0BF
:1010D0000121082000F0E4FE4FF48043ADF8043015
:1010E00010238DF8073003238DF8063001A903483B
:1010F00000F00EFE03B05DF804FB00BF000C0140E1
:1011000070B582B00121082000F0CAFE012108203C
:1011100000F0C6FE0121082000F0C2FE4FF400538B
:10112000ADF8043010268DF8076003258DF80650C1
:101130000F4C01A9204600F0EBFD4FF48043ADF8C1
:1011400004308DF807608DF8065001A9204600F0A4
:10115000DFFD4FF40043ADF804308DF807608DF8E3
:10116000065001A9204600F0D3FD02B070BD00BFBB
:10117000000C014070B50546FFF7A8FF002412E0FF
:101180004FF480410E4800F025FE6D080C4E4FF4E0
:101190000051304600F01CFE4FF40051304600F084
:1011A00019FE0134E4B2072C08D815F0010FE7D07E
:1011B0004FF48041024800F00BFEE6E770BD00BF2F
:1011C000000C014070B506460D460E4C4FF4004130
:1011D000204600F0FFFD4FF40051204600F0FAFDDC
:1011E0004FF40041204600F0F3FD3046FFF7C2FF08
:1011F0002846FFF7BFFF4FF40041204600F0EAFD0C
:1012000070BD00BF000C014070B5FFF749FF00251D
:101210002C460CE00E4E4FF40051304600F0D8FD45
:101220004FF40051304600F0D5FD0134E4B2072CF4
:101230000BD86D084FF48041054800F0C2FD01282D
:10124000E8D165F07F05EDB2E4E7284670BD00BF48
:10125000000C014038B505460E4C4FF400412046C5
:1012600000F0B8FD4FF40051204600F0B3FD4FF4FC
:101270000041204600F0ACFD2846FFF77BFFFFF75A
:10128000C3FF05464FF40041204600F0A3FD284669
:1012900038BD00BF000C014000220AE0835C03F06F
:1012A0000F0C1B0903EB83030CEB43038354013244
:1012B000D2B28A42F2D3704700238B4214D210B4C8
:1012C000C25C0A4CA4FB024C4FEADC04A44604EBCB
:1012D0008404A2EB440242EA0C12C2540133DBB292
:1012E0008B42EDD310BC7047704700BFCDCCCCCC47
:1012F00010B5FFF705FF154C07212046FFF7DCFF6F
:1013000080218E20FFF75EFF21788C20FFF75AFFA7
:1013100061788820FFF756FFA1788620FFF752FFFB
:10132000E1788420FFF74EFF21798220FFF74AFF02
:1013300061798020FFF746FFA1798A20FFF742FFFD
:1013400080218E20FFF73EFF10BD00BF000000206F
:1013500010B58D20FFF77EFF0F4C20708920FFF71E
:1013600079FF60708720FFF775FFA0708520FFF779
:1013700071FFE0708320FFF76DFF20718120FFF780
:1013800069FF60718B20FFF765FFA0710721204680
:10139000FFF782FF10BD00BF0000002000B583B042
:1013A000044B1B68019301A9034800F0B1FC03B092
:1013B0005DF804FBF8820008000C014000B583B022
:1013C000044B5B68019301A9034800F0A1FC03B042
:1013D0005DF804FBF8820008000C014000B583B002
:1013E0000121082000F05CFD044B5B68019301A91A
:1013F000034800F08DFC03B05DF804FBF8820008A0
:10140000000C014010B5FFF7D9FF0E4C0221204619
:1014100000F0DEFC0221204600F0DCFC4FF4FA7004
:1014200002F005FFFFF7BAFF462002F000FF02219D
:10143000204600F0C6FC04464FF4FA7002F0F7FEB6
:10144000204610BD000C014038B50446FFF7B6FF3A
:10145000094D0221284600F0BDFC0A2002F0E7FEFB
:1014600022460221284600F0B7FC322002F0DFFEBF
:10147000FFF794FF38BD00BF000C014010B5FFF727
:101480009DFF0B4C0221204600F0A4FC052002F039
:10149000CEFEFFF783FF052002F0C9FE02212046A1
:1014A00000F08FFC04463C2002F0C1FE204610BD37
:1014B000000C014038B5054672B6002406E0012054
:1014C000A0402840FFF7C0FF0134E4B2072CF6D952
:1014D00062B638BD38B572B600252C4601E001343D
:1014E000E4B2072C08D8FFF7C9FF0028F7D0012382
:1014F000A3401D43EDB2F2E762B6284638BD08B5F9
:10150000FFF780FFCC20FFF7D5FF4420FFF7D2FF85
:1015100008BD000010B5FFF775FFCC20FFF7CAFF2C
:10152000BE20FFF7C7FFFFF7D5FF0446FFF7D2FF46
:1015300044EA0020FEF75EFF0022034BFEF7C4FFE3
:10154000FFF784FA10BD00BF0000B03F08B530B906
:1015500000214FF48062034803F038FE08BDFF21EC
:10156000F7E700BF440200207F2815D83F2913D891
:10157000104B1B7913B1B2FA82F25209012A0CD036
:10158000CB0800EBC31001F0070101238B400A4A8E
:10159000115C21EA030111547047CB0800EBC31022
:1015A00001F0070101238B40034A115C19431154D8
:1015B000704700BF3C02002044020020014B18800D
:1015C000598070473C0200202DE9F8439046244B97
:1015D0001B880A7813447F2B3EDC81460D46204B46
:1015E0005B884A7813443F2B38DC002620E01C4BF4
:1015F0001888598831442044B8FA88F2520989B2CF
:1016000080B2FFF7B1FF01342B78A3420FD907FA5C
:1016100004F313F4004FEAD0114B18885988314471
:101620002044424689B280B2FFF79EFFEBE70136C5
:101630006A78B24208D96968A9F1200302FB036302
:1016400031F813700024DFE72B78054A11880B442A
:1016500013804846BDE8F8830020FBE70020F9E747
:101660003C02002070B504460E46154600E00134E9
:10167000207838B12A463146FFF7A6FF0346207886
:101680008342F4D070BD2DE9F04F83B004460E467E
:10169000174698469DF830B07F2800D97F247F2FC9
:1016A00000D97F273F2E00D93F26B8F13F0F01D93F
:1016B0004FF03F08BC4220D2A7EB04090FFA89F98A
:1016C00046451FD2A8EB060A0FFA8AFABC421ED280
:1016D00001231A4646451ED201230093D1451EDD43
:1016E00009EBD9756D10B9F1000F1ED0BAF1000FDA
:1016F00034D0CDF80480904654E0A4EB07090FFAEB
:1017000089F9DDE7A6EB080A0FFA8AFADEE74FF05F
:10171000FF331A46DEE74FF0FF330093DEE70AEBB4
:10172000DA756D106D422DB2DDE7464502D84346AD
:10173000B0461E46BC4200D827460FFA88F80AE099
:101740001FFA88F85A4641463846FFF70DFF08F160
:1017500001080FFA88F8B045F2DD17E0464500D8D9
:10176000B046BC4202D83B4627461C463FB207E083
:10177000BFB25A4641463846FFF7F6FE01373FB240
:10178000A742F5DD02E0019B9E4212D103B0BDE805
:10179000F08F2B46554504DA4B441BB2009A164491
:1017A000B6B21D465A4631462046FFF7DDFEBC4222
:1017B000E9D0C9F100039D42EBDDA5EB0A031BB2A2
:1017C0004444A4B2E6E7000070B582B001210820CD
:1017D00000F066FB14238DF8073003238DF80630E4
:1017E0004FF48076ADF804600C4C01A9204600F05F
:1017F0008FFA4FF40075ADF8045001A9204600F0AF
:1018000087FA01223146204600F0E6FA01222946F5
:10181000204600F0E1FA02B070BD00BF000C0140AC
:1018200010B50D4C01224FF40071204600F0D4FA9F
:1018300001224FF48071204600F0CEFA00224FF4CE
:101840000071204600F0C8FA00224FF48071204653
:1018500000F0C2FA10BD00BF000C014010B50A4CE8
:1018600000224FF40071204600F0B6FA01224FF436
:101870008071204600F0B0FA01224FF4007120463A
:1018800000F0AAFA10BD00BF000C014070B506467A
:10189000002416E080222241124D32404FF40071A4
:1018A000284600F099FA01224FF48071284600F092
:1018B00093FA00224FF48071284600F08DFA01342B
:1018C000E4B2072CE6D9074C01224FF48071204680
:1018D00000F082FA00224FF48071204600F07CFA7A
:1018E00070BD00BF000C0140F8B507460C46164617
:1018F0001D46FFF795FF3846FFF7C8FF2046FFF764
:10190000C5FF002403E0305DFFF7C0FF0134A542AE
:10191000F9DCFFF7A3FFF8BD70B506460D46144687
:10192000FFF77EFF3046FFF7B1FF2846FFF7AEFF17
:101930002046FFF7ABFFFFF791FF70BD10B5002405
:101940001AE0A4F15002D2B200217820FFF7E4FFA0
:10195000002211467820FFF7DFFF102200217820B7
:10196000FFF7DAFF8023064A02EBC41240217820F9
:10197000FFF7BAFF0134E4B2072CE2D910BD00BF73
:101980004402002008B5FFF71FFF40F6C41300E033
:10199000013B002BFCD1AE2200217820FFF7BCFFD9
:1019A000202200217820FFF7B7FF102200217820A5
:1019B000FFF7B2FFB02200217820FFF7ADFFC82269
:1019C00000217820FFF7A8FF002211467820FFF7BA
:1019D000A3FF102200217820FFF79EFF4022002164
:1019E0007820FFF799FF812200217820FFF794FFEC
:1019F000FF2200217820FFF78FFFA122002178200D
:101A0000FFF78AFFA62200217820FFF785FFA82292
:101A100000217820FFF780FF3F2200217820FFF788
:101A20007BFFA42200217820FFF776FFD32200213C
:101A30007820FFF771FF002211467820FFF76CFF36
:101A4000D52200217820FFF767FFF02200217820BF
:101A5000FFF762FFD92200217820FFF75DFF2222E5
:101A600000217820FFF758FFDA2200217820FFF7C5
:101A700053FF122200217820FFF74EFFDB220021C6
:101A80007820FFF749FF202200217820FFF744FF4C
:101A90008D2200217820FFF73FFF142200217820BB
:101AA000FFF73AFFAF2200217820FFF735FF2E2203
:101AB00000217820FFF730FF0020FFF747FDFFF7F8
:101AC0003DFF034B00221A805A800120587108BD47
:101AD0003C02002010B586B001214FF4804000F098
:101AE000DFF90121042000F0DBF94FF40073ADF8B9
:101AF000143003238DF8163018238DF8173005A9FC
:101B00000E4800F005F94FF4165301930023ADF889
:101B100010300822ADF80E20ADF80C30ADF80A30C8
:101B2000ADF80830064C01A9204600F051FA012119
:101B3000204600F0AFFA06B010BD00BF000801401B
:101B40000038014008B50146044800F0B1FA802190
:101B5000024800F0B1FA0028F9D008BD0038014071
:101B600070B506460D46002404E0305DFFF7EAFF3D
:101B70000134A4B2AC42F8D370BD000082B000239F
:101B8000019300932C4A136843F4803313602A4B6B
:101B90001B6803F400330093019B01330193009B06
:101BA0001BB9019BB3F5A06FF1D1234B1B6813F454
:101BB000003F06D001230093009B012B04D002B00C
:101BC000704700230093F7E71C4B1A6842F010029D
:101BD0001A601A6822F007021A601A6842F00202BC
:101BE0001A60A3F580535A685A605A685A605A6856
:101BF00042F480625A605A6822F47C125A605A6831
:101C000042F4E8125A601A6842F080721A600A4B75
:101C10001B6813F0007FFAD0074B5A6822F00302CA
:101C20005A605A6842F002025A60034B5B6803F044
:101C30000C03082BF9D1C2E700100240002002403B
:101C400008B5FFF79BFF08BD08B5104B1A6842F0B6
:101C500001021A6059680E4A0A405A601A6822F056
:101C6000847222F480321A601A6822F480221A6088
:101C70005A6822F4FE025A604FF41F029A60FFF77E
:101C8000DFFF044B4FF000629A6008BD0010024075
:101C90000000FFF800ED00E040F0BF6040F40030CD
:101CA000014BD860704700BF00ED00E0C378FBB186
:101CB000154BDA68D243C2F30222C2F1040C0F239F
:101CC00023FA02F2417801FA0CF1837813400B43B6
:101CD0001B010278DBB20D490A4482F80033037815
:101CE00003F01F005B090122824041F82320704766
:101CF000037803F01F015B0901228A402033034966
:101D000041F82320704700BF00ED00E000E100E053
:101D100030B5CB7803F00F02964613F0100F03D0C6
:101D200091F802E04EEA020E0B7803B30468002338
:101D300001E042610133072B18D801229A40B1F823
:101D400000C032EA0C05F5D14FEA830C0F2505FAE5
:101D50000CF524EA05040EFA0CFC4CEA0404CD78D8
:101D6000282DE6D0482DE5D10261E3E704600B8819
:101D7000FF2B25D94468002303E0CD78482D1CD0E3
:101D80000133072B1BD803F1080C012202FA0CF2D5
:101D9000B1F800C032EA0C05F2D14FEA830C0F25EE
:101DA00005FA0CF524EA05040EFA0CFC4CEA0404CE
:101DB000CD78282DE1D14261DFE70261E0E74460A0
:101DC00030BD8368194201D0012070470020704760
:101DD00001617047416170470AB10161704741611B
:101DE0007047000010B4294B5B6803F00C03042B10
:101DF0002BD0082B2CD013B1254B036001E0244BD2
:101E0000036022494B68C3F30313224CE35CDAB24C
:101E10000368D34043604A68C2F30222A25CD2B294
:101E200023FA02F282604A68C2F3C222A25CD2B2F2
:101E3000D340C3604A68C2F3813217498A5CD2B288
:101E4000B3FBF2F3036110BC7047114B0360D8E79A
:101E50000E4A53685268C3F38343023312F4803F3F
:101E600004D10E4A02FB03F30360CAE7074A526833
:101E700012F4003F04D0094A02FB03F30360C0E7F9
:101E8000034A02FB03F30360BBE700BF00100240FC
:101E900000127A00240000202000002000093D00EC
:101EA00021B1054A9369184390617047024A9369CA
:101EB00023EA0000906170470010024021B1054AFA
:101EC000D3691843D0617047024AD36923EA0000FE
:101ED000D06170470010024003889BB2214A9042B3
:101EE00012D002F5006290420ED0B0F1804F0BD0BC
:101EF000A2F59832904207D002F58062904203D05A
:101F000002F58062904203D123F070034A881343A4
:101F1000154A904208D002F58062904204D023F422
:101F200040739BB2CA88134303808B8883850B88D8
:101F300003850C4B98420FD003F5006398420BD0F9
:101F400003F54063984207D003F58063984203D0BD
:101F500003F58063984201D10B7A038601238382C3
:101F6000704700BF002C01400010004029B10388D9
:101F70009BB243F001030380704703889BB223F0B8
:101F800001039BB20380704722B183899BB219433E
:101F9000818170478389C94389B219408181704723
:101FA00003899BB223F007039BB203817047028A27
:101FB00083890B40114202D01BB9002070470020DA
:101FC000704701207047C94389B201827047000001
:101FD00030B587B004460D46038A9BB2CA8823F405
:101FE00040531343038283899BB2898828896A8975
:101FF00001430A4323F4B05323F00C031343A3819A
:10200000A38A9BB2AA8923F440731343A38201A835
:10201000FFF7E8FE1D4B9C4224D0039BA28912F4DB
:10202000004F21D103EB830303EB83032A68920063
:10203000B3FBF2F3164AA2FB03125209110164200A
:1020400002FB1033A28912F4004F16D11B01323368
:102050000F4AA2FB0323C3F343130B439BB2238119
:1020600007B030BD049BD9E703EB830303EB830385
:102070002A685200B3FBF2F3DCE7DB003233044A98
:10208000A2FB0323C3F342130B43E7E700380140ED
:102090001F85EB5129B183899BB243F4005383819F
:1020A000704783899BB223F400539BB283817047AE
:1020B000C1F30801818070470388194201D00120D3
:1020C000704700207047000070B5002412E00B4DEF
:1020D00004EB441606F1300028441F220021023090
:1020E00003F074F83544002385F8313085F8513019
:1020F0000134E4B2042CEAD970BD00BF44060020CC
:10210000014B83F8F100704744060020014B83F82F
:10211000F50070474406002008B5084B93F8F230EC
:1021200023B9064B012283F8F32008BD00F050FBD1
:10213000024B012283F8F420F7E700BF4406002099
:1021400008B5084B93F8F23023B9064B002283F808
:10215000F32008BD00F03EFB024B002283F8F42080
:10216000F7E700BF440600202DE9F0478EB0054692
:102170000E46904699460846FEF704FF074600249F
:102180000C94ADF83440089409940A940B94052DEE
:1021900007D9AC4B1B687BB14FF40F72AA49AB480F
:1021A0009847AB4B93F8F1301BB1A94B1B78AB426E
:1021B00012D20EB0BDE8F087A34B4FF40F72049219
:1021C0000393A2490291A34901910092A24AA34913
:1021D0002046FFF7C9FFFEE7304600F01BFAA84291
:1021E000E7D39F49304603F08FFD0028E1D018ABBC
:1021F0000793FFF791FF964B93F8F53063BB0024EC
:102200000121284600F060FA002836D10221284634
:1022100000F05AFA00283AD11C21284600F054FA5E
:10222000002854D1E021284600F04EFA002840F062
:10223000A580079B179AC4F580618A48204403F063
:10224000A5FD0444B4F5806F00F22281002880F2DD
:1022500021814FF480641DE1DFF808A2824A5146D3
:10226000002000F0C5FA0446804B53F825200AEB05
:10227000000100F0BDFA0444C2E77D4B53F825206D
:1022800078492144204600F0B3FA0444BEE73246C0
:1022900074492144204600F0ABFA04440F2F07D9BB
:1022A000744A70492144204600F0A2FA0444B3E77E
:1022B000C7F10F0220210DEB010002F087FF08AAF1
:1022C00068492144204600F093FA0444E8E76A4A4A
:1022D00064492144204600F08BFA04440421284636
:1022E00000F0F2F990B90821284600F0EDF920BB82
:1022F0001021284600F0E8F9002835D15F4A5949F5
:102300002144204600F074FA04448BE700F064FA9C
:10231000024654492144204600F06AFA0444182138
:10232000284600F0D1F90028DDD0524A4D49214419
:10233000204600F05DFA0444D5E700F051FA024669
:1023400048492144204600F053FA0444102128460D
:1023500000F0BAF90028CBD0464A42492144204631
:1023600000F046FA0444C3E700F03EFA02463D4955
:102370002144204600F03CFA0444BFE7404A394972
:102380002144204600F034FA04442021284600F07D
:102390009BF990B98021284600F096F978BB40213E
:1023A000284600F091F9002844D1364A2D492144AD
:1023B000204600F01DFA04443BE7424629492144E7
:1023C000204600F015FA04444021284600F07CF92C
:1023D00038B12D4A23492144204600F009FA04442B
:1023E000D8E78021284600F06FF90028D2D0214A92
:1023F0001C492144204600F0FBF90444CAE7169B1F
:10240000224A05210CA803F017FC0CAA1549214407
:10241000204600F0EDF904444021284600F054F92C
:102420000028BCD0134A0F492144204600F0E0F9AF
:102430000444B4E74A460B492144204600F0D8F949
:102440000444B2E73C07002024AD00081CAC00089F
:102450004406002038AC0008B8AB000814AC0008F3
:1024600045060020400700205CAC00086CAD000869
:1024700084AD0008ECAE000860AC000864AC000855
:102480003CAE00084CB3000868AC00086CAC000817
:102490004FF48064A31DB3F5806F01D940F2FA3484
:1024A000134B93F8203033B11248002303551249DF
:1024B00003F02AFC80B10E4B93F8F5307BB90D4D3B
:1024C0000E4A2919204600F093F92118284600F0F9
:1024D00077F9FFF735FE6CE6FFF732FE69E6084A4A
:1024E00004492144204600F083F90444E7E700BF93
:1024F00044060020400700206406002078AC000855
:1025000070AC00080C4B93F8F03003B9704700B57D
:1025100085B00120FFF7F4FD084B0293084B0193AF
:10252000F4230093074B084A08490320FFF71CFED9
:1025300005B05DF804FB00BF440600207CAC000839
:1025400084AC000808AD0008B8AB000814AC000863
:1025500030B587B004460D46052807D90E4B1B68D9
:1025600053B14FF49F720D490D48984736340D4BC7
:1025700043F8245007B030BD084B4FF49F720492CB
:10258000039307490291084901910092074A0849BB
:102590000020FFF7E9FDFEE73C0700205CAD0008E6
:1025A0001CAC00084406002038AC0008B8AB00089A
:1025B00014AC000810B586B00446052807D90E4BA8
:1025C0001B6843B14FF4AC720C490D4898470D4B52
:1025D0001C7006B010BD094B4FF4AC72049203930B
:1025E00007490291084901910092084A08490020D0
:1025F000FFF7BAFDFEE700BF3C07002048AD00082A
:102600001CAC00084406002038AC0008B8AB000839
:1026100014AC000870B586B0064640B1234B93F861
:10262000F030002B3FD0FFF777FD002419E0204B5E
:102630001B682BB14FF4EF721E491F489847EDE716
:102640001C4B4FF4EF72049203931B4902911B49F8
:10265000019100921A4A1B49FFF786FDFEE70134FB
:10266000E4B2042C19D804EB4412104B134493F831
:102670005130002BF3D002F130030C4919441E22D3
:102680000231304603F02CFB0028E8D104EB44155E
:10269000064B1D4495F8314000E00524FFF750FD3E
:1026A000204606B070BD0524FAE700BF44060020AE
:1026B0003C07002030AD0008ACAC000838AC000886
:1026C000B8AB000814AC000830B587B004460D461E
:1026D000052807D9114B1B686BB140F2DB2210496A
:1026E000104898473634104B53F824302B4212D000
:1026F000012007B030BD0A4B40F2DB220492039365
:1027000008490291094901910092094A09490020AA
:10271000FFF72AFDFEE70020EBE700BF3C070020A3
:1027200014AD00081CAC00084406002038AC0008BA
:10273000B8AB000814AC000808B50B4B83F8F200E6
:1027400058B193F8F4301BB9074A92F8F3202AB92C
:102750001BB1054B93F8F3301BB108BD00F038F8FE
:10276000FBE700F037F8F8E74406002038B5104BD7
:1027700093F8F03013B10024204638BD00F01AF869
:1027800004460028F8D10120FFF7D6FF084D0023AA
:1027900085F8F33085F8F4300120FFF7B7FC052009
:1027A000FFF708FFFFF790FC012385F8F030E3E71F
:1027B0004406002008B501F099FC002008BD000087
:1027C00008B50246014801F0FFFC08BD9CAD0008B9
:1027D00072B6704762B670470048704714B300087D
:1027E0000048704714B300080048704714B300084D
:1027F00070B586B0054616460C4681B136B33046F4
:102800000178002939D005F1010CB5F5806F34D27B
:102810000130234603F8011B1C466546F0E7184BC0
:102820001B6823B12C22174917489847E6E7154B38
:102830002C220492039314490291144901910092AD
:10284000134A14490020FFF78FFCFEE70C4B1B686E
:1028500023B12D220B4910489847D0E7094B2D2270
:10286000049203930C490291084901910092084A8D
:1028700008490020FFF778FCFEE7801B06B070BD1A
:102880003C0700200CAE000804AE000838AC00087D
:10289000A4AD000814AC000808AE000810B504464A
:1028A000836800799847E37813F0070F02D02388F4
:1028B00001332380E378B0EBD31F13D01A46C3F360
:1028C000C203013303F0070363F3C502E270022B76
:1028D0000CD9D3B260F3C713E370DBB26FF3C50357
:1028E000E37003E0E3786FF3C503E370E37803F08C
:1028F0000703052B00F2E480DFE813F00600260052
:1029000050009C00E200C400E378C3F38012B2EBF5
:10291000D31F05D0A378082262F30713A370D3E076
:10292000A3786FF30713A370E3680BB120469847B1
:1029300000232380A378012262F30303A370E378CA
:1029400062F30203E370BFE0E378C3F38012B2EBFB
:10295000D31F10D0A378012262F30713A370236959
:102960000BB12046984700232380E378022262F3CC
:102970000203E370A8E02388502B40F2A580A378DF
:10298000052262F30713A370236A0BB12046984710
:10299000E378052262F30203E37095E0E378C3F382
:1029A0008012B2EBD31F0FD023883C2B40F28C80D7
:1029B000A37803F00F03012B26D0022B2FD0E3784E
:1029C0006FF30203E3707FE0A3786FF30713A37044
:1029D000E3680BB120469847A37803F00F030F2B51
:1029E00006D0A37803F00F02013262F30303A37051
:1029F00063690BB12046984700232380E3780322C4
:102A000062F30203E3705FE0A378032262F307132B
:102A1000A370A369002BD2D020469847CFE7A378B4
:102A2000042262F30713A370E369002BC7D020468A
:102A30009847C4E7E378C3F38012B2EBD31F18D0F2
:102A4000A378012262F30713A37023690BB1204618
:102A5000984723883B2B07D800232380E378022262
:102A600062F30203E3702FE0E3786FF30203E37095
:102A70002AE023883C2B27D9E378012262F3020362
:102A8000E37021E0E378C3F38012B2EBD31F0DD0E3
:102A9000A378012262F30713A37023690BB12046C8
:102AA0009847E3786FF30203E3700DE0A378062202
:102AB00062F30713A370636A33B12046984703E0BB
:102AC000E3786FF30203E37010BDF8B504460E46D9
:102AD00017461D462C22002102F078FBA37808221D
:102AE00062F30713A370A6602846B047E37860F34B
:102AF000C713E370DBB267F38613E3702571F8BD8B
:102B0000023100EB8100426070470000074B1A68F9
:102B1000134600E09B6A23B18342FBD14FF0FF30A4
:102B200070478262014B186000207047400B002004
:102B3000054A01E003F12802136823B18342F9D169
:102B40009B6A136070477047400B002010B5054B1F
:102B50001C6803E02046FFF7A1FEA46A002CF9D10F
:102B600010BD00BF400B00200146002007E000EB35
:102B70008000531C0B60137803EB400030380A6868
:102B80001378303BDBB2092BF1D970472DE9F04FB8
:102B900085B0044601921E46DB0F03740BB106F1AB
:102BA0000046019D28463146FEF728F882468B46AE
:102BB00020606160FDF75AFC02460B46284631460C
:102BC000FDF7CAFA3A4B0E9A03EBC203D3E900238E
:102BD000CDE90223FDF778FC80468946FEF70EF822
:102BE00005460F46A060E160FDF740FC02460B463B
:102BF00040464946FDF7B0FA8046894600222D4BF3
:102C0000FDF7F2FE00283FD0681C47F10001A060EC
:102C1000E160FDF72BFC02460B46DDE90201FDF702
:102C2000CFFE48B100220023C4E902231AF10100BB
:102C30004BF10001206061600E9B0BBB256867684B
:102C400028463946FDF712FC02460B4601983146EC
:102C5000FDF782FA804689460022164BFDF7A6FE54
:102C600030B10022134B40464946FDF7BDFE38B156
:102C700015F0010F04D0013547F1000725606760AA
:102C8000204605B0BDE8F08F00220A4B4046494679
:102C9000FDF782FE0028CFD055EA070302D015F0D9
:102CA000010FC9D0013547F10007A560E760C3E710
:102CB00040AE00080000E03F82B008B50DF1080CFE
:102CC0008CE80C009DF810304BB102460B46DDE954
:102CD0000201FDF7F9FBBDE8084002B07047DDE9ED
:102CE0000223FDF71BFDF6E782B008B50DF1080CD5
:102CF0008CE80C009DF810303BB1DDE90223FDF7B4
:102D00000DFDBDE8084002B0704702460B46DDE904
:102D10000201FDF7D9FBF4E782B0F8B5044606A935
:102D200081E80C000A9D0B999DF8203073B10123B6
:102D300003722A460B46DDE90601FDF7C5FBC4E92F
:102D400000012046BDE8F84002B07047069F079E8C
:102D5000C6F30A52A2F2FF32C1F30A53A3F2FF33C1
:102D6000002AB8BF5242002BB8BF5B429A420ADD2C
:102D7000002303722A460B4638463146FDF7CEFC47
:102D8000C4E90001DDE7012303723A4633462846D1
:102D9000FDF7C4FCC4E90001D3E700002DE9F04FC2
:102DA00093B083460D461446DDE91C678DF840104C
:102DB00020AB93E803008DE803001EAB0CCB30463C
:102DC0003946FFF779FF0346229AA21AB2F5997F96
:102DD00000F38680FDF712FF069007910C900D918D
:102DE000FDF744FB804689460DF1800A9AE803000E
:102DF0008DE803001EAD95E80C0040464946FFF7FC
:102E000073FF02460B4630463946FDF7A5F90646E4
:102E10000F46384A02EBC404D4E9008908ACCDE976
:102E200002899AE803008DE8030095E80C0020462B
:102E3000FFF772FF0AAB93E803008DE8030094E804
:102E40000C0030463946FFF737FF04460D46FDF7C4
:102E5000D5FE07460E460E900F91FDF707FB024682
:102E60000B4620462946FDF777F902460B46CDE989
:102E700004230124002500221F4BFDF7ABFD00B900
:102E80002C463C1946EB05050E940F9500221A4B73
:102E9000DDE90401FDF780FD10B124F001040E947A
:102EA000DDE90E01FDF7E2FA42464B46FDF792FDE1
:102EB00050B100220023CDE90E23069B581C079B2E
:102EC00043F100010C900D915C460CAD0FCD0FC489
:102ED00095E8030084E80300584613B0BDE8F08F7E
:102EE0000DB101F1004100941A460B465846FFF718
:102EF0004DFEF1E740AE00080000E03F70B504462B
:102F00000D4600220023FDF765FD68B920462946DD
:102F1000FDF774FD0646FDF76DFA22462B46FDF7D8
:102F20003BFD30B9013E04E020462946FDF766FD31
:102F30000646304670BD00002DE9F047C1F30A5A3D
:102F4000AAF2FF3AC1F3130343F07F5141F4401159
:102F500000222F4BFDF700F904460D4622A3D3E9CA
:102F60000023FDF7B1FA22A3D3E90023FDF7F6F819
:102F70008046894622462B4620462946FDF7A4FA7C
:102F800006460F461CA3D3E90023FDF79DFA02462F
:102F90000B4640464946FDF7DFF880468946224603
:102FA0002B4630463946FDF78FFA15A3D3E90023A7
:102FB000FDF78AFA02460B4640464946FDF7CEF831
:102FC00004460D465046FDF715FA0FA3D3E900233A
:102FD000FDF77AFA02460B4620462946FDF7BEF871
:102FE000BDE8F087AFF300805F436F63A787D23FF0
:102FF000FCB7608B288AC63F7E043F2FDFB4B83F02
:10300000FF0338B81BF6A53FFF799F501344D33F09
:103010000000F83F0000000010F59A7F77D02DE9FE
:10302000F84FFDF7E7F904460D463BA3D3E900232B
:10303000FDF74AFA0022404BFDF790F8FFF75EFFDC
:10304000804637A3D3E9002320462946FDF73CFA02
:1030500004460D464046FDF7CDF933A3D3E90023DE
:10306000FDF732FA02460B4620462946FDF774F872
:1030700004460D4602460B46FDF726FA06460F4665
:1030800008F2FF304FF000084FEA005922462B4665
:1030900020462946FDF762F882468B4622462B469B
:1030A00000204FF08041FDF757F804460D460022FE
:1030B000224B30463946FDF731FB0022204BFDF70D
:1030C0004DF802460B4630463946FDF727FB0022F5
:1030D0001C4BFDF743F802460B4630463946FDF7D8
:1030E0001DFB02460B4620462946FDF737F80246EF
:1030F0000B4650465946FDF711FB0022124BFDF7D7
:103100002DF842464B46FDF7DFF9BDE8F88F08A1E0
:10311000D1E90001704700BF71A379094F930A40BC
:103120001655B5BBB16B0240EF39FAFE422EE63FB1
:10313000D2E81978D63007000000E03F00002C40AC
:1031400000002440000018400000F03F014600202D
:103150000A681378203B102B23D8DFE803F01822ED
:10316000221D2222222222222213220E22220900A2
:1031700040F0010001320A60EAE740F0020001324B
:103180000A60E5E740F0040001320A60E0E740F041
:10319000080001320A60DBE740F0100001320A60EB
:1031A000D6E7704708B501460448FEF781FF802145
:1031B0000248FEF781FF0028F9D008BD0048004012
:1031C0002DE9F0470446884615461E46DDF8209056
:1031D000C76819F0030F17D1924604E061682020F8
:1031E00090470AF1010AB2450ED2E3685A1CE26028
:1031F00022699342F5D22268002AEFD1A2682021E9
:10320000D154EEE7A368985475B1013D18F8050054
:10321000E268531CE36023699A42F5D22368002BCD
:10322000F0D061689847EFE719F0020F04D1BDE8CC
:10323000F087616820209047E268D21BB242F6D244
:10324000E3685A1CE26022699342F5D22268002AA0
:10325000EFD1A2682021D154EEE7F0B583B09646B5
:103260001F469DF82060099D0A9B0B9C14F0020FDD
:103270001CD13BB114F0010F04D017B914F00C0F9E
:1032800000D0013B724604E04FF0300C01F802C060
:10329000013214F0010F09D09A4207D21F2AF3D944
:1032A00004E04FF0300C01F802C00132AA4201D212
:1032B0001F2AF6D9082E22D042F2100C14EA0C0F65
:1032C00012D014F4006F04D11AB1AA421CD09A4251
:1032D0001AD0102E25D0102E2CD0022E33D01F2A1B
:1032E00002D830258D5401321F2A03D88FB32D25E3
:1032F0008D5401320094FFF763FF03B0F0BD7245B7
:10330000DAD924F01004D7E7724500D9013A002A2F
:10331000DFD0102E01D0022EDBD17245D9D9013A6F
:10332000D7E714F0200FD6D11F2AD4D878258D5492
:103330000132D4E714F0200FCFD01F2ACDD8582562
:103340008D540132CBE71F2AC9D862258D54013232
:10335000C5E714F0040F03D02B258D540132C9E7C3
:1033600014F0080FC6D020258D540132C2E72DE994
:10337000F04F8DB083461E469DF85C70DDF868A066
:1033800052EA060324D11AF4006F17D130238DF8C6
:1033900010302AF0100A4FF00108CDF80CA0199B4C
:1033A0000293189B019300979DF85830424604A958
:1033B0005846FFF752FF0DB0BDE8F08F102F02D036
:1033C0004FF00008E9E72AF0100A4FF00008E4E7A0
:1033D000154600241AE003F13002D2B204F10108CC
:1033E00004F130030DEB030404F8202C3A464B465D
:1033F00028463146FDF7EAFBBD4276F10003CCD307
:10340000B8F11F0FC9D8444605460E464FF00009D3
:103410003A464B4628463146FDF7D8FBD3B2092B36
:10342000D9D91AF0200F05D041221A44D2B20A3A53
:10343000D2B2D3E76122F8E784B02DE9F04F83B030
:103440000CAC84E80F00DDF84C90DDF85080DDF81E
:1034500054A0169D179CB9F1000F73D041F2100BC8
:103460000AEA0B0BBBF5805F22D00E9B012B0F9B52
:1034700073F1000336DB1F2C3DD809F1FF39DDE97C
:103480000E670A22002330463946FDF74FFB04F150
:10349000010B30322A550A22002330463946FDF707
:1034A00045FB0E900F9151EA000349D05C46E2E7DC
:1034B000012A0F9B73F10003D7DBDDE90E670A22B7
:1034C000002330463946FDF731FB1343CDD109F1D6
:1034D000FF390A22002330463946FDF727FBCDE9A4
:1034E0000E01EAE7BBF5805FC5D10EE030232B5516
:1034F00009F1FF3901341F2C02D8B9F1000FF5D1C1
:103500001F2C02D82E232B5501341F2C24D8DDE983
:103510000C670A22002330463946FDF707FB04F109
:10352000010930322A550A22002330463946FDF778
:10353000FDFA0C900D9151EA00030CD04C46E4E7E3
:103540005C46D8E71AF0100FDFD01F2CDDD82E23F1
:103550002B550134D9E74C460AF00303012B14D054
:103560001F2C05D89DF840301BB32D232B5501345B
:10357000CDF800A04346224629461298FFF720FEC8
:1035800003B0BDE8F04F04B07047B8F1000F0BD0A6
:103590009DF8403013B91AF00C0F05D008F1FF3830
:1035A00002E030232B5501344445D9D21F2CF8D9E1
:1035B000D6E71AF0040F03D02B232B550134D7E79D
:1035C0001AF0080FD4D020232B550134D0E770B562
:1035D0008EB00546129E08AC00962046FFF7D6FA3C
:1035E000169B0793159B0693149B0593139B0493BB
:1035F000039602950EAB13E903008DE8030094E8EF
:103600000F00FFF719FF0EB070BD00002DE9F04F5D
:1036100097B0044608929946209F229E0023099362
:103620005FEAD97B5FFA8BFA01D009F100490022E9
:103630000023DDF8208040464946FDF7ADF900281B
:103640003DD140464946FFF777FCFFF757FC05465A
:10365000FFF7E2FCCDE90A0102460B464046494627
:10366000FDF7A4F940B1013D0022894BDDE90A01D3
:10367000FDF754F8CDE90A0105F11103222B94BF9F
:103680000123002309930AD885EAE572A2EBE572CB
:10369000804B03EBC203D3E90023CDE90A23DDE924
:1036A0000A23CDE9122316F4805F25D04FB13B46A3
:1036B00015F1040F07DB9D421ADB002304E000250F
:1036C000F1E70123F4E7002398469BB1013F7F1BFC
:1036D00027EAE77746F40066002D10DB00238DF81B
:1036E0005030B8F1000F0FD1002D34D101230CE080
:1036F0000123E9E7013FEBE74FF00008ECE7099B06
:10370000002BECD00123EAE7012333B3BBF1000F18
:1037100001D009F100490097089A4B460CA8FFF721
:1037200035FAB8F1000F2AD016F4805F36D0B5F123
:10373000FF3F33DBDDE90C01FCF798FE05F10109E1
:10374000544B03EBC903D3E90023FDF725F928B354
:10375000013F4D4622E00023D7E706950DF1080C06
:1037600016AB13E90F008CE80F00089A4B46CDE921
:1037700000233A4651460CA8FFF710FBD1E70C9BFB
:103780000A2B0D9B73F1000308DB01350122002396
:10379000CDE90C2300220023CDE90E23B8F1000F60
:1037A00006D105F16303C62B4BD84FF0040901E0A5
:1037B0004FF0000916F0020B02D0B9F1000F43D10F
:1037C000219B994542D2A3EB0903D4F80CA0249A7B
:1037D0000792239A0692059604930397029410ABDE
:1037E00093E803008DE803000CAB0FCBFFF724FE3A
:1037F000B8F1000F22D116F0200F29D04520E36840
:103800005A1CE2602269934203D2226812B36168B3
:103810009047002D21DD2A46EB170521049109F17F
:10382000FF310391002102910A210191ED0F0095D2
:103830002046FFF79CFDBBF1000F16D117B0BDE885
:10384000F08F4FF00509B5E70023BEE70023BCE782
:103850006520D4E7A268D054DBE7EB176A4263EB3C
:103860004303DAE7A2682021D154E368A3EB0A03FB
:10387000219A9342E2D2E3685A1CE26022699342A1
:10388000F3D22268002AEDD0616820209047ECE74F
:103890000000244040AE00082DE9F0438FB00546FB
:1038A00016461F46169CDDF860809DF86490104611
:1038B0001946FDF771F8002838D04FF0FF326FF449
:1038C000801330463946FDF771F8002837D14FF0A4
:1038D000FF32454B30463946FDF786F8002837D190
:1038E000B9F1000F10D13CA3D3E90023304639468B
:1038F000FDF77AF800283ED139A3D3E900233046FA
:103900003946FDF753F8B0BB18F4006F42D00023DE
:103910001F2B41D8112C3FD903F138020DEB0201C6
:10392000302201F8202C013C0133F1E7CDF8008072
:10393000179B03222D492846FFF742FC14E0CDF8DF
:103940000080179B04222A492846FFF739FC0BE028
:1039500018F004030BD027495BB10422CDF8008096
:10396000179B2846FFF72CFC0FB0BDE8F0832249D7
:10397000F2E70322F2E70023049306AB0393CDF8AA
:103980000880179B0193009432463B462846FFF778
:103990003DFEE9E70624BAE7B9F1000F0DD0049324
:1039A00006AB0393CDF80880179B01930094324631
:1039B0003B462846FFF72AFED6E7049306AB03935F
:1039C000CDF80880179B0193009432463B46284669
:1039D000FFF7FDFDC8E700BF0000000065CDCD4149
:1039E0000000000065CDCDC1FFFFEF7F24AE0008D1
:1039F00028AE00081CAE000818AE00082DE9F04FF4
:103A000089B00446079106920DE0E3685A1CE26013
:103A10002269934204D22268002A3CD06168904710
:103A2000079B01330793079B1878002847D0252868
:103A3000EBD15A1C07925B78002B40D007A8FFF708
:103A400085FB0546079B1A78A2F13003DBB2092BF0
:103A500024D92A2A27D00027079B1A782E2A35D066
:103A60000026079A1378683B122B7CD8DFE813F006
:103A700062007B00D8007B0050007B007B007B0055
:103A80007B007B007B007B0074007B007B007B0065
:103A90007B007B00E000A268D054C1E707A8FFF7D5
:103AA00063F80746D8E7069B1A1D06921F68002F89
:103AB00008DB079B5A1C07925B78002BCCD109B01E
:103AC000BDE8F08F40F002057F42F2E745F4006563
:103AD0005A1C07925A78002AF1D0A2F13003DBB2C7
:103AE000092B03D92A2A06D00026BAE707A8FFF730
:103AF0003BF80646B5E7069B1A1D06921E6826EAA5
:103B0000E676079B5A1C07925B78002BA9D1D6E773
:103B100045F40070511C07915378002BCFD06C2BCB
:103B200001D005461FE045F4C065931C07939378C8
:103B3000CBB9C4E745F08000511C07915378002BA6
:103B4000BDD0682B01D005460DE045F0C005931CA3
:103B5000079393783BB9B2E745F40075531C07937C
:103B60005378002BABD0079A1078A0F12503532B84
:103B700000F29182DFE813F047028F028F028F027A
:103B80008F028F028F028F028F028F028F028F02AD
:103B90008F028F028F028F028F028F028F028F029D
:103BA0008F028F028F028F028F028F028F028F028D
:103BB0008F028F028F028F024D0133014D018F0260
:103BC0008F028F028F028F028F028F028F028F026D
:103BD0008F028F028F028F028F028F028F0264008A
:103BE0008F028F028F028F028F028F028F028F024D
:103BF0008F0264006E0164004D0133014D018F029C
:103C000064008F028F028F028F025A026400270223
:103C10008F028F02B2018F0264008F028F02640054
:103C200045F48065531C07935378002B9BD146E7DE
:103C300045F40075531C07935378002B93D13EE74E
:103C4000642801D0692801D145F48045782809D03D
:103C500058282CD06F282CD062282CD025F01005A5
:103C60000A2100E01021582827D00132079215F4CC
:103C7000006F01D025F0010515F4804F68D015F4D0
:103C8000806F1DD115F4007F39D0069B1A1D069256
:103C9000186800282EDD0246C31704950397029684
:103CA0000191C00F00902046FFF761FBBBE6102199
:103CB000D9E70821D7E70221D5E745F02005D4E769
:103CC000069B073323F0070303F1080206925868A6
:103CD0001A680346002809DB0495039702960191B0
:103CE000C00F00902046FFF742FB9CE6524260EB7B
:103CF0004003F1E7C317424263EB4303CDE715F0FE
:103D0000400F12D0069B1A1D069293F9000000285E
:103D100019DD0246C3170495039702960191C00F5F
:103D200000902046FFF723FB7DE615F0800F05D0BD
:103D3000069B1A1D0692B3F90000E8E7069B1A1DC0
:103D400006921868E3E7C317424263EB4303E2E7D6
:103D500025F00C0015F4806F13D115F4007F23D1EA
:103D600015F0400F2ED0069B1A1D06921A780023DC
:103D7000049003970296019100932046FFF7F7FA0B
:103D800051E6069B073323F0070303F1080206926E
:103D9000D3E900230490039702960191002100913A
:103DA0002046FFF7E4FA3EE6069B1A1D06921A68C3
:103DB0000023049003970296019100932046FFF799
:103DC000D6FA30E615F0800F04D0069B1A1D069235
:103DD0001A88CCE7069B1A1D06921A68C7E7462880
:103DE00014D0069B073323F0070303F10802069261
:103DF000D3E9002300210391029501970096204604
:103E0000FFF74AFD079B013307930CE645F02005B9
:103E1000E7E7672801D0472801D145F480554528B8
:103E200001D0472801D145F02005069B073323F038
:103E3000070303F108020692D3E90023012103914D
:103E40000295019700962046FFF726FD079B013358
:103E50000793E8E515F0020527D00126069B1A1DF9
:103E600006921878E3685A1CE2602269934203D2F2
:103E70002268E2B16168904705BB079B0133079355
:103E8000D1E5A2682021D15433465E1C9F42E5D97A
:103E9000E3685A1CE26022699342F5D22268002A44
:103EA000EFD0616820209047EEE70123EDE7A2689C
:103EB000D054E1E7A2682021D1542E46751CB742A8
:103EC000DBD9E3685A1CE26022699342F5D222688A
:103ED000002AEFD0616820209047EEE7069B1A1D6C
:103EE0000692D3F80090B9F1000F04D006BB6FF032
:103EF0000043C8460AE000953B4606226E4920462C
:103F0000FFF75EF946E008F10108134698F8002033
:103F100012B15A1E002BF6D1A8EB090815F4006A5D
:103F200002D0B04528BFB04615F002051CD105E00F
:103F30003346DEE7A2682021D154D84608F1010BB0
:103F400047450CD9E3685A1CE26022699342F4D2D7
:103F50002268002AEED0616820209047EDE7D8461D
:103F600002E0A268D054013E99F8000088B1BAF18D
:103F7000000F00D06EB109F10109E3685A1CE2603C
:103F800022699342EFD22268002AEAD06168904702
:103F9000E9E73DB9079B0133079344E5A268202177
:103FA000D154A84608F101054745F3D9E3685A1CE6
:103FB000E26022699342F4D22268002AEED061685E
:103FC00020209047EDE745F4005545F00105069B9C
:103FD0001A1D06921A6872B1002304950A210391F2
:103FE00002961021019100932046FFF7C0F9079B2C
:103FF0000133079317E500950A2305222F49204630
:10400000FFF7DEF8F3E7E3685A1CE26022699342A7
:1040100004D2226832B1616825209047079B0133A2
:10402000079300E5A2682521D154F7E715F0400F6A
:1040300009D0069B1A1D06921B68227B1A70079BEB
:1040400001330793EFE415F0800F07D0069B1A1D8C
:1040500006921B68B4F90C201A80F0E715F4007F73
:1040600006D0E268069B191D06911B681A60E6E7F8
:1040700015F4806F08D0E268069B191D06911B6835
:104080001A6000225A60DAE7E268069B191D069161
:104090001B681A60D3E7E3685A1CE2602269934206
:1040A00003D222682AB161689047079B01330793C6
:1040B000B9E4A268D054F8E730AE000838AE000882
:1040C00010B50446FFF79AFC23680BB1E06810BDF9
:1040D0002369002BFAD0A1680029F7D0E268934247
:1040E00000D85A1E00238B54F0E7000010B586B0AC
:1040F00001214FF48020FDF7E1FE01210820FDF7AA
:10410000CFFE18238DF817304FF48063ADF81430CC
:1041100003238DF8163005A90E48FDF7F9FD4FF47D
:10412000165301930023ADF810300822ADF80E208D
:10413000ADF80C30ADF80A30ADF80830064C01A9E6
:104140002046FDF745FF01212046FDF7A3FF06B0FD
:1041500010BD00BF000C01400048004008B5FFF74B
:1041600021F808BD08B5FFF7F9FF08BD70B590B09C
:1041700005460E46002406940794089409940A9470
:104180000DF1040C0DF1180EBEE80F00ACE80F00A5
:10419000CCF800000B4B01936FF0004305930DF139
:1041A0002C0C0DF1040EBEE80F00ACE80F006FF010
:1041B0000043CCF80030324629460BA8FFF780FFB9
:1041C00010B070BD654100080FB400B583B004A9FC
:1041D00051F8040B0191FFF7C9FF03B05DF804EB40
:1041E00004B070470C480D490D4A002302E0D45832
:1041F000C4500433C4188C42F9D30A4A0A4C002331
:1042000001E013600432A242FBD3FDF71DFD00F074
:10421000ABFF00F095FF7047000000202002002057
:1042200014B9000820020020DC0C0020FEE700EB9F
:10423000C000C0004FF0E023586100229A610522BF
:104240001A614FF0E0231B6913F4803FF9D04FF05F
:10425000E02304221A61704710B504E04FF47A702D
:10426000FFF7E5FF2046441E0028F7D110BD0000EF
:1042700030B585B001210220FDF720FE194C204603
:10428000FDF78EFE0023ADF80A30ADF806300922A6
:10429000ADF8082041F61F42ADF804208DF80C302F
:1042A00001A92046FDF718FE012211462046FDF720
:1042B0006BFE4FF4A060FDF7EFFC1D238DF800307E
:1042C00001258DF8035002238DF801308DF802503E
:1042D0006846FDF7EBFC29462046FDF747FE05B092
:1042E00030BD00BF00040040144B1A78931FDBB2AE
:1042F000052B03D8124B00221A707047A2F10C0153
:10430000C9B2042903D80E4B01221A707047A2F1DA
:104310001101C9B2012907D9133AD2B2022A07D82A
:10432000074B02221A707047054B03221A70704720
:104330000F2B02D9024B04221A707047520B002037
:104340005A0B00200E4B1A78D31EDBB2022B03D877
:104350000C4B00221A707047931FDBB2022B03D85C
:10436000084B01221A707047093AD2B2022A03D8C8
:10437000044B02221A707047024B03221A707047D6
:10438000540B0020550B0020094A0B2313700A21FF
:104390005170084A072111701E215170064A0221EE
:1043A000117006215170054A13705370704700BF99
:1043B000580B0020500B00204C0B0020480B002015
:1043C00008B5FCF7C5FF0B4B19780B4A11705978EB
:1043D0000A4A117099780A4A1170D978094A1170FD
:1043E0001979094A11705979084A11709A79084B5C
:1043F0001A7008BD000000205C0B0020540B002048
:104400004E0B0020520B0020530B0020560B0020B7
:104410005B0B00201D4B1B78162B03D91C4B1D4A30
:104420001A607047152B03D9194B1B4A1A60704745
:10443000122B03D9164B194A1A607047112B03D956
:10444000134B174A1A6070470D2B03D9104B134AB0
:104450001A6070470C2B03D90D4B0E4A1A60704737
:104460000B2B03D90A4B0E4A1A607047072B03D94E
:10447000074B0A4A1A607047062B03D9044B084AB7
:104480001A607047024B034A1A607047520B0020B3
:10449000440B0020D0AE0008D8AE0008E0AE000803
:1044A000E8AE000808B5FFF78BFFFFF7B3FFFFF793
:1044B0001BFFFFF747FF08BD08B5FFF765FFFCF7D7
:1044C00017FFFFF7EFFF08BD084B1A78084B1B7862
:1044D0009A4201D000207047044B5A78054B1B7854
:1044E0009A4201D00020704701207047580B0020ED
:1044F000520B0020530B0020084B1A78084B1B78F6
:104500009A4201D000207047044B5A78054B1B7823
:104510009A4201D00020704701207047500B0020C4
:10452000520B0020530B0020084B1A78084B1B78C5
:104530009A4201D000207047044B5A78054B1B78F3
:104540009A4201D000207047012070474C0B002098
:10455000540B00204E0B0020084B1A78084B1B7898
:104560009A4201D000207047044B5A78054B1B78C3
:104570009A4201D00020704701207047480B00206C
:10458000540B00204E0B002000B583B0064B019366
:10459000A7230093054B064A06490320FDF7E4FDD7
:1045A00003B05DF804FB00BF44AF0008B0B10008E1
:1045B000F0AE000840AF000800B583B0064B019391
:1045C000A1230093054B064A06490320FDF7CCFDC5
:1045D00003B05DF804FB00BF74AF000888B10008A9
:1045E000F0AE000840AF000800B583B0064B019361
:1045F00074230093054B064A06490320FDF7B4FDDA
:1046000003B05DF804FB00BFA4AF000848B2000887
:10461000F0AE000840AF000800B583B000F0E6FA45
:10462000012802D003B05DF804FB064B01939B23E5
:104630000093054B054A06490320FDF795FD00F060
:10464000E9FCEFE7D4AF00085CB10008F0AE000869
:1046500040AF000800B583B0074B01939623009349
:10466000064B074A07490320FDF77EFD00F064FC76
:1046700003B05DF804FB00BFE4AF000834B10008EC
:10468000F0AE000840AF000800B583B000F0AEFA0D
:10469000012802D003B05DF804FB064B0193902380
:1046A0000093054B054A06490320FDF75DFD00F028
:1046B000DBFCEFE7FCAF000808B10008F0AE000833
:1046C00040AF000800B583B0074B01938B230093E4
:1046D000064B074A07490320FDF746FD00F03AFC68
:1046E00003B05DF804FB00BF10B00008E0B00008A4
:1046F000F0AE000840AF000800B583B0194B01933D
:1047000078230093184B194A19490320FDF72CFD13
:10471000184B1B78ABB9184B01937D230093124BB8
:10472000124A13490320FDF71FFD1448FEF7EEF966
:104730001348FEF7EBF90F4B01221A7003B05DF836
:1047400004FB104B019382230093074B074A08494F
:104750000320FDF709FD0948FEF7EAF90848FEF7CE
:10476000E7F9E8E728B0000870B20008F0AE0008EA
:1047700040AF0008C30C00205CB00008E40B002030
:10478000100C00206CB0000800B583B0074B0193FB
:104790006E230093064B074A07490320FDF7E4FC0C
:1047A00000F0A5FB03B05DF804FB00BF7CB000087F
:1047B00024B20008F0AE000840AF000800B583B096
:1047C000124B1B7813F0010F12D1114B019363238D
:1047D0000093104B104A11490320FDF7C5FC00F06F
:1047E000E5FB0A4A13780133137003B05DF804FB4C
:1047F0000B4B019366230093064B074A074903209E
:10480000FDF7B2FC00F0ECFBEBE700BFC20C0020B0
:1048100090B0000800B20008F0AE000840AF0008F9
:10482000A4B0000808B507282DD8DFE800F0040977
:104830000E13181D222701211448FDF7C2FA08BDE6
:1048400002211248FDF7BDFAF9E704210F48FDF7F0
:10485000B8FAF4E708210D48FDF7B3FAEFE71021A5
:104860000A48FDF7AEFAEAE720210848FDF7A9FA61
:10487000E5E740210548FDF7A4FAE0E78021034879
:10488000FDF79FFADBE70020D9E700BF00080140F1
:1048900000B583B000F0AAF9A8B1012823D11748C8
:1048A000FEF746F91648FEF743F91648FEF740F9B9
:1048B0001548FEF73DF91548FEF728F900F058FBBA
:1048C00003B05DF804FB1148FEF732F90E48FEF71D
:1048D0002FF90C48FEF72CF90848FEF717F908489D
:1048E000FEF714F9ECE70A4B019354230093094BAC
:1048F000094A0A490120FDF737FCE1E73C0C00209A
:10490000B80B0020100C0020E40B00208C0B0020C2
:10491000BCB00008D8B10008F0AE000840AF0008F5
:1049200000B583B00C4B01935A2300930B4B0C4AF8
:104930000C490320FDF718FC00F058F9013000F095
:10494000010048BF4042C0B200F028F9FFF7A0FFC5
:1049500003B05DF804FB00BFD0B00008E4B100086C
:10496000F0AE000840AF00082DE9F04F83B0012100
:104970000420FDF795FA0F23ADF8043003248DF8D9
:10498000064048238DF807305D4D01A92846FDF704
:10499000BFF9F023ADF804308DF8064028238DF8D8
:1049A000073001A92846FDF7B3F9564DDFF85881C5
:1049B00000231A4629464046FEF787F8DFF84CB137
:1049C0000123002229465846FEF77FF802230022E1
:1049D00029464F48FEF779F8DFF838912346002240
:1049E00029464846FEF771F84B4E0423012229461A
:1049F0003046FEF76AF8494F05230122294638461A
:104A0000FEF763F80623012229464548FEF75DF8C4
:104A1000DFF810A10723012229465046FEF755F87A
:104A2000414D2A4621464046FEF76AF82A460221B1
:104A30004046FEF765F83D4D2A4621465846FEF7AA
:104A40005FF82A4602215846FEF75AF8384D2A46A2
:104A500021462F48FEF754F82A4602212C48FEF73B
:104A60004FF8344D2A4621464846FEF749F82A4673
:104A700002214846FEF744F82F4A05214846FEF732
:104A80003FF82E4D2A4621463046FEF739F82A4691
:104A900002213046FEF734F8294A05213046FEF758
:104AA0002FF8284A21463846FEF72AF8264A0521DB
:104AB0003846FEF725F8254D2A4621461848FEF7C8
:104AC0001FF82A4602211648FEF71AF8204D2A46FA
:104AD00021465046FEF714F82A4602215046FEF7BA
:104AE0000FF84046FEF712F83046FEF70FF838464A
:104AF000FEF70CF8FFF7CCFE03B0BDE8F08F00BF67
:104B00000008014025480008600B00208C0B0020A5
:104B10003C0C0020B80B0020940C0020680C0020F6
:104B2000E40B0020100C002021490008BD470008BC
:104B300089470008E9450008F9460008C54600080D
:104B4000894600085546000819460008B94500087E
:104B50008945000808B501210D48FDF728FA01280C
:104B600000D008BD0B4A13780133DBB213700A4939
:104B70000A7801320A70052B04D001210448FDF7A0
:104B800022FAEEE7034B00221A70FDF7DFFFF4E78D
:104B900000040040C00C0020C10C002030B585B0DE
:104BA00004460390074D2B780293074B019324236F
:104BB0000093064B064A07490320FDF7D5FA2C70EF
:104BC00005B030BDC40C0020F4B2000868B3000882
:104BD0009CB20008ECB2000808B5FCF7D3FEFCF765
:104BE000FDFB0020FFF7DAFF08BD0000014B18783D
:104BF000704700BFC40C002030B589B0444B1B780F
:104C00002BB1012B76D00020FFF7C8FF6EE0FCF738
:104C100076FC0020FCF79AFCFCF77CFCFBF766FFB7
:104C2000C2B23C4903A801F03BF802210020FCF786
:104C3000C5FC394C0122214603A8FCF713FD0122D3
:104C400021463648FCF70EFD354D2A78354BA3FB3F
:104C500002139B0803EB4303A2EB4303DBB20122E5
:104C60002146314850F82300FCF7FCFC2F4B1B7801
:104C70002F4A12782F4903A801F012F810210320BF
:104C8000FCF79CFC01222C4903A8FCF7EBFC2A78DA
:104C90002A4903A801F004F8294D0122294603A856
:104CA000FCF7E0FC2B210020FCF788FC01222146C8
:104CB0002448FCF7D7FC35210020FCF77FFC0122BB
:104CC00021462148FCF7CEFC2D214020FCF776FC44
:104CD000012229461D4B1868FCF7C4FC01230093F0
:104CE0000F237F2219460020FCF7CDFCFCF726FE9F
:104CF00009B030BD14211020FCF760FC0020FCF747
:104D000025FC01220C491248FCF7ACFCEEE700BF81
:104D1000C40C00200CB300081800002010B30008D9
:104D2000560B0020ABAAAAAA34000020530B002087
:104D3000520B002018B30008100000201CB300081C
:104D40000800002024B300082CB30008440B002006
:104D500038B30008074B1B78074A12781A44074BF0
:104D60001B78134493FBF0F200FB12300130C0B209
:104D7000704700BF560B0020530B0020520B002041
:104D80000C4B1B78012B13D030B585B004460D4673
:104D9000FCF77EF903950294074B01936823009377
:104DA000064B074A07490320FDF7DEF905B030BD81
:104DB000704700BFC50C0020D0B30008D4B4000871
:104DC00078B30008C8B3000808B55420FFF7C2FF45
:104DD00001461520FFF7D4FF08BD10B55420FFF79A
:104DE000B9FF0446FFF770FB40B10220FFF7B2FFA6
:104DF000044621202146FFF7C3FF10BDFFF77CFBCF
:104E000028B10F20FFF7A6FF04460F20F2E7152078
:104E1000F0E708B55420FFF79DFF01461520FFF786
:104E2000AFFF08BD08B55420FFF794FF124B1B7865
:104E30003BB90720FFF78EFF01461F20FFF7A0FFB9
:104E400008BD0146012B13D0032B13D0022B03D036
:104E5000042B07D01520F1E70520FFF77BFF014663
:104E60002020EBE70220FFF775FF01462120E5E750
:104E70001520E3E71520E1E75A0B002008B5542080
:104E8000FFF768FF074B1B78032B04D00146152062
:104E9000FFF776FF08BD0220FFF75CFF01462920DF
:104EA000F6E700BF550B002038B504465420FFF745
:104EB00051FF054634B1012C0ED015202946FFF7CD
:104EC0005FFF38BDFFF748FB0028F4D00220FFF752
:104ED00041FF05465120F1E7FFF726FB28B10220EC
:104EE000FFF738FF05465220E8E71520E6E708B54A
:104EF0000520FFF72FFF05281AD8DFE800F003068A
:104F0000090C0F12FFF760FF08BDFFF766FFFBE714
:104F1000FFF77FFFF8E7FFF785FFF5E7FFF7AEFF45
:104F2000F2E70020FFF7C0FF0120FFF7BDFFEBE72E
:104F3000FFF76FFFE8E7000008B5054B18781E285B
:104F400004D00130C0B21870FCF78DF808BD00BF66
:104F5000C60C002008B5054B187800B908BD01380B
:104F6000C0B21870FCF77FF8F8E700BFC60C00204D
:104F700000B583B0084B0193FC230093074B084A0C
:104F800008490320FDF7F0F8074B19785020FCF78B
:104F90007FF803B05DF804FBF4B30008C4B4000864
:104FA00078B30008C8B300084C00002000B583B0F7
:104FB000074B019340F201130093064B064A074941
:104FC0000320FDF7D1F8FCF755F803B05DF804FBBA
:104FD0000CB40008B0B4000878B30008C8B30008E7
:104FE00000B583B0074B01934FF483730093064BD6
:104FF000064A07490320FDF7B7F8FCF742F803B06B
:105000005DF804FB28B400089CB4000878B30008DD
:10501000C8B3000800B583B00E4B019340F20B13E8
:1050200000930D4B0D4A0E490320FDF79DF80D4AE4
:10503000137801335BB21370542B02DD1346012247
:105040001A70084B19785020FCF722F803B05DF86D
:1050500004FB00BF44B400088CB4000878B3000817
:10506000C8B300084C00002000B583B00E4B01937C
:105070004FF4897300930D4B0D4A0E490320FDF741
:1050800073F80D4A1378013B5BB21370002B07DDF8
:10509000094B19785020FBF7FBFF03B05DF804FBC8
:1050A000134654221A70F3E75CB4000878B4000881
:1050B00078B30008C8B300084C00002008B5044BC2
:1050C0001870FBF7C1FF034B00221A7008BD00BF28
:1050D000C60C0020C50C002008B5FFF7C9F8FFF783
:1050E00043FCFFF7E9F9FFF777FD1420FFF7E6FF30
:1050F00008BD000008B5114B1B680021986800F03E
:10510000CDFCFDF733FBFF210020FDF721FA07213D
:105110000120FDF71DFA07210220FDF719FA0721EA
:105120000320FDF715FABF210420FDF711FABF2176
:105130000520FDF70DFAFDF7E5F908BD5000002048
:1051400008B5FFF7D7FFFFF7C7FFFFF7ABF9FFF78A
:1051500053FDFAE77047FEE7FEE7FEE7FEE770471C
:10516000704770477047000070B500260C4D0D4C1D
:10517000641BA410A64209D103F0B0F800260A4D22
:105180000A4C641BA410A64205D170BD55F8043B1F
:1051900098470136EEE755F8043B98470136F2E7A9
:1051A0000CB900080CB900080CB9000810B90008C7
:1051B000034610B5C9B202449342184601D10020FB
:1051C00003E0047801338C42F6D110BD034602445B
:1051D000934200D1704703F8011BF9E7002B2DE93A
:1051E000F0471F46BBBF03F100431F4600232D239A
:1051F00088B01446129A109D1370149BDDF84CA0D1
:1052000023F02008B8F1460F05D0B8F1450F00D1C2
:105210000135022300E0032307AA049206AACDE980
:1052200002A2CDE9003522463B4600F049FEB8F126
:10523000470F064602D1119BDB0722D5B8F1460F76
:1052400006EB050910D13378302B0AD10022002358
:1052500020463946FBF7A0FB18B9C5F10105CAF88D
:105260000050DAF8003099440022002320463946E5
:10527000FBF792FB08B1CDF81C903022079B4B4501
:1052800007D33046079B159A9B1B136008B0BDE8F7
:10529000F087591C07911A70F0E70346F7B500290B
:1052A00003F8022BB6BF2D222B2249420929427056
:1052B0002BDD0DF10704A4460A2791FBF7F60A46F9
:1052C000A64607FB1615632A05F13005314604F1A1
:1052D000FF340EF8015CF0DC3031AEF1020504F869
:1052E000011C2946441C61450AD30DF10902A2EBB9
:1052F0000E02654588BF00221344181A03B0F0BDA2
:1053000011F8012B04F8012FEDE7302330318370C1
:10531000C170031DF1E700002DE9F04F91B00C467C
:10532000DDF8688016461F46054601F06BFD0368F0
:1053300018460993FBF726FE00230E93D8F8003099
:105340000A90073323F0070303F1080294F818903A
:10535000D4F800B0C8F80020D3E90023C4E9122330
:10536000D4E9128A2AF000430B934FF0FF324046F3
:105370009C4B0B99FBF70EFE70BB4FF0FF32404683
:10538000984B0B99FBF71CFB30BB002200234046D7
:105390005146FBF70BFB10B12D2384F84330924BA1
:1053A0009248B9F1470F94BF9846804603234FF0C7
:1053B000000A23612BF0040323603346214628466C
:1053C00000970FAA00F0D4F9013040F090804FF020
:1053D000FF3011B0BDE8F08F42465346404651467B
:1053E000FBF7D8FD48B1BAF1000FB8BF2D238048B4
:1053F000B8BF84F843307F4BD3E7636809F0DF011F
:105400005A1C42D106236360002206920EAACDE9FF
:1054100004920DAA4BF4806303920DF13302CDE99F
:1054200001322360636842460093284653460B913D
:10543000FFF7D4FE0B99804647290D9908D1C81C67
:1054400002DB6368994240DDA9F102095FFA89F93C
:10545000B9F1650F1FD84A46013904F150000D918A
:10546000FFF71BFF0E9A82461318012A236102DC04
:105470002268D20701D5013323619DF83330002B18
:105480009BD02D2384F8433097E74729BCD1002BCC
:10549000BAD10123B7E7B9F1660F18D100296368C3
:1054A0000BDD216113B92268D00702D501330B440B
:1054B00023614FF0000AA165DFE713B92268D20724
:1054C00001D50233F4E70123F2E74FF067090E9BA1
:1054D000994205DB23682161D807EAD54B1CE7E731
:1054E0000029CCBF0122C1F102021344E0E7236886
:1054F0005A0507D42369424631462846B847013049
:105500002BD164E7B9F1650F40F2DD80D4E91201D7
:1055100000220023FBF740FA002833D00123314654
:105520002846354AB84701303FF451AFDDE90D2335
:105530009A4202DB2368D8070FD5DDE909233146FB
:105540002846B84701303FF442AF4FF0000804F15D
:105550001A090E9B013B434509DC23689B0700F1B8
:105560000281E0680F9B9842B8BF184631E70123DB
:105570004A4631462846B84701303FF428AF08F183
:105580000108E6E70D9B002B38DC01233146284655
:10559000194AB84701303FF41AAFDDE90D23134330
:1055A00002D12368D907D8D5DDE909233146284639
:1055B000B84701303FF40BAF4FF0000904F11A0A6D
:1055C0000D9B5B424B4501DC0E9B94E70123524649
:1055D00031462846B84701303FF4F9AE09F10109D8
:1055E000EEE700BFFFFFEF7FE4B40008E8B4000877
:1055F000F0B40008ECB40008F4B400080E9AA36DEF
:105600009A42A8BF1A46002A914637DC4FF0000B99
:1056100029EAE97904F11A02D4F858A0AAEB09039F
:105620005B4533DCDDE90D239A423BDB2368DA0777
:1056300038D40E9B0D99A3EB0A02A3EB0109914507
:10564000A8BF9146B9F1000F34DC4FF0000829EAF9
:10565000E97904F11A0ADDE90D239B1AA3EB09038A
:1056600043457FF77AAF0123524631462846B84773
:1056700001303FF4ACAE08F10108ECE713463146C7
:1056800042462846B8470130C0D1A0E60123314642
:1056900028460B92B84701303FF499AE0B9A0BF1B4
:1056A000010BB9E73146DDE909232846B847013047
:1056B000BFD18CE64B463146284608EB0A02B84774
:1056C0000130C2D183E60E9A012A01DCDB0737D50F
:1056D0000123424631462846B84701303FF477AEB1
:1056E000DDE9092331462846B84701303FF46FAE63
:1056F000D4E9120100220023FBF74EF9D8B90E9B22
:1057000008F10102013B31462846B84701300ED16D
:105710005DE601234A4631462846B84701303FF44A
:1057200056AE08F101080E9B013B4345F1DC5346A0
:1057300004F15002E0E64FF0000804F11A09F2E724
:1057400001234246DFE701234A4631462846B8474F
:1057500001303FF43CAE08F10108E3680F995B1A91
:105760004345F0DCFDE64FF0000804F11909F4E7C9
:105770002DE9F047164699468A680B690746934219
:10578000B8BF1346336091F843200C46DDF8208003
:105790000AB1013333602368990642BF336802338C
:1057A0003360256815F0060506D104F1190AE3688F
:1057B00032689B1AAB4228DC94F84320131E2268FF
:1057C00018BF012392062DD44946384604F14302FE
:1057D000C047013020D02368E56803F00603042B9E
:1057E00018BF002532684FF00006A36808BFAD1A45
:1057F000226908BF25EAE5759342C4BF9B1AED18DC
:105800001A34B5421AD1002008E001235246494615
:105810003846C047013003D14FF0FF30BDE8F08774
:105820000135C4E73020E11881F843005A1C94F890
:1058300045102244023382F84310C5E70123224673
:1058400049463846C0470130E6D00136D9E7000066
:105850002DE9FF470F7E9146782F80460C469A46E9
:105860000C9D01F1430207D8622F0AD8002F00F0E7
:10587000D980582F00F0A48004F1420584F84270CA
:105880003AE0A7F16303152BF6D801A151F823F0F4
:10589000E9580008FD5800087958000879580008B0
:1058A0007958000879580008FD5800087958000810
:1058B0007958000879580008795800080B5A0008F0
:1058C0002D590008ED59000879580008795800084A
:1058D0002D5A0008795800082D59000879580008F9
:1058E00079580008F55900082B681A1D1B682A60B2
:1058F00004F1420584F842300123A4E020682968BD
:10590000060601F104030AD50E682B60002E03DAA7
:105910002D23764284F843300A235E4819E00E684E
:1059200010F0400F2B6018BF36B2EFE72B682068ED
:10593000191D2960010601D51E6802E04606FBD547
:105940001E886F2F0CBF08230A235248002184F8B9
:1059500043106568002DA8BF2168A560A4BF21F091
:10596000040121600EB9002D4DD01546B6FBF3F1B0
:1059700003FB1167C75D05F8017D3746BB420E4644
:10598000F4D9082B0BD12368DE0708D52369616899
:105990009942DEBF302305F8013C05F1FF35521B6B
:1059A00022614B4621464046CDF800A003AAFFF7EE
:1059B000DFFE01304CD14FF0FF3004B0BDE8F0877E
:1059C000344881F845702968236851F8046B2960D0
:1059D0001D0614D5DF0744BF43F0200323601EB922
:1059E000236823F0200323601023AFE7236843F0EC
:1059F000200323607823284884F84530E3E75906DC
:105A000048BFB6B2E6E71546BBE72B682668181D07
:105A10006169286035061B6801D5196002E07006CF
:105A2000FBD51980002315462361BAE72B680021B6
:105A30001A1D2A601D6862682846FFF7B9FB08B185
:105A4000401B606063682361002384F84330A8E74B
:105A50002A46494640462369D0470130ABD02368E7
:105A60009B0713D4E068039B9842B8BF1846A4E78D
:105A70000123324649464046D04701309BD001358C
:105A8000E36803995B1AAB42F2DCEBE7002504F113
:105A90001906F5E7F6B4000807B5000800294FF429
:105AA00080630CBF0222002200F000B82DE9F7430A
:105AB0001D465D4B04461F680E46904627B1BB69E4
:105AC00013B9384601F000F9584B9C4267D17C6805
:105AD000B8F1020F06D0B8F1010F00F29F80002D3F
