:020000040800F2
:1000000000500020F9230008F52D0008F72D000806
:10001000F92D0008FB2D0008FD2D00080000000050
:10002000000000000000000000000000FF2D00089C
:10003000012E000800000000032E0008052E000815
:1000400041240008412400084124000841240008FC
:1000500041240008412400084124000841240008EC
:1000600041240008412400084124000841240008DC
:1000700041240008412400084124000849180008D0
:1000800041240008412400084124000841240008BC
:1000900041240008412400084124000841240008AC
:1000A000412400084124000841240008412400089C
:1000B00041240008B92B000841240008412400080D
:1000C000412400084124000841240008412400087C
:1000D0004124000881180008412400084124000838
:1000E00041240008412400084124000800000000C9
:1000F0000000000000000000000000000000000000
:0C01000000000000000000005FF808F1A3
:1001100010B5054C237833B9044B13B10448AFF341
:1001200000800123237010BD0802002000000000A1
:10013000406A000808B5034B1BB103490348AFF3FD
:10014000008008BD000000000C020020406A00088A
:1001500081F0004102E000BF83F0004330B54FEA78
:1001600041044FEA430594EA050F08BF90EA020FE5
:100170001FBF54EA000C55EA020C7FEA645C7FEA78
:10018000655C00F0E2804FEA5454D4EB5555B8BF9B
:100190006D420CDD2C4480EA020281EA030382EA0C
:1001A000000083EA010180EA020281EA0303362D9E
:1001B00088BF30BD11F0004F4FEA01314FF4801C71
:1001C0004CEA113102D0404261EB410113F0004F83
:1001D0004FEA03334CEA133302D0524263EB43033A
:1001E00094EA050F00F0A780A4F10104D5F1200ED8
:1001F0000DDB02FA0EFC22FA05F2801841F1000133
:1002000003FA0EF2801843FA05F359410EE0A5F106
:1002100020050EF1200E012A03FA0EFC28BF4CF037
:10022000020C43FA05F3C01851EBE37101F00045ED
:1002300007D54FF0000EDCF1000C7EEB00006EEBFA
:100240000101B1F5801F1BD3B1F5001F0CD3490884
:100250005FEA30004FEA3C0C04F101044FEA4452DB
:1002600012F5800F80F09A80BCF1004F08BF5FEA62
:10027000500C50F1000041EB045141EA050130BD42
:100280005FEA4C0C404141EB0101013C28BFB1F554
:10029000801FE9D291F0000F04BF01460020B1FA9F
:1002A00081F308BF2033A3F10B03B3F120020CDA72
:1002B0000C3208DD02F1140CC2F10C0201FA0CF050
:1002C00021FA02F10CE002F11402D8BFC2F1200CB5
:1002D00001FA02F120FA0CFCDCBF41EA0C0190406B
:1002E000E41AA2BF01EB0451294330BD6FEA0404B4
:1002F0001F3C1CDA0C340EDC04F11404C4F120029F
:1003000020FA04F001FA02F340EA030021FA04F3B0
:1003100045EA030130BDC4F10C04C4F1200220FA07
:1003200002F001FA04F340EA0300294630BD21FA45
:1003300004F0294630BD94F0000F83F4801306BF0B
:1003400081F480110134013D4EE77FEA645C18BFFF
:100350007FEA655C29D094EA050F08BF90EA020F96
:1003600005D054EA000C04BF1946104630BD91EA8E
:10037000030F1EBF0021002030BD5FEA545C05D191
:100380004000494128BF41F0004130BD14F58004D0
:100390003CBF01F5801130BD01F0004545F0FE4144
:1003A00041F470014FF0000030BD7FEA645C1ABF79
:1003B000194610467FEA655C1CBF0B46024650EAB0
:1003C000013406BF52EA033591EA030F41F40021DC
:1003D00030BD00BF90F0000F04BF0021704730B562
:1003E0004FF4806404F132044FF000054FF0000137
:1003F00050E700BF90F0000F04BF0021704730B5F8
:100400004FF4806404F1320410F0004548BF4042CC
:100410004FF000013EE700BF42004FEAE2014FEA21
:1004200031014FEA02701FBF12F07F4393F07F4FFC
:1004300081F06051704732F07F4208BF704793F0FF
:100440007F4F04BF41F40021704730B54FF4607412
:1004500001F0004521F000411CE700BF50EA010215
:1004600008BF704730B54FF000050AE050EA0102BE
:1004700008BF704730B511F0004502D5404261EB2E
:1004800041014FF4806404F132045FEA915C3FF46F
:10049000D8AE4FF003025FEADC0C18BF03325FEA0C
:1004A000DC0C18BF033202EBDC02C2F1200300FABD
:1004B00003FC20FA02F001FA03FE40EA0E0021FAE2
:1004C00002F11444BDE600BF70B54FF0FF0C4CF4D0
:1004D000E06C1CEA11541DBF1CEA135594EA0C0F82
:1004E00095EA0C0F00F0DEF82C4481EA030621EABD
:1004F0004C5123EA4C5350EA013518BF52EA0335F8
:1005000041F4801143F4801338D0A0FB02CE4FF0A9
:100510000005E1FB02E506F00042E0FB03E54FF0D9
:100520000006E1FB03569CF0000F18BF4EF0010ED1
:10053000A4F1FF04B6F5007F64F5407404D25FEACD
:100540004E0E6D4146EB060642EAC62141EA555180
:100550004FEAC52040EA5E504FEACE2EB4F1FD0CC2
:1005600088BFBCF5E06F1ED8BEF1004F08BF5FEA40
:10057000500E50F1000041EB045170BD06F00046F2
:1005800046EA010140EA020081EA0301B4EB5C049F
:10059000C2BFD4EB0C0541EA045170BD41F4801197
:1005A0004FF0000E013C00F3AB8014F1360FDEBFBC
:1005B000002001F0004170BDC4F10004203C35DA98
:1005C0000C341BDC04F11404C4F1200500FA05F31B
:1005D00020FA04F001FA05F240EA020001F00042BC
:1005E00021F0004110EBD37021FA04F642EB060132
:1005F0005EEA430E08BF20EAD37070BDC4F10C045C
:10060000C4F1200500FA04F320FA05F001FA04F21F
:1006100040EA020001F0004110EBD37041F100010B
:100620005EEA430E08BF20EAD37070BDC4F1200516
:1006300000FA05F24EEA020E20FA04F301FA05F27E
:1006400043EA020321FA04F001F0004121FA04F226
:1006500020EA020000EBD3705EEA430E08BF20EAF6
:10066000D37070BD94F0000F0FD101F00046400030
:1006700041EB010111F4801F08BF013CF7D041EAB2
:10068000060195F0000F18BF704703F000465200B6
:1006900043EB030313F4801F08BF013DF7D043EA87
:1006A0000603704794EA0C0F0CEA135518BF95EA3D
:1006B0000C0F0CD050EA410618BF52EA4306D1D1C4
:1006C00081EA030101F000414FF0000070BD50EAE3
:1006D000410606BF1046194652EA430619D094EA6D
:1006E0000C0F02D150EA013613D195EA0C0F05D157
:1006F00052EA03361CBF104619460AD181EA0301AB
:1007000001F0004141F0FE4141F470014FF0000062
:1007100070BD41F0FE4141F4780170BD70B54FF0FD
:10072000FF0C4CF4E06C1CEA11541DBF1CEA13557D
:1007300094EA0C0F95EA0C0F00F0A7F8A4EB05045F
:1007400081EA030E52EA03354FEA013100F0888056
:100750004FEA03334FF0805545EA131343EA12631F
:100760004FEA022245EA111545EA10654FEA0026D4
:100770000EF000419D4208BF964244F1FD0404F58D
:10078000407402D25B084FEA3202B61A65EB0305E9
:100790005B084FEA32024FF480104FF4002CB6EBA6
:1007A000020E75EB030E22BFB61A754640EA0C0026
:1007B0005B084FEA3202B6EB020E75EB030E22BF66
:1007C000B61A754640EA5C005B084FEA3202B6EBA7
:1007D000020E75EB030E22BFB61A754640EA9C0066
:1007E0005B084FEA3202B6EB020E75EB030E22BF36
:1007F000B61A754640EADC0055EA060E18D04FEAF4
:10080000051545EA16754FEA06164FEAC30343EA93
:1008100052734FEAC2025FEA1C1CC0D111F4801F60
:100820000BD141EA00014FF000004FF0004CB6E759
:1008300011F4801F04BF01430020B4F1FD0C88BFF8
:10084000BCF5E06F3FF6AFAEB5EB030C04BFB6EB03
:10085000020C5FEA500C50F1000041EB045170BDF6
:100860000EF0004E4EEA113114EB5C04C2BFD4EB23
:100870000C0541EA045170BD41F480114FF0000EA7
:10088000013C90E645EA060E8DE60CEA135594EA23
:100890000C0F08BF95EA0C0F3FF43BAF94EA0C0F26
:1008A0000AD150EA01347FF434AF95EA0C0F7FF49B
:1008B00025AF104619462CE795EA0C0F06D152EAEF
:1008C00003353FF4FDAE1046194622E750EA4106D3
:1008D00018BF52EA43067FF4C5AE50EA41047FF4E4
:1008E0000DAF52EA43057FF4EBAE12E74FF0FF3C49
:1008F00006E000BF4FF0010C02E000BF4FF0010C1A
:100900004DF804CD4FEA410C7FEA6C5C4FEA430C92
:1009100018BF7FEA6C5C1BD001B050EA410C0CBFE1
:1009200052EA430C91EA030F02BF90EA020F002043
:10093000704710F1000F91EA030F58BF994208BFAA
:1009400090422CBFD8176FEAE37040F00100704767
:100950004FEA410C7FEA6C5C02D150EA013C07D1BE
:100960004FEA430C7FEA6C5CD6D152EA033CD3D009
:100970005DF8040B704700BF8446104662468C4603
:100980001946634600E000BF01B5FFF7B7FF002836
:1009900048BF10F1000F01BD4DF808EDFFF7F4FF5F
:1009A0000CBF012000205DF808FB00BF4DF808EDEA
:1009B000FFF7EAFF34BF012000205DF808FB00BF0D
:1009C0004DF808EDFFF7E0FF94BF012000205DF82F
:1009D00008FB00BF4DF808EDFFF7CEFF94BF0120E4
:1009E00000205DF808FB00BF4DF808EDFFF7C4FFDD
:1009F00034BF012000205DF808FB00BF4FEA410230
:100A000012F5001215D211D56FF47873B3EB625260
:100A100012D94FEAC12343F0004343EA505311F087
:100A2000004F23FA02F018BF404270474FF0000019
:100A3000704750EA013005D111F0004008BF6FF057
:100A4000004070474FF00000704700BF4FEA41027E
:100A5000B2F1E04324BFB3F5001CDCF1FE5C0DD91C
:100A600001F0004C4FEAC0024CEA5070B2F1004F66
:100A700040EB830008BF20F00100704711F0804F69
:100A800021D113F13872BCBF01F00040704741F42E
:100A900080114FEA5252C2F11802C2F1200C10FA32
:100AA0000CF320FA02F018BF40F001004FEAC12316
:100AB0004FEAD32303FA0CFC40EA0C0023FA02F3BA
:100AC0004FEA4303CCE77FEA625307D150EA013390
:100AD0001EBF4FF0FE4040F44000704701F0004060
:100AE00040F0FE4040F40000704700BF42000ED2CC
:100AF000B2F1FE4F0BD34FF09E03B3EB126209D459
:100B00004FEA002343F0004323FA02F070474FF00E
:100B10000000704712F1610F01D1420202D14FF083
:100B2000FF3070474FF00000704700BF034613F8D6
:100B3000012B002AFBD1181A013870474FEA410CEB
:100B40007FEA6C5C02D150EA013C0AD14FEA430CC7
:100B50007FEA6C5C02D152EA033C02D14FF0000004
:100B600070474FF00100704708B57E2000F0B8FDD7
:100B70000821034800F0C2FDEF2000F0B1FD08BDE0
:100B80002C02002008B500EB010C9444CCF57E4CFF
:100B90000CF1FB0C0A4B4FF0FF0E83F800E04FF016
:100BA000060E83F801E098700020D87019715A7110
:100BB000CCF307229A7183F807C0FFF7D5FF08BD71
:100BC0002C02002010B5044600F0E0FD02220021B6
:100BD0003F20FFF7D7FF022001F053FC22460021FF
:100BE0000620FFF7CFFF10BD08B502460021062002
:100BF000FFF7C8FF08BD08B5002211460E20FFF719
:100C0000C1FF08BD08B5002211460D20FFF7BAFF4D
:100C100008BD08B50A4601460F20FFF7B3FF08BD1F
:100C200000B583B00121082001F03AF84FF4804369
:100C3000ADF8043048238DF8073001A9024800F0D0
:100C400059FF03B05DF804FB000C014000B583B010
:100C50000121082001F024F84FF48043ADF804305E
:100C600010238DF8073003238DF8063001A90348BF
:100C700000F040FF03B05DF804FB00BF000C014032
:100C800070B582B00121082001F00AF80121082086
:100C900001F006F80121082001F002F84FF400539A
:100CA000ADF8043010268DF8076003258DF8065046
:100CB0000F4C01A9204600F01DFF4FF48043ADF812
:100CC00004308DF807608DF8065001A9204600F029
:100CD00011FF4FF40043ADF804308DF807608DF834
:100CE000065001A9204600F005FF02B070BD00BF0C
:100CF000000C014070B50546FFF7A8FF002412E084
:100D00004FF480410E4800F057FF6D080C4E4FF431
:100D10000051304600F04EFF4FF40051304600F0D5
:100D20004BFF0134E4B2072C08D815F0010FE7D0CF
:100D30004FF48041024800F03DFFE6E770BD00BF80
:100D4000000C014070B506460D460E4C4FF40041B4
:100D5000204600F031FF4FF40051204600F02CFFF8
:100D60004FF40041204600F025FF3046FFF7C2FF58
:100D70002846FFF7BFFF4FF40041204600F01CFF5C
:100D800070BD00BF000C014070B5FFF749FF0025A2
:100D90002C460CE00E4E4FF40051304600F00AFF96
:100DA0004FF40051304600F007FF0134E4B2072C45
:100DB0000BD86D084FF48041054800F0F4FE01287F
:100DC000E8D165F07F05EDB2E4E7284670BD00BFCD
:100DD000000C014038B505460E4C4FF4004120464A
:100DE00000F0EAFE4FF40051204600F0E5FE4FF41B
:100DF0000041204600F0DEFE2846FFF77BFFFFF7AC
:100E0000C3FF05464FF40041204600F0D5FE2846BA
:100E100038BD00BF000C014000220AE0835C03F0F3
:100E20000F0C1B0903EB83030CEB430383540132C8
:100E3000D2B28A42F2D3704700238B4214D210B44C
:100E4000C25C0A4CA4FB024C4FEADC04A44604EB4F
:100E50008404A2EB440242EA0C12C2540133DBB216
:100E60008B42EDD310BC7047704700BFCDCCCCCCCB
:100E700010B5FFF705FF154C07212046FFF7DCFFF3
:100E800080218E20FFF75EFF21788C20FFF75AFF2C
:100E900061788820FFF756FFA1788620FFF752FF80
:100EA000E1788420FFF74EFF21798220FFF74AFF87
:100EB00061798020FFF746FFA1798A20FFF742FF82
:100EC00080218E20FFF73EFF10BD00BF00000020F4
:100ED00010B58D20FFF77EFF0F4C20708920FFF7A3
:100EE00079FF60708720FFF775FFA0708520FFF7FE
:100EF00071FFE0708320FFF76DFF20718120FFF705
:100F000069FF60718B20FFF765FFA0710721204604
:100F1000FFF782FF10BD00BF0000002000B583B0C6
:100F2000044B1B68019301A9034800F0E3FD03B0E3
:100F30005DF804FB586A0008000C014000B583B05E
:100F4000044B5B68019301A9034800F0D3FD03B093
:100F50005DF804FB586A0008000C014000B583B03E
:100F60000121082000F09CFE044B5B68019301A95D
:100F7000034800F0BFFD03B05DF804FB586A0008A9
:100F8000000C014010B5FFF7D9FF0F4C022120469D
:100F900000F010FE0221204600F00EFE4FF4FA7021
:100FA00001F04FFAFFF7BAFF462001F04AFA02219A
:100FB000204600F0F8FD041E18BF01244FF4FA701B
:100FC00001F03FFA204610BD000C014038B5044640
:100FD000FFF7B4FF094D0221284600F0EDFD0A207D
:100FE00001F02FFA22460221284600F0E7FD3220C8
:100FF00001F027FAFFF792FF38BD00BF000C014057
:1010000010B5FFF79BFF0B4C0221204600F0D4FDEA
:10101000052001F016FAFFF781FF052001F011FA13
:101020000221204600F0BFFD04463C2001F009FAF1
:10103000204610BD000C014038B5054672B60024AC
:1010400006E00120A0402840FFF7C0FF0134E4B2D1
:10105000072CF6D962B638BD38B572B600252C46D5
:1010600001E00134E4B2072C08D8FFF7C9FF0028DB
:10107000F7D00123A3401D43EDB2F2E762B6284644
:1010800038BD08B5FFF77EFFCC20FFF7D5FF442021
:10109000FFF7D2FF08BD000010B5FFF773FFCC20AB
:1010A000FFF7CAFFBE20FFF7C7FFFFF7D5FF0446D3
:1010B000FFF7D2FF44EA0020FFF79CF90022034B20
:1010C000FFF702FAFFF7C2FC10BD00BF0000B03FFF
:1010D00008B530B900214FF48062034802F002F8ED
:1010E00008BDFF21F7E700BF3C0200207F2815D88C
:1010F0003F2913D8104B1B7913B1B2FA82F252096F
:10110000012A0CD0CB0800EBC31001F0070101232A
:101110008B400A4A115C21EA030111547047CB0845
:1011200000EBC31001F0070101238B40034A115C5F
:1011300019431154704700BF340200203C020020C4
:10114000014B188059807047340200202DE9F84384
:101150009046244B1B880A7813447F2B3EDC814643
:101160000D46204B5B884A7813443F2B38DC002621
:1011700020E01C4B1888598831442044B8FA88F282
:10118000520989B280B2FFF7B1FF01342B78A34234
:101190000FD907FA04F313F4004FEAD0114B188863
:1011A000598831442044424689B280B2FFF79EFFFD
:1011B000EBE701366A78B24208D96968A9F12003E1
:1011C00002FB036331F813700024DFE72B78054A34
:1011D00011880B4413804846BDE8F8830020FBE7E4
:1011E0000020F9E73402002070B504460E4615468B
:1011F00000E00134207838B12A463146FFF7A6FFD7
:10120000034620788342F4D070BD2DE9F04F83B0BF
:1012100004460E46174698469DF830B07F2800D900
:101220007F247F2F00D97F273F2E00D93F26B8F19A
:101230003F0F01D94FF03F08BC4220D2A7EB040971
:101240000FFA89F946451FD2A8EB060A0FFA8AFA67
:10125000BC421ED201231A4646451ED201230093EA
:10126000D1451EDD09EBD9756D10B9F1000F1ED007
:10127000BAF1000F34D0CDF80480904654E0A4EBCE
:1012800007090FFA89F9DDE7A6EB080A0FFA8AFACF
:10129000DEE74FF0FF331A46DEE74FF0FF330093EF
:1012A000DEE70AEBDA756D106D422DB2DDE74645DB
:1012B00002D84346B0461E46BC4200D827460FFA25
:1012C00088F80AE01FFA88F85A4641463846FFF780
:1012D0000DFF08F101080FFA88F8B045F2DD17E0BC
:1012E000464500D8B046BC4202D83B4627461C467D
:1012F0003FB207E0BFB25A4641463846FFF7F6FE16
:1013000001373FB2A742F5DD02E0019B9E4212D1B8
:1013100003B0BDE8F08F2B46554504DA4B441BB2B1
:10132000009A1644B6B21D465A4631462046FFF78B
:10133000DDFEBC42E9D0C9F100039D42EBDDA5EB27
:101340000A031BB24444A4B2E6E7000070B582B0C1
:101350000121082000F0A4FC14238DF8073003239A
:101360008DF806304FF48076ADF804600C4C01A97E
:10137000204600F0BFFB4FF40075ADF8045001A902
:10138000204600F0B7FB01223146204600F016FC53
:1013900001222946204600F011FC02B070BD00BFBA
:1013A000000C014010B50D4C01224FF40071204695
:1013B00000F004FC01224FF48071204600F0FEFB97
:1013C00000224FF40071204600F0F8FB00224FF499
:1013D0008071204600F0F2FB10BD00BF000C014000
:1013E00010B50A4C00224FF40071204600F0E6FBD5
:1013F00001224FF48071204600F0E0FB01224FF4FF
:101400000071204600F0DAFB10BD00BF000C014067
:1014100070B50646002416E080222241124D32406B
:101420004FF40071284600F0C9FB01224FF480718F
:10143000284600F0C3FB00224FF48071284600F0DC
:10144000BDFB0134E4B2072CE6D9074C01224FF46E
:101450008071204600F0B2FB00224FF480712046DC
:1014600000F0ACFB70BD00BF000C0140F8B50746B2
:101470000C4616461D46FFF795FF3846FFF7C8FF96
:101480002046FFF7C5FF002404E0305DFFF7C0FFF2
:101490000134A4B2AC42F8D3FFF7A2FFF8BD70B597
:1014A00006460D461446FFF77DFF3046FFF7B0FFB6
:1014B0002846FFF7ADFF2046FFF7AAFFFFF790FF92
:1014C00070BD000010B500241AE0A4F15002D2B2A1
:1014D00000217820FFF7E3FF002211467820FFF774
:1014E000DEFF102200217820FFF7D9FF8023064A73
:1014F00002EBC41240217820FFF7B8FF0134E4B2B8
:10150000072CE2D910BD00BF3C02002008B5FFF750
:101510001DFF40F6C41300E0013B002BFCD1AE22BE
:1015200000217820FFF7BBFF202200217820FFF761
:10153000B6FF102200217820FFF7B1FFB022002172
:101540007820FFF7ACFFC82200217820FFF7A7FF23
:10155000002211467820FFF7A2FF102200217820F8
:10156000FFF79DFF402200217820FFF798FF81229E
:1015700000217820FFF793FFFF2200217820FFF75A
:101580008EFFA12200217820FFF789FFA6220021EB
:101590007820FFF784FFA82200217820FFF77FFF43
:1015A0003F2200217820FFF77AFFA4220021782033
:1015B000FFF775FFD32200217820FFF770FF00228C
:1015C00011467820FFF76BFFD52200217820FFF726
:1015D00066FFF02200217820FFF761FFD922002169
:1015E0007820FFF75CFF222200217820FFF757FFC9
:1015F000DA2200217820FFF752FF12220021782002
:10160000FFF74DFFDB2200217820FFF748FF202263
:1016100000217820FFF743FF8D2200217820FFF77B
:101620003EFF142200217820FFF739FFAF2200216E
:101630007820FFF734FF2E2200217820FFF72FFFBC
:101640000020FFF745FDFFF73DFF034B00221A8006
:101650005A800120587108BD3402002030B58DB089
:101660000121084600F00EFB0A2304930024039492
:101670000B94154B0293089480230693202309931F
:10168000124B0193079405944FF400530A93104DA5
:1016900001A9284600F0D4F901220621284600F0CD
:1016A000FBF90C4BDB680C4B83F80F434FF4004203
:1016B0001A600121284600F0E2F901224021074882
:1016C00000F011FC0DB030BD44060020043801408C
:1016D0005800024000ED00E000E100E00038014069
:1016E00008B50146044800F00AFC8021024800F0D9
:1016F0000AFC0028F9D008BD0038014070B5064644
:101700000D46002403E0305DFFF7EAFF0134AC42F0
:10171000F9D370BD71B110B4074A136810F801CB4A
:10172000064C04F803C00139013313600029F3D1DA
:1017300010BC7047704700BF400600202402002004
:1017400010B50F4800F0B2F9C0F10A040D4B1B6848
:10175000A34207D007D2E11A0B481844FFF7DAFF7B
:10176000084B1C6010BDC3F10A0107481844FFF77D
:10177000D1FF002CF4D021460348FFF7CBFFEFE761
:10178000580002403C0600204406002070B586B098
:101790000024294B1C600121042000F081FA012162
:1017A0004FF4804000F07CFA18238DF817300326A0
:1017B0008DF816604FF40073ADF814301F4D05A975
:1017C000284600F097F948238DF817308DF81660F9
:1017D0004FF48063ADF8143005A9284600F08AF96B
:1017E0000823ADF808300126ADF80A60ADF80C40CA
:1017F0000C23ADF80E30ADF810404FF416530193A2
:1018000005F5405501A9284600F0E2FA324640F2BB
:101810002441284600F04CFB094BDB68094B83F858
:10182000254320225A60FFF719FF3146284600F071
:1018300031FB06B070BD00BF40060020000801402B
:1018400000ED00E000E100E008B54FF4802000F07A
:1018500031F9012806D04FF4003000F02BF90128AF
:1018600007D008BD4FF4802000F036F9FFF768FF7D
:10187000F1E74FF4003000F02FF9FFF761FFF0E7D8
:1018800008B540F22441074800F044FB012800D08D
:1018900008BD044B9B88FFF753FF034B00221A60DF
:1018A000F6E700BF003801404006002082B0002368
:1018B000019300932C4A136843F4803313602A4B3E
:1018C0001B6803F400330093019B01330193009BD9
:1018D0001BB9019BB3F5A06FF1D1234B1B6813F427
:1018E000003F06D001230093009B012B04D002B0DF
:1018F000704700230093F7E71C4B1A6842F0100270
:101900001A601A6822F007021A601A6842F002028E
:101910001A60A3F580535A685A605A685A605A6828
:1019200042F480625A605A6822F47C125A605A6803
:1019300042F4E8125A601A6842F080721A600A4B48
:101940001B6813F0007FFAD0074B5A6822F003029D
:101950005A605A6842F002025A60034B5B6803F017
:101960000C03082BF9D1C2E700100240002002400E
:1019700008B5FFF79BFF08BD08B5104B1A6842F089
:1019800001021A6059680E4A0A405A601A6822F029
:10199000847222F480321A601A6822F480221A605B
:1019A0005A6822F4FE025A604FF41F029A60FFF751
:1019B000DFFF044B4FF000629A6008BD0010024048
:1019C0000000FFF800ED00E040F0BF6040F40030A0
:1019D000014BD860704700BF00ED00E0C378FBB159
:1019E000154BDA68D243C2F30222C2F1040C0F2372
:1019F00023FA02F2417801FA0CF1837813400B4389
:101A00001B010278DBB20D490A4482F800330378E7
:101A100003F01F005B090122824041F82320704738
:101A2000037803F01F015B0901228A402033034938
:101A300041F82320704700BF00ED00E000E100E026
:101A400010B4026822F4FF4222F070028B680C6A24
:101A500023430C6923434C6923438C692343CC699A
:101A600023434C6A23438C6A234313430360CB68AC
:101A700043600B6883604B68C36010BC704721B142
:101A8000036843F0010303607047036823F0010318
:101A90001B041B0C036070471AB1036819430160F3
:101AA0007047036823EA010101607047406880B213
:101AB0007047000010F0805F05D0054B1B680342A3
:101AC00004D001207047034B1B68F8E700207047E3
:101AD000000402400000024010F0805F02D0034B7F
:101AE00058607047024B5860704700BF00040240C6
:101AF0000000024030B5CB7803F00F02964613F099
:101B0000100F03D091F802E04EEA020E0B7803B3F7
:101B10000468002301E042610133072B18D8012239
:101B20009A40B1F800C032EA0C05F5D14FEA830CB7
:101B30000F2505FA0CF524EA05040EFA0CFC4CEA14
:101B40000404CD78282DE6D0482DE5D10261E3E7E5
:101B500004600B88FF2B25D94468002303E0CD786F
:101B6000482D1CD00133072B1BD803F1080C012290
:101B700002FA0CF2B1F800C032EA0C05F2D14FEAD9
:101B8000830C0F2505FA0CF524EA05040EFA0CFC6B
:101B90004CEA0404CD78282DE1D14261DFE70261EF
:101BA000E0E7446030BD8368194201D001207047EE
:101BB0000020704701617047416170470AB10161BF
:101BC000704741617047000010B4294B5B6803F017
:101BD0000C03042B2BD0082B2CD013B1254B036006
:101BE00001E0244B036022494B68C3F30313224CEA
:101BF000E35CDAB20368D34043604A68C2F302226E
:101C0000A25CD2B223FA02F282604A68C2F3C22214
:101C1000A25CD2B2D340C3604A68C2F38132174992
:101C20008A5CD2B2B3FBF2F3036110BC7047114B74
:101C30000360D8E70E4A53685268C3F38343023304
:101C400012F4803F04D10E4A02FB03F30360CAE79B
:101C5000074A526812F4003F04D0094A02FB03F31A
:101C60000360C0E7034A02FB03F30360BBE700BF66
:101C70000010024000127A00240000202000002002
:101C800000093D0021B1054A53691843506170476E
:101C9000024A536923EA0000506170470010024075
:101CA00021B1054A9369184390617047024A9369CC
:101CB00023EA0000906170470010024021B1054AFC
:101CC000D3691843D0617047024AD36923EA000000
:101CD000D06170470010024003889BB2214A9042B5
:101CE00012D002F5006290420ED0B0F1804F0BD0BE
:101CF000A2F59832904207D002F58062904203D05C
:101D000002F58062904203D123F070034A881343A6
:101D1000154A904208D002F58062904204D023F424
:101D200040739BB2CA88134303808B8883850B88DA
:101D300003850C4B98420FD003F5006398420BD0FB
:101D400003F54063984207D003F58063984203D0BF
:101D500003F58063984201D10B7A038601238382C5
:101D6000704700BF002C01400010004029B10388DB
:101D70009BB243F001030380704703889BB223F0BA
:101D800001039BB20380704722B183899BB2194340
:101D9000818170478389C94389B219408181704725
:101DA00003899BB223F007039BB203817047028A29
:101DB00083890B40114202D01BB9002070470020DC
:101DC000704701207047C94389B201827047000003
:101DD00030B587B004460D46038A9BB2CA8823F407
:101DE00040531343038283899BB2898828896A8977
:101DF00001430A4323F4B05323F00C031343A3819C
:101E0000A38A9BB2AA8923F440731343A38201A837
:101E1000FFF7DAFE1D4B9C4224D0039BA28912F4EB
:101E2000004F21D103EB830303EB83032A68920065
:101E3000B3FBF2F3164AA2FB03125209110164200C
:101E400002FB1033A28912F4004F16D11B0132336A
:101E50000F4AA2FB0323C3F343130B439BB223811B
:101E600007B030BD049BD9E703EB830303EB830387
:101E70002A685200B3FBF2F3DCE7DB003233044A9A
:101E8000A2FB0323C3F342130B43E7E700380140EF
:101E90001F85EB5129B183899BB243F400538381A1
:101EA000704783899BB223F400539BB283817047B0
:101EB000C1F3421C01F01F01012303FA01F19C450B
:101EC00008D0BCF1020F07D014303AB103681943AF
:101ED000016070470C30F8E71030F6E7036823EA3A
:101EE00001010160704722B1838A9BB2194381824C
:101EF0007047838AC94389B2194081827047C1F310
:101F00000801818070470388194201D00120704781
:101F100000207047C1F3421201F01F0C012303FAA5
:101F20000CF3012A0FD0022A11D0828A92B21340F8
:101F3000090A012202FA01F1028892B20A4053B161
:101F40005AB900207047828992B21340F0E7028AA2
:101F500092B21340ECE70020704701207047000068
:101F600070B5002412E00B4D04EB441606F130006E
:101F700028441F220021023001F0B4F83544002328
:101F800085F8313085F851300134E4B2042CEAD9B7
:101F900070BD00BF50060020014B83F8F100704770
:101FA0005006002008B5044B93F8F03003B908BD83
:101FB0000120FFF7F1FFFAE750060020014B83F8FC
:101FC000F50070475006002038B504460D46052838
:101FD00007D9074B1B684BB14FF49F720549064860
:101FE00098473634054B43F8245038BDFEE700BF10
:101FF00048070020B0920008809200085006002098
:1020000010B50446052807D9054B1B683BB14FF4B2
:10201000AC72044904489847044B1C7010BDFEE79D
:10202000480700209C92000880920008500600207B
:1020300008B50B4B83F8F20058B193F8F4301BB994
:10204000074A92F8F3202AB91BB1054B93F8F330F5
:102050001BB108BD00F02FF8FBE700F02EF8F8E701
:102060005006002038B5104B93F8F03013B100241F
:10207000204638BD00F01AF804460028F8D10120A7
:10208000FFF7D6FF084D002385F8F33085F8F430CC
:102090000120FFF793FF0520FFF7B2FFFFF760FF76
:1020A000012385F8F030E3E75006002008B500F082
:1020B0006BF9002008BD72B6704762B6704710B564
:1020C0000446836800799847E37813F0070F02D03D
:1020D000238801332380E378B0EBD31F13D01A4653
:1020E000C3F3C203013303F0070363F3C502E270D5
:1020F000022B0CD9D3B260F3C713E370DBB26FF3DA
:10210000C503E37003E0E3786FF3C503E370E3789E
:1021100003F00703052B00F2E480DFE813F006006C
:10212000260050009C00E200C400E378C3F3801254
:10213000B2EBD31F05D0A378082262F30713A37074
:10214000D3E0A3786FF30713A370E3680BB12046C5
:10215000984700232380A378012262F30303A3702E
:10216000E37862F30203E370BFE0E378C3F3801225
:10217000B2EBD31F10D0A378012262F30713A37030
:1021800023690BB12046984700232380E37802227D
:1021900062F30203E370A8E02388502B40F2A5808D
:1021A000A378052262F30713A370236A0BB12046BC
:1021B0009847E378052262F30203E37095E0E37841
:1021C000C3F38012B2EBD31F0FD023883C2B40F215
:1021D0008C80A37803F00F03012B26D0022B2FD085
:1021E000E3786FF30203E3707FE0A3786FF30713E4
:1021F000A370E3680BB120469847A37803F00F0360
:102200000F2B06D0A37803F00F02013262F3030311
:10221000A37063690BB12046984700232380E378BD
:10222000032262F30203E3705FE0A378032262F308
:102230000713A370A369002BD2D020469847CFE79D
:10224000A378042262F30713A370E369002BC7D0BD
:1022500020469847C4E7E378C3F38012B2EBD31F5C
:1022600018D0A378012262F30713A37023690BB17E
:102270002046984723883B2B07D800232380E37808
:10228000022262F30203E3702FE0E3786FF30203AC
:10229000E3702AE023883C2B27D9E378012262F3FC
:1022A0000203E37021E0E378C3F38012B2EBD31FA3
:1022B0000DD0A378012262F30713A37023690BB139
:1022C00020469847E3786FF30203E3700DE0A378AC
:1022D000062262F30713A370636A33B1204698475E
:1022E00003E0E3786FF30203E37010BDF8B5044632
:1022F0000E4617461D462C22002100F0F3FEA3785F
:10230000082262F30713A370A6602846B047E3785B
:1023100060F3C713E370DBB267F38613E3702571D4
:10232000F8BD023100EB810042607047074B1A682C
:10233000134600E09B6A23B18342FBD14FF0FF308C
:1023400070478262014B1860002070474C070020E4
:10235000054A01E003F12802136823B18342F9D151
:102360009B6A1360704770474C07002010B5054BFF
:102370001C6803E02046FFF7A2FEA46A002CF9D1F6
:1023800010BD00BF4C07002010B586B001214FF4EE
:102390008020FFF793FC01210820FFF781FC182320
:1023A0008DF817304FF48063ADF8143003238DF8A7
:1023B000163005A90E48FFF79DFB4FF41653019305
:1023C0000023ADF810300822ADF80E20ADF80C3027
:1023D000ADF80A30ADF80830064C01A92046FFF7E9
:1023E000F7FC01212046FFF755FD06B010BD00BFE8
:1023F000000C0140004800400C480D490D4A0023E4
:1024000002E0D458C4500433C4188C42F9D30A4AA9
:102410000A4C002301E013600432A242FBD3FFF711
:10242000ABFA00F02DFE00F01BFC7047000000200E
:1024300008020020C097000808020020E8080020D9
:10244000FEE700EBC000C0004FF0E023586100221F
:102450009A6105221A614FF0E0231B6913F4803F53
:10246000F9D04FF0E02304221A61704710B504E060
:102470004FF47A70FFF7E5FF2046441E0028F7D19D
:1024800010BD10B504E04FF47A70FFF7EFFF20465F
:10249000441E0028F7D110BD10B582B04FF4A060E3
:1024A000FFF792FA25238DF8043001248DF80740B8
:1024B0008DF805408DF8064001A8FFF78FFA0F232D
:1024C0008DF804308DF807408DF805408DF80640F2
:1024D00001A8FFF783FA1D238DF804308DF807401B
:1024E00000238DF805308DF8063001A8FFF776FA45
:1024F00002B010BD30B585B001210220FFF7DEFB30
:10250000144C2046FFF74CFC0025ADF80A50ADF8FE
:1025100006500923ADF8083041F61F43ADF80430EA
:102520008DF80C5001A92046FFF7D6FB0122114679
:102530002046FFF729FC084BDB68084B83F81D5346
:102540004FF000521A6001212046FFF70FFC05B042
:1025500030BD00BF0004004000ED00E000E100E0FD
:10256000144B1A78931FDBB2052B03D8124B0022B1
:102570001A707047A2F10C01C9B2042903D80E4B9E
:1025800001221A707047A2F11101C9B2012907D9BD
:10259000133AD2B2022A07D8074B02221A707047A8
:1025A000054B03221A7070470F2B02D9024B0422ED
:1025B0001A7070475E070020660700200E4B1A78DD
:1025C000D31EDBB2022B03D80C4B00221A707047CB
:1025D000931FDBB2022B03D8084B01221A707047FD
:1025E000093AD2B2022A03D8044B02221A70704769
:1025F000024B03221A707047600700206107002019
:1026000010B582B0134C6B4601AA2146124801F066
:10261000BFFA124B019A1A70009A5A706B4601AABF
:1026200021460F4801F0B4FA0E4B019A1A70009A35
:102630005A706B4601AA0C490C4801F0A9FA0C4BE0
:10264000019A1A70009A5A700A4B0B221A705A702B
:1026500002B010BDC0920008C892000864070020B4
:10266000D09200085C070020D8920008E092000891
:10267000580700205407002008B5FEF729FC0B4B33
:1026800019780B4A117059780A4A117099780A4AD8
:102690001170D978094A11701979094A117059795C
:1026A000084A11709A79084B1A7008BD0000002082
:1026B00068070020600700205A0700205E070020FE
:1026C0005F07002062070020670700201D4B1B7872
:1026D000162B03D91C4B1D4A1A607047152B03D9C2
:1026E000194B1B4A1A607047122B03D9164B194A13
:1026F0001A607047112B03D9134B174A1A607047A1
:102700000D2B03D9104B134A1A6070470C2B03D9B9
:102710000D4B0E4A1A6070470B2B03D90A4B0E4A19
:102720001A607047072B03D9074B0A4A1A60704793
:10273000062B03D9044B084A1A607047024B034A20
:102740001A6070475E07002050070020E8920008DA
:10275000F0920008F89200080093000808B5FFF70F
:102760008BFFFFF7B3FFFFF7FBFEFFF727FF08BD67
:1027700008B5FFF745FFFEF77BFBFFF7EFFF08BD4E
:10278000084B1A78084B1B789A4201D000207047FA
:10279000044B5A78054B1B789A4201D000207047B1
:1027A00001207047640700205E0700205F070020BB
:1027B000084B1A78084B1B789A4201D000207047CA
:1027C000044B5A78054B1B789A4201D00020704781
:1027D000012070475C0700205E0700205F07002093
:1027E000084B1A78084B1B789A4201D0002070479A
:1027F000044B5A78054B1B789A4201D00020704751
:102800000120704758070020600700205A07002069
:10281000084B1A78084B1B789A4201D00020704769
:10282000044B5A78054B1B789A4201D00020704720
:102830000120704754070020600700205A0700203D
:1028400070477047704708B500F024FA012800D09F
:1028500008BD00F0DFFBFBE708B500F0ADFB08BDED
:1028600008B500F017FA012800D008BD00F0E6FB1B
:10287000FBE708B500F0AEFB08BD000008B50A4B49
:102880001B784BB90948FFF751FD0948FFF74EFD8A
:10289000054B01221A7008BD0448FFF759FD044892
:1028A000FFF756FDF4E700BFCE080020F007002038
:1028B0001C08002008B500F05AFB08BD08B5074BFE
:1028C0001B7813F0010F06D100F09CFB034A13782C
:1028D0000133137008BD00F099FBF7E7CD08002025
:1028E00008B507282DD8DFE800F004090E13181DDD
:1028F000222701211448FFF756F908BD022112488A
:10290000FFF751F9F9E704210F48FFF74CF9F4E715
:1029100008210D48FFF747F9EFE710210A48FFF7B4
:1029200042F9EAE720210848FFF73DF9E5E74021B1
:102930000548FFF738F9E0E780210348FFF733F94E
:10294000DBE70020D9E700BF0008014008B500F030
:10295000A1F998B1012810D11048FFF7F9FC1048EF
:10296000FFF7F6FC0F48FFF7F3FC0F48FFF7F0FC0A
:102970000E48FFF7DBFC00F03BFB08BD0B48FFF700
:10298000E7FC0948FFF7E4FC0648FFF7E1FC0348D1
:10299000FFF7CCFC0248FFF7C9FCEEE7480800202F
:1029A000C40700201C080020F00700209807002022
:1029B00008B500F06FF9013000F0010048BF404257
:1029C000C0B200F057F9FFF7C1FF08BD2DE9F04F85
:1029D00083B001210420FFF763F90F23ADF8043021
:1029E00003248DF8064048238DF807305D4D01A97A
:1029F0002846FFF77FF8F023ADF804308DF8064045
:102A000028238DF8073001A92846FFF773F8564DA3
:102A1000DFF8588100231A4629464046FFF766FC36
:102A2000DFF84CB10123002229465846FFF75EFC2F
:102A30000223002229464F48FFF758FCDFF838915F
:102A40002346002229464846FFF750FC4B4E0423FC
:102A5000012229463046FFF749FC494F0523012250
:102A600029463846FFF742FC0623012229464548FD
:102A7000FFF73CFCDFF810A107230122294650464E
:102A8000FFF734FC414D2A4621464046FFF749FCFA
:102A90002A4602214046FFF744FC3D4D2A46214686
:102AA0005846FFF73EFC2A4602215846FFF739FCFC
:102AB000384D2A4621462F48FFF733FC2A4602218B
:102AC0002C48FFF72EFC344D2A4621464846FFF796
:102AD00028FC2A4602214846FFF723FC2F4A0521FD
:102AE0004846FFF71EFC2E4D2A4621463046FFF78A
:102AF00018FC2A4602213046FFF713FC294A05211B
:102B00003046FFF70EFC284A21463846FFF709FCFD
:102B1000264A05213846FFF704FC254D2A46214662
:102B20001848FFF7FEFB2A4602211648FFF7F9FB7B
:102B3000204D2A4621465046FFF7F3FB2A46022144
:102B40005046FFF7EEFB4046FFF7F0FB3046FFF73D
:102B5000EDFB3846FFF7EAFBFFF7F8FE03B0BDE8F0
:102B6000F08F00BF00080140E12800086C0700203A
:102B70009807002048080020C4070020A008002073
:102B800074080020F00700201C080020B12900086C
:102B9000BD280008B5280008412800087D28000845
:102BA00073280008612800085928000847280008F1
:102BB000432800084528000808B501210B48FFF705
:102BC000F6F8012800D008BD094A13780133DBB2BA
:102BD0001370052B04D001210448FFF7F4F8F2E745
:102BE000134600221A70FFF7C1FBF4E7000400400F
:102BF000CC08002008B5142000F034FAFFF74CFC94
:102C0000FFF778FCFFF7E2FEFFF7B2FD00F038F8BF
:102C100008BD000008B5114B1B680021986800F042
:102C2000C9FEFFF71FFAFF210020FFF7CDF90721AA
:102C30000120FFF7C9F907210220FFF7C5F9072195
:102C40000320FFF7C1F9BF210420FFF7BDF9BF2121
:102C50000520FFF7B9F9FFF7A5F908BD38000020F6
:102C600008B5FFF7D7FFFFF7C5FFFFF777FD00F0C7
:102C700017F8FAE7014B1870704700BFCF08002023
:102C800008B5FEF743FCFEF769F90020FFF7F2FFF5
:102C900008BD0000014B1878704700BFCF08002026
:102CA00030B589B00020FEF713FA414B1B782BB1E9
:102CB000012B73D00020FFF7DDFF6BE0FEF7E1F999
:102CC000FEF7EAF9FDF712FFC2B23A4903A800F095
:102CD0003FFF02210020FEF733FA374C0122214644
:102CE00003A8FEF781FA012221463448FEF77CFA58
:102CF000334D2A78334BA3FB02139B0803EB4303AA
:102D0000A2EB4303DBB2012221462F4850F82300F7
:102D1000FEF76AFA2D4B1B782D4A12782D4903A82D
:102D200000F016FF10210320FEF70AFA01222A49BB
:102D300003A8FEF759FA2A78284903A800F008FFEB
:102D4000274D0122294603A8FEF74EFA2B21002029
:102D5000FEF7F6F9012221462248FEF745FA352111
:102D60000020FEF7EDF9012221461F48FEF73CFA4C
:102D70002D214020FEF7E4F9012229461B4B18685B
:102D8000FEF732FA012300930F237F221946002019
:102D9000FEF73BFAFEF796FB09B030BD1421102078
:102DA000FEF7CEF901220C491148FEF71DFAF1E7B2
:102DB000CF08002008930008180000200C9300089A
:102DC00062070020ABAAAAAA649300085F0700204C
:102DD0005E070020149300081000002018930008DC
:102DE00008000020209300082893000850070020C6
:102DF000349300087047FEE7FEE7FEE7FEE7704702
:102E00007047704770470000074B1B78074A1278DD
:102E10001A44074B1B78134493FBF0F200FB12306B
:102E20000130C0B2704700BF620700205F0700207A
:102E30005E07002008B5034B1B78012B01D0FDF77E
:102E4000E8FE08BDD008002008B55420FFF7DCFFDD
:102E500001461520FFF7EEFF08BD10B55420FFF71F
:102E6000D3FF0446FFF78CFC40B10220FFF7CCFFF4
:102E7000044621202146FFF7DDFF10BDFFF798FC37
:102E800028B10F20FFF7C0FF04460F20F2E71520FE
:102E9000F0E708B55420FFF7B7FF01461520FFF70C
:102EA000C9FF08BD08B55420FFF7AEFF124B1B78D1
:102EB0003BB90720FFF7A8FF01461F20FFF7BAFF25
:102EC00008BD0146012B13D0032B13D0022B03D0D6
:102ED000042B07D01520F1E70520FFF795FF0146E9
:102EE0002020EBE70220FFF78FFF01462120E5E7D6
:102EF0001520E3E71520E1E76607002008B5542018
:102F0000FFF782FF074B1B78032B04D001461520E7
:102F1000FFF790FF08BD0220FFF776FF014629204A
:102F2000F6E700BF6107002038B504465420FFF7DC
:102F30006BFF054634B1012C0ED015202946FFF752
:102F400079FF38BDFFF764FC0028F4D00220FFF7BA
:102F50005BFF05465120F1E7FFF742FC28B1022054
:102F6000FFF752FF05465220E8E71520E6E708B5CF
:102F70000520FFF749FF05281AD8DFE800F003060F
:102F8000090C0F12FFF760FF08BDFFF766FFFBE7B4
:102F9000FFF77FFFF8E7FFF785FFF5E7FFF7AEFFE5
:102FA000F2E70020FFF7C0FF0120FFF7BDFFEBE7CE
:102FB000FFF76FFFE8E7000008B5054B18781E28FB
:102FC00004D00130C0B21870FDF70EFE08BD00BF7E
:102FD000D108002008B5054B187800B908BD0138A4
:102FE000C0B21870FDF700FEF8E700BFD10800205E
:102FF00008B5034B19785020FDF70BFE08BD00BF44
:103000003400002008B5FDF7F6FD08BD08B5FDF752
:10301000F9FD08BD08B5084A137801335BB2137097
:10302000542B02DD134601221A70034B19785020ED
:10303000FDF7EFFD08BD00BF3400002008B5084AC9
:103040001378013B5BB21370002B05DD044B19783C
:103050005020FDF7DEFD08BD134654221A70F5E737
:103060003400002008B5044B1870FDF7ABFD034B8E
:1030700000221A7008BD00BFD1080020D00800202F
:1030800070B500260C4D0D4C641BA410A64209D14E
:1030900003F0D6FC00260A4D0A4C641BA410A6427D
:1030A00005D170BD55F8043B98470136EEE755F859
:1030B000043B98470136F2E7B8970008B897000834
:1030C000B8970008BC970008034610B5C9B202447F
:1030D0009342184601D1002003E0047801338C426A
:1030E000F6D110BD03460244934200D1704703F865
:1030F000011BF9E7002B2DE9F0471F46BBBF03F189
:1031000000431F4600232D2388B01446129A109DB9
:103110001370149BDDF84CA023F02008B8F1460F83
:1031200005D0B8F1450F00D10135022300E003239B
:1031300007AA049206AACDE902A2CDE900352246EB
:103140003B4600F045FEB8F1470F064602D1119B01
:10315000DB0722D5B8F1460F06EB050910D133780D
:10316000302B0AD10022002320463946FDF714FCFB
:1031700018B9C5F10105CAF80050DAF800309944D1
:103180000022002320463946FDF706FC08B1CDF8A1
:103190001C903022079B4B4507D33046079B159A5E
:1031A0009B1B136008B0BDE8F087591C07911A708B
:1031B000F0E70346F7B5002903F8022BB6BF2D222E
:1031C0002B224942092942702BDD0DF10704A44648
:1031D0000A2791FBF7F60A46A64607FB1615632A4F
:1031E00005F13005314604F1FF340EF8015CF0DCE6
:1031F0003031AEF1020504F8011C2946441C61453A
:103200000AD30DF10902A2EB0E02654588BF002228
:103210001344181A03B0F0BD11F8012B04F8012F64
:10322000EDE7302330318370C170031DF1E70000FA
:103230002DE9F04F91B00C46DDF8688016461F4628
:10324000054601F067FD036818460993FDF76EFC1B
:1032500000230E93D8F800300A90073323F00703B9
:1032600003F1080294F81890D4F800B0C8F80020D0
:10327000D3E90023C4E91223D4E9128A2AF00043D7
:103280000B934FF0FF3240469C4B0B99FDF756FCD9
:1032900070BB4FF0FF324046984B0B99FDF790FB07
:1032A00030BB0022002340465146FDF77FFB10B1A2
:1032B0002D2384F84330924B9248B9F1470F94BFC5
:1032C0009846804603234FF0000A23612BF0040345
:1032D000236033462146284600970FAA00F0D4F910
:1032E000013040F090804FF0FF3011B0BDE8F08F1A
:1032F0004246534640465146FDF720FC48B1BAF1DC
:10330000000FB8BF2D238048B8BF84F843307F4BEF
:10331000D3E7636809F0DF015A1C42D106236360DA
:10332000002206920EAACDE904920DAA4BF4806306
:1033300003920DF13302CDE9013223606368424606
:103340000093284653460B91FFF7D4FE0B99804615
:1033500047290D9908D1C81C02DB6368994240DDFA
:10336000A9F102095FFA89F9B9F1650F1FD84A4638
:10337000013904F150000D91FFF71BFF0E9A8246B0
:103380001318012A236102DC2268D20701D5013318
:1033900023619DF83330002B9BD02D2384F84330DC
:1033A00097E74729BCD1002BBAD10123B7E7B9F180
:1033B000660F18D1002963680BDD216113B92268FB
:1033C000D00702D501330B4423614FF0000AA165F9
:1033D000DFE713B92268D20701D50233F4E70123EE
:1033E000F2E74FF067090E9B994205DB23682161E4
:1033F000D807EAD54B1CE7E70029CCBF0122C1F171
:1034000002021344E0E723685A0507D423694246C1
:1034100031462846B84701302BD164E7B9F1650F32
:1034200040F2DD80D4E9120100220023FDF7B4FA56
:10343000002833D0012331462846354AB8470130A9
:103440003FF451AFDDE90D239A4202DB2368D80730
:103450000FD5DDE9092331462846B84701303FF44E
:1034600042AF4FF0000804F11A090E9B013B43459F
:1034700009DC23689B0700F10281E0680F9B9842FA
:10348000B8BF184631E701234A4631462846B847B7
:1034900001303FF428AF08F10108E6E70D9B002B4F
:1034A00038DC012331462846194AB84701303FF439
:1034B0001AAFDDE90D23134302D12368D907D8D50C
:1034C000DDE9092331462846B84701303FF40BAF08
:1034D0004FF0000904F11A0A0D9B5B424B4501DCD9
:1034E0000E9B94E70123524631462846B8470130E7
:1034F0003FF4F9AE09F10109EEE700BFFFFFEF7FEE
:1035000080930008849300088C9300088893000837
:10351000599600080E9AA36D9A42A8BF1A46002A2F
:10352000914637DC4FF0000B29EAE97904F11A02E1
:10353000D4F858A0AAEB09035B4533DCDDE90D2381
:103540009A423BDB2368DA0738D40E9B0D99A3EB34
:103550000A02A3EB01099145A8BF9146B9F1000FFA
:1035600034DC4FF0000829EAE97904F11A0ADDE9B0
:103570000D239B1AA3EB090343457FF77AAF012381
:10358000524631462846B84701303FF4ACAE08F108
:103590000108ECE71346314642462846B847013059
:1035A000C0D1A0E60123314628460B92B84701302E
:1035B0003FF499AE0B9A0BF1010BB9E73146DDE907
:1035C00009232846B8470130BFD18CE64B46314627
:1035D000284608EB0A02B8470130C2D183E60E9AAA
:1035E000012A01DCDB0737D5012342463146284654
:1035F000B84701303FF477AEDDE90923314628466C
:10360000B84701303FF46FAED4E912010022002325
:10361000FDF7C2F9D8B90E9B08F10102013B314612
:103620002846B84701300ED15DE601234A463146AF
:103630002846B84701303FF456AE08F101080E9B0A
:10364000013B4345F1DC534604F15002E0E64FF004
:10365000000804F11A09F2E701234246DFE70123DB
:103660004A4631462846B84701303FF43CAE08F19F
:103670000108E3680F995B1A4345F0DCFDE64FF063
:10368000000804F11909F4E72DE9F04716469946B8
:103690008A680B6907469342B8BF1346336091F8B6
:1036A00043200C46DDF820800AB1013333602368E3
:1036B000990642BF336802333360256815F006056A
:1036C00006D104F1190AE36832689B1AAB4228DC80
:1036D00094F84320131E226818BF012392062DD4AC
:1036E0004946384604F14302C047013020D02368E0
:1036F000E56803F00603042B18BF002532684FF07D
:103700000006A36808BFAD1A226908BF25EAE5755F
:103710009342C4BF9B1AED181A34B5421AD1002047
:1037200008E00123524649463846C047013003D1DC
:103730004FF0FF30BDE8F0870135C4E73020E118D5
:1037400081F843005A1C94F845102244023382F851
:103750004310C5E70123224649463846C047013099
:10376000E6D00136D9E700002DE9FF470F7E9146EC
:10377000782F80460C469A460C9D01F1430207D8EB
:10378000622F0AD8002F00F0D980582F00F0A480B3
:1037900004F1420584F842703AE0A7F16303152B67
:1037A000F6D801A151F823F00138000815380008B7
:1037B00091370008913700089137000891370008C9
:1037C0001538000891370008913700089137000834
:1037D00091370008233900084538000805390008EA
:1037E00091370008913700084539000891370008E3
:1037F0004538000891370008913700080D39000856
:103800002B681A1D1B682A6004F1420584F84230B7
:103810000123A4E020682968060601F104030AD503
:103820000E682B60002E03DA2D23764284F8433095
:103830000A235E4819E00E6810F0400F2B6018BF95
:1038400036B2EFE72B682068191D2960010601D503
:103850001E6802E04606FBD51E886F2F0CBF0823AA
:103860000A235248002184F843106568002DA8BF40
:103870002168A560A4BF21F0040121600EB9002DCC
:103880004DD01546B6FBF3F103FB1167C75D05F894
:10389000017D3746BB420E46F4D9082B0BD1236875
:1038A000DE0708D5236961689942DEBF302305F839
:1038B000013C05F1FF35521B22614B462146404633
:1038C000CDF800A003AAFFF7DFFE01304CD14FF086
:1038D000FF3004B0BDE8F087344881F845702968AE
:1038E000236851F8046B29601D0614D5DF0744BF17
:1038F00043F0200323601EB9236823F020032360D4
:103900001023AFE7236843F020032360782328487F
:1039100084F84530E3E7590648BFB6B2E6E71546F6
:10392000BBE72B682668181D6169286035061B688F
:1039300001D5196002E07006FBD5198000231546F9
:103940002361BAE72B6800211A1D2A601D6862688E
:103950002846FFF7B9FB08B1401B6060636823612C
:10396000002384F84330A8E72A46494640462369A5
:10397000D0470130ABD023689B0713D4E068039B8A
:103980009842B8BF1846A4E701233246494640464C
:10399000D04701309BD00135E36803995B1AAB42F5
:1039A000F2DCEBE7002504F11906F5E79093000837
:1039B000A193000800294FF480630CBF022200226B
:1039C00000F000B82DE9F7431D465D4B04461F6823
:1039D0000E46904627B1BB6913B9384601F0FCF892
:1039E000584B9C4267D17C68B8F1020F06D0B8F101
:1039F000010F00F29F80002DC0F29C80636EDB07F8
:103A000005D4A389980502D4A06D01F088F9214658
:103A1000384601F04DF8616B41B104F1440399421D
:103A200002D0384601F0A2FD002363630023A361A6
:103A30006360A389190603D53846216901F096FD14
:103A4000A389B8F1020F23F44A6323F00303A3818F
:103A50006CD001AB6A462146384601F075F9A3895E
:103A60001843A081002D30D1009D284601F0D2F9E5
:103A70000646002855D1DDF80090A9454AD14FF0FF
:103A8000FF350022A26004F1470222602261012278
:103A9000B4F90C306261626E43F00203D207A38175
:103AA00005D413F4007F02D1A06D01F039F9284646
:103AB00003B0BDE8F083244B9C4201D1BC6893E77E
:103AC000224B9C4208BFFC688EE7002ECDD0BB691C
:103AD00013B9384601F080F8B8F1010F08BFA38987
:103AE000C4E9046504BF43F00103A381A2892660F1
:103AF00012F008031CD0D30741BF00236D42A3601E
:103B0000A56158BFA560656E15F0010515D112F4C9
:103B1000007FC8E7484601F07DF906460028AED090
:103B20004D46A38943F08003A381D0E70025A8E791
:103B3000A360E8E74FF0FF35B9E70025B7E700BF1E
:103B40003800002088940008A894000868940008B1
:103B50000EB46FF0004100B59CB01DAB0290069012
:103B6000079104910848094953F8042B059100680E
:103B700002A9019301F032FE0022029B1A701CB0D0
:103B80005DF804EB03B07047380000200802FFFF27
:103B90000EB44FF4017230B59CB01FAC54F8045B06
:103BA000ADF8142002900690FCF7C0FF0B4B039079
:103BB0000B9300230F9314934FF6FF73079008485D
:103BC000ADF816302A46234602A90068019401F098
:103BD0005FFF1CB0BDE8304003B07047073C0008F1
:103BE0003800002010B50C46B1F90E1002F01CFA96
:103BF0000028ABBF636DA3891B1823F48053ACBFAF
:103C00006365A38110BD002070472DE9F0411F4678
:103C10008B890546DB050C46164605D50223002296
:103C2000B1F90E1001F07EF8A389324623F48053D7
:103C3000A38128463B46B4F90E10BDE8F04100F0E0
:103C400017B810B50C46B1F90E1001F06BF8431C13
:103C5000A38915BF606523F4805343F48053A38187
:103C600018BFA38110BDB1F90E1000F013B8000009
:103C700038B50446084611460022054D2A601A460A
:103C800002F0D4FE431C02D12B6803B1236038BD7F
:103C9000E008002038B50023054D044608462B6097
:103CA00002F07EFE431C02D12B6803B1236038BDB5
:103CB000E00800202DE9F74F03690C690746A3428D
:103CC000C0F28280013C00F1140501F1140805EBFB
:103CD0008403019358F8243055F8242001339A4284
:103CE000B2FBF3F64FEA840B08EB840931D34FF0B3
:103CF000000E4046AC46F24650F8042B93B206FB49
:103D000003E3120C4FEA134E9BB206FB02E2AAEB4E
:103D10000303DCF800A04FEA124E1FFA8AFA53445C
:103D2000DCF800A092B2C2EB1A4202EB23429BB233
:103D300043EA024381454FEA224A4CF8043BDBD276
:103D400055F80B302BB9019B043B9D421A462FD3EB
:103D50003C61384601F0F2FA002825DB28464FF096
:103D6000000C013658F8041BD0F800E08BB2ACEB25
:103D700003031FFA8EF213440A0CC2EB1E4202EB3D
:103D800023429BB243EA0243C1454FEA224C40F82A
:103D9000043BE7D255F8242005EB840322B9043B09
:103DA0009D421A460AD33C61304603B0BDE8F08F0D
:103DB0001268043B002ACBD1013CC6E71268043BE1
:103DC000002AF0D1013CEBE70020EEE70000000004
:103DD0002DE9F04F16461F46446A99B00546CDE9D5
:103DE0000467DDF8948074B9102001F013F80246DE
:103DF000686220B9EA21A84BA84802F099FAC0E904
:103E000001440460C4606B6A196851B15A680123A7
:103E100093404A608B60284601F052F800226B6A9A
:103E20001A603B1EAFBF0023012223F0004305931D
:103E3000A8BFC8F80030DDF81490994BB8BFC8F897
:103E4000002033EA090319D142F20F73249A136058
:103E5000C9F31303334300F07F85269B53B9914B7D
:103E600022E0914B03930833269A1360039819B00C
:103E7000BDE8F08F8B4B03930333F5E7DDE90434A2
:103E8000CDE90C34DDE90C0100220023FCF784FDB0
:103E9000804658B10123249A1360269B002B00F022
:103EA000588582481860431E0393DFE716AB0193E1
:103EB00017AB00932846DDE90C2301F0E7FAC9F3BC
:103EC0000A548346002C7FD0DDE90C010D9BA4F23F
:103ED000FF34C3F3130343F07F5141F44011CDF895
:103EE0004C800022724BFCF737F965A3D3E900231D
:103EF000FCF7EAFA64A3D3E90023FCF72FF906469E
:103F000020460F46FCF776FA61A3D3E90023FCF7BD
:103F1000DBFA02460B4630463946FCF71FF90646E7
:103F20000F46FCF76BFD00228246002330463946DF
:103F3000FCF73CFD48B15046FCF75CFA32463B4684
:103F4000FCF72AFD08B90AF1FF3ABAF1160F58D862
:103F5000DDE90C01574B03EBCA03D3E90023FCF75F
:103F600025FD00284FD000230AF1FF3A0F93169B3E
:103F70001C1B631E099349BFC4F101030023069370
:103F8000002354BF06930993BAF1000F3DDB099B50
:103F9000CDF838A05344099300230A93229B092BA0
:103FA00000F28C80052BC4BF043B2293229BC8BF28
:103FB0000024A3F10203D8BF0124032B00F28A805E
:103FC000DFE803F02D4F4D5BDDE916431C4404F29E
:103FD0003243202BC3BFC3F1400304F2124009FA5D
:103FE00003F3C3F12003C6BF26FA00F0184306FA14
:103FF00003F0FCF7EFF90123A1F1F871013C1393F1
:104000006FE70123B2E70F90B1E7069BA3EB0A032A
:104010000693CAF100030A9300230E93BEE7002320
:104020000B93239B002B58DC4FF001094B46CDF836
:104030002090CDF88C900022686A4260042202F140
:1040400014069E4241684ED9284600F0F9FE0390BE
:1040500000284CD102464FF4D571174BCCE6012312
:10406000DEE700230B93239B0AEB030909F101030D
:10407000012B0893B8BF0123DDE70123F2E700BF5E
:1040800061436F63A787D23FB3C8608B288AC63F5E
:10409000FB799F501344D33FBF930008D693000889
:1040A0000000F07FBB930008B29300085A96000806
:1040B0000000F83F70950008549400080124002384
:1040C0000B9422934FF0FF3900221223CDF8209059
:1040D0002392B0E701230B93F4E7DDF88C904B4675
:1040E000CDF82090A7E7013141605200A7E76B6A45
:1040F000039A1A60089B0E2B00F2A880002C00F097
:10410000A580BAF1000F34DD9A4A0AF00F0302EBE2
:10411000C3031AF4807FD3E90034CDE910344FEAA9
:104120002A1416D0DDE90C01934B0327D3E90823A9
:10413000FCF7F4FACDE9040104F00F048E4E54B9F3
:10414000DDE91023DDE90401FCF7E8FACDE904011B
:1041500029E00227F2E7E10708D5DDE91001D6E9F9
:104160000023FCF7B1F9CDE91001013764100836DE
:10417000E5E700F0A580DDE90C01CAF100047D4B04
:1041800004F00F0203EBC203D3E90023FCF79CF910
:1041900002270023CDE90401774E2411002C40F0C2
:1041A0008480002BD2D10F9B002B00F08B80DDE9A7
:1041B0000434CDE91034DDE9100100226F4BFCF727
:1041C000F5FB00287ED0089B002B7BD0B9F1000FB7
:1041D00038DDDDE910010022694BFCF775F94C462A
:1041E000CDE904010AF1FF3801373846FCF702F93E
:1041F000DDE90423FCF768F90022624BFBF7AEFF10
:10420000A1F15076CDE910011196002C5DD1DDE9C8
:10421000040100225C4BFBF79FFF02460B46CDE9F1
:1042200004233346109AFCF7DFFB002840F09C8201
:10423000DDE90401109A06F10043FCF7B7FB002802
:1042400040F09082DDE90C34CDE90434179B002B5B
:10425000C0F25281BAF10E0F00F34E81454B03EBD1
:10426000CA03D3E90034CDE90634239B002B80F246
:10427000DB80089B002B00F3D78040F07282DDE9E1
:1042800006010022404BFCF71FF9DDE90423FCF78F
:10429000A1FB089C2646002840F048823123039F5A
:1042A0000AF1010A07F8013B44E2E20705D5D6E925
:1042B0000023FCF709F901230137641008366DE784
:1042C000022770E7D046089C8FE70399294B2144C9
:1042D00012910B9903EBC403DDE9106753E9022344
:1042E000002955D000202949FCF718FA3B463246F0
:1042F000FBF732FFCDE91001039FDDE90401FCF774
:104300007DFB0446FCF776F802460B46DDE9040126
:10431000FBF722FF02460B463034CDE90423DDE9EA
:10432000102307F8014BFCF741FB002874D1DDE9AD
:10433000042300201149FBF70FFFDDE91023FCF7F0
:1043400035FB002840F0B780129B9F423FF47AAFC4
:10435000DDE9100100220A4BFCF7B6F80022CDE996
:104360001001DDE90401064BFCF7AEF8CDE90401CC
:10437000C3E700BF70950008489500080000F03FB3
:104380000000244000001C40000014400000E03FFA
:1043900030463946FCF798F8129BCDE91001039C92
:1043A0001493DDE90401FCF729FB1590FCF722F8D2
:1043B00002460B46DDE90401FBF7CEFE159B0646DF
:1043C000303304F8013B129B0F469C424FF0000231
:1043D00024D1DDE91001B04BFBF7C0FE02460B46CD
:1043E00030463946FCF700FB002863D1DDE9102395
:1043F0000020A949FBF7B0FE02460B46304639467D
:10440000FCF7D4FA00283FF41DAF149F7B1E1493D1
:1044100017F8013C302BF8D0C2463BE09F4BFCF72D
:1044200053F8CDE90401BCE7039FDDE90489DDE928
:10443000062340464946FCF771F9FCF7DFFA0446CB
:10444000FBF7D8FFDDE90623FCF73EF802460B46F2
:1044500040464946FBF780FE04F1300607F8016B41
:10446000039EDDF820C0BE1BB44502460B4636D184
:10447000FBF774FEDDE9062380468946FCF7B4FAB3
:1044800058BBDDE9062340464946FCF785FA08B1EA
:10449000E10722D42846594600F012FD00233B7064
:1044A000249B0AF101001860269B002B3FF4DEAC30
:1044B0001F60DBE427463B461F4613F8012D392ACF
:1044C00007D1039A9A42F7D13022039908F10108E3
:1044D0000A701A7801321A709EE7D046EBE7002284
:1044E0006E4BFBF7F1FF0022002380468946FCF764
:1044F00053FA00289BD0CDE70B9A002A00F0D08019
:10450000229A012A00F3AE80139A002A00F0A680B6
:1045100003F233430A9C069F069A01211A4406922D
:10452000099A28461A44099200F080FD0646002F99
:104530000CDD099B002B09DDBB42A8BF3B46069A58
:10454000FF1AD21A0692099AD31A09930A9BF3B159
:104550000B9B002B00F0A880002C10DD314622467A
:10456000284600F021FE5A4601460646284600F03D
:1045700073FD80465946284600F0A2FCC3460A9BBC
:104580001A1B04D05946284600F00EFE834601212E
:10459000284600F04BFD0E9B0446002B40F386801E
:1045A0001A460146284600F0FFFD229B0446012BD7
:1045B0007FDD4FF00008236904EB8303186900F0E6
:1045C000E7FCC0F12000099B184410F01F0000F028
:1045D0009280C0F12003042B40F38A80C0F11C00BC
:1045E000069B074403440693099B03440993069BD7
:1045F000002B05DD59461A46284600F02FFE83465B
:10460000099B002B05DD21461A46284600F026FEB0
:1046100004460F9B002B70D02146584600F08EFEBA
:1046200000286ADA002359460A22284600F06AFC6C
:104630000B9B83460AF1FF3A002B00F09481314630
:1046400000230A22284600F05DFCB9F1000F06465F
:1046500000F39380229B022B57DC8EE0169BC3F164
:10466000360357E7089B5C1E0A9BA342B7BF0A9B11
:104670001C1BE21A0E9BBEBF0A949B180E93089B4C
:10468000B8BF0024002BBBBF069B089A069F9F1A49
:10469000ACBF089B00233FE70000E03F0000244040
:1046A0000A9C069F0B9E42E70A9A6BE7229B012B0E
:1046B00019DC049BBBB9059BC3F313039BB9059B92
:1046C00023F000431B0D1B0583B14FF00108069B2F
:1046D00001330693099B013309930E9B002B7FF452
:1046E0006AAF01206FE74FF00008F6E79846F4E75D
:1046F0003FF47DAF18461C3072E7089B002B36DC78
:10470000229B022B33DDDDF82090B9F1000F0DD193
:1047100021464B460522284600F0F4FB014604469C
:10472000584600F00BFE00283FF7B8AD239B039FCF
:104730006FEA030A4FF000082146284600F0C0FB4C
:10474000002E3FF4A7AEB8F1000F05D0B04503D05E
:104750004146284600F0B4FB3146284600F0B0FB45
:1047600098E600242646E1E7C246264696E50B9BDE
:10477000DDF82090002B00F0FD80002F05DD314694
:104780003A46284600F06AFD0646B8F1000F5CD0B4
:104790002846716800F054FB074628B9024640F2EB
:1047A000EA217F4BFFF728BB326906F10C01023288
:1047B00092000C3000F036FB01223946284600F00A
:1047C0004DFDB0460646039B01330893039B4B44C3
:1047D0000A93049B03F001030993089B2146013BC4
:1047E00058460493FFF766FA034641463033069075
:1047F00058460B9300F0A2FD3246814621462846DA
:1048000000F0B8FDC26807460B9B02BB0146584644
:1048100000F094FD02460B9B39462846CDE90B3249
:1048200000F04EFB229B0C9A089F43EA0201099B71
:104830000B430B9B0DD1392B29D0B9F1000F01DDB2
:10484000069B3133049A137076E73046B9E70122AC
:10485000E2E7B9F1000F06DB229941EA090909995B
:1048600059EA010120D1002AECDD594601222846EF
:10487000089300F0F3FC2146834600F05FFD00281A
:10488000089B02DCDED1DA07DCD5392BD8D13923FD
:10489000049A13703B461F4617F8012C013B392A36
:1048A00050D001321A7047E7002A03DD392BEED0D1
:1048B0000133C7E7089A0A9902F8013C8A422AD0D4
:1048C000594600230A22284600F01CFBB0458346C7
:1048D0004FF000034FF00A024146284607D100F08E
:1048E00011FB80460646089B0133089375E700F0EC
:1048F00009FB3146804600230A22284600F002FBCD
:104900000646F0E7B9F1000FCCBF4F4601274FF044
:104910000008039A1744594601222846089300F0DC
:104920009DFC2146834600F009FD0028B2DC02D13F
:10493000089BDB07AED43B461F4613F8012D302AF7
:10494000FAD0F9E6039A9A42A5D131230AF1010A75
:1049500079E7144BFFF7A8BA269B002B7FF481AAB6
:10496000114BFFF7A1BAB9F1000F03DC229B022B18
:104970003FF7CBAE039F21465846FFF79BF9039ABA
:1049800000F1300307F8013BBA1A9145BADD5946E8
:1049900000230A22284600F0B5FA8346EBE700BF61
:1049A0005494000859960008B29300088A89F8B513
:1049B000054610070C4657D44B68002B04DC0B6CE3
:1049C000002B01DC0020F8BDE66A002EFAD000239F
:1049D00012F480522F682B6032D0606DA3895A0781
:1049E00005D56368C01A636B0BB1236CC01A002332
:1049F0000246E66A2846216AB047431CA38906D1CD
:104A000029681D292CD8294ACA40D60728D5002252
:104A100062602269D904226004D5421C01D12B684E
:104A200003B96065616B2F600029CBD004F14403AA
:104A3000994202D0284600F099FD00206063C2E749
:104A4000216A01232846B047411CC7D12B68002B9F
:104A5000C4D01D2B01D0162B01D12F60B2E7A38942
:104A600043F04003A381AEE70F69002FAAD093075C
:104A700018BF00230E6808BF4B69F61B0F608B60E0
:104A8000002E9FDD33463A462846216AD4F828C0D6
:104A9000E047002806DCA3894FF0FF3043F04003D5
:104AA000A38190E70744361AEAE700BF01004020DF
:104AB00038B50B6905460C4613B90025284638BDA4
:104AC00018B183690BB900F087F8144B9C421BD1D5
:104AD0006C68B4F90C30002BEFD0626ED00704D4B0
:104AE000990502D4A06D00F01AF928462146FFF777
:104AF0005DFF636E0546DA07E0D4A3899B05DDD42C
:104B0000A06D00F00DF9D9E7054B9C4201D1AC68CE
:104B1000DFE7044B9C4208BFEC68DAE788940008A2
:104B2000A894000868940008002310B50446C0E962
:104B30000033C0E90433836081814366C2818361AD
:104B4000194608225C30FEF7CDFA054B24626362F9
:104B5000044BA362044BE362044B236310BD00BF0C
:104B6000E53B00080B3C0008433C0008673C00089C
:104B7000014900F0AFB800BFB14A0008682270B523
:104B80004D1E55430E4605F1740100F057FD0446D5
:104B900040B10021C0E900160C30A06005F16802A8
:104BA000FEF7A0FA204670BD014800F0B8B800BF7B
:104BB000D3080020014800F0B3B800BFD30800209C
:104BC000014800F0ACB800BFD4080020014800F054
:104BD000A7B800BFD408002010B50446FFF7F0FFC7
:104BE000A3691BB1BDE81040FFF7F0BFC4E9123361
:104BF0002365134B134A1B68A262A34208BF01231B
:104C0000204608BFA36100F01FF86060204600F056
:104C10001BF8A060204600F017F800220421E06095
:104C20006068FFF781FF01220921A068FFF77CFF80
:104C300002221221E068FFF777FF0123A361D1E789
:104C40007C930008714B0008F8B50746FFF7ACFFEE
:104C50001E4B1E68B36913B93046FFF7BDFF4836D7
:104C6000D6E90134013B03D533680BB33668F7E767
:104C7000B4F90C50D5B9164B04F15800E3606566E1
:104C800000F04CF8FFF796FF08222946C4E90155C9
:104C9000C4E904552560A56104F15C00FEF722FA21
:104CA000C4E90D55C4E912552046F8BD6834D9E76A
:104CB00004213846FFF762FF044630600028D5D152
:104CC000FFF778FF0C233B60EEE700BF7C93000802
:104CD0000100FFFF2DE9F84306468846002700F152
:104CE0004804D4E90195B9F1010905D52468002CDF
:104CF000F7D13846BDE8F883AB89012B07D9B5F960
:104D00000E30013303D029463046C047074368358B
:104D1000E9E70000004870478C01002070477047A9
:104D20007047000038B50446084611460022054D7C
:104D30002A601A4601F05CFE431C02D12B6803B1C5
:104D4000236038BDE008002070B50E46B1F90E10A2
:104D5000144600291D4696B008DA0022B6F90C3038
:104D60002A601A0610D44FF480630EE06A4601F000
:104D700015FB0028F1DB019A02F47042A2F5005302
:104D80005A425A412A60EEE740230020236016B0C1
:104D900070BD00008B8973B59D0706460C4607D58C
:104DA00004F14703236023610123636102B070BDF6
:104DB0006A4601ABFFF7C8FF00990546304600F090
:104DC0003DFC48B9B4F90C309A05EFD423F0030345
:104DD00043F00203A381E3E70D4BB362A389206094
:104DE00043F08003A381009B20616361019B5BB161
:104DF0003046B4F90E1001F0E3FA28B1A38923F08C
:104E0000030343F00103A381A0890543A581CDE7F6
:104E1000714B0008024B0146186800F00FBC00BF40
:104E2000380000200A44914200F1FF3300D170475E
:104E300010B511F8014B914203F8014FF9D110BDA3
:104E400070B5466A04460D4676B91020FFF7E2FFBA
:104E50000246606220B96621174B184801F068FAD3
:104E6000C0E901660660C660666AF36883B1636A7A
:104E7000DB6853F82500B8B9012101FA05F6721D67
:104E80002046920000F05EFB60B1C0E901560EE0E2
:104E900021220421204600F055FB636AF060DB68A4
:104EA000002BE4D1002070BD026843F825200023C8
:104EB000C0E90333F7E700BFBF930008C8940008B8
:104EC00070B5466A05460C4676B91020FFF7A2FF7A
:104ED0000246686220B98A21084B094801F028FA85
:104EE000C0E901660660C6603CB16B6A6268DB6857
:104EF00053F82210216043F8224070BDBF93000890
:104F0000C89400082DE9F04107460C461E460020D3
:104F10000D6901F1140CDCF80030013099B202FB8C
:104F200001611E0C0B0C02FB063389B201EB03413D
:104F300085424FEA13464CF8041BECDC0EB3A36821
:104F4000AB4219DC616838460131FFF779FF8046D2
:104F500028B90246B5210C4B0C4801F0E9F9226949
:104F600004F10C01023292000C30FFF75BFF214686
:104F70003846FFF7A5FF444604EB850301355E6123
:104F800025612046BDE8F08154940008C8940008CB
:104F9000020C12040346CAB90304102013F07F4F19
:104FA00004BF1B02083013F0704F04BF1B01043014
:104FB00013F0404F04BF9B000230002B05DB13F0C1
:104FC000804F00F1010008BF202070470020E5E776
:104FD0000368024613F007000BD0D90721D49807C5
:104FE00049BF5B089B08012013605CBF022013606F
:104FF000704799B209B910201B0CD9B209B9083011
:105000001B0A190704BF1B090430990704BF9B083A
:105010000230D90703D45B0800F1010003D013600C
:1050200070470020704720207047000010B50C46E4
:105030000121FFF705FF024628B94FF4A071044B88
:10504000044801F075F901234461036110BD00BFFC
:1050500054940008C89400082DE9F04F91460A695D
:10506000D9F810300C469A42BEBF0B464C469946C2
:105070002769D9F810A0A368616807EB0A06B34254
:1050800085B0B8BF0131FFF7DBFE30B9024640F210
:105090005D11434B434801F04BF900F114052B46D9
:1050A000002205EB8608434521D304F1140303EBEA
:1050B000870709F1140303EB8A0202923A1B153A9F
:1050C00022F00302043204F115018F4238BF04229A
:1050D0000192029A03939A420CD8002E03DD58F8ED
:1050E000043D002B59D0066105B0BDE8F08F43F8B0
:1050F000042BD8E7B3F800A0BAF1000F23D0A946DB
:105100004FF0000C04F1140E5EF8042BD9F80010D7
:105110001FFA82FB89B20AFB0B116144D9F800C067
:10512000120C4FEA1C4C0AFB02C202EB114289B27C
:1051300041EA024177454FEA124C49F8041BE3D893
:10514000019A45F802C0039A0433B2F80290B9F10B
:10515000000F20D0AE464FF0000A296804F1140C6D
:10516000BCF800B0BEF8022089B209FB0B229244C1
:1051700041EA0A414EF8041B5CF8042BBEF800100B
:10518000120C09FB0211674501EB1A414FEA114A63
:10519000E6D8019AA95004359BE7013E9DE700BF80
:1051A00054940008C89400082DE9F843154612F0FD
:1051B000030206460F4607D0254C013A002354F857
:1051C0002220FFF79FFE0746AD103DD0746A7CB9E0
:1051D0001020FFF71FFE0246706228B94FF4D77106
:1051E0001C4B1D4801F0A4F8C0E901440460C460F0
:1051F000D6F82480D8F808404CB940F271213046E6
:10520000FFF714FF00230446C8F8080003604FF0BE
:105210000009EB070AD5394622463046FFF71CFF46
:10522000804639463046FFF74BFE47466D100BD09F
:10523000206838B9224621463046FFF70DFF20602E
:10524000C0F800900446E4E73846BDE8F88300BFA4
:1052500038960008BF930008C89400082DE9F0476D
:105260000C46074691462369496803EB6218A36818
:105270004FEA621A08F10106B3420BDB3846FFF72A
:10528000DFFD054648B9024640F2D911294B2A48AC
:1052900001F04EF801315B00EEE7002300F114014C
:1052A00000F110021846534537DB20692AEAEA7AF2
:1052B00004F1140319F01F0901EB8A0103EB8000CC
:1052C0002FD08A464FF0000CC9F1200E1A6802FA5E
:1052D00009F242EA0C024AF8042B53F8042B9842D4
:1052E00022FA0EFCF2D8031B153B23F00303043310
:1052F00004F11502904238BF042341F803C0BCF109
:10530000000F01D008F10206013E384621462E6109
:10531000FFF7D6FD2846BDE8F08742F8040F0133B9
:10532000C1E7043953F8042B984241F8042FF9D807
:10533000EAE700BF54940008C894000803460A69CD
:10534000006930B5801A0DD11433143103EB820497
:1053500001EB820154F8045D51F8042D954202D00E
:1053600004D3012030BDA342F4D3FBE74FF0FF305C
:10537000F8E700002DE9F84F0D460746114628468C
:105380001446FFF7DBFF061E11D131463846FFF702
:1053900057FD024628B940F232213A4B3A4800F014
:1053A000C7FF0123C0E904361046BDE8F88FA4BF4B
:1053B00023462C4638466168A6BF1D4600260126B6
:1053C000FFF73EFD024618B94FF410712D4BE5E78B
:1053D00002F11408C2464FF0000C2769C6602E691E
:1053E00004F1140005F1140900EB870E09EB8606A1
:1053F000103454F804BF59F8043B1FFA8BF18C4465
:1054000099B21B0CACEB0101C3EB1B4303EB214333
:1054100089B24FEA234C4E4541EA03434AF8043B24
:10542000E7D8731B153B23F0030315350433AE4255
:1054300038BF0423184443441E46054675450ED321
:105440000EF10301091A21F003010338864538BF24
:105450000021194451F8043D8BB11761A4E755F8B8
:10546000048B1FFA88F161440C1404EB184489B2D0
:1054700041EA04414FEA244C46F8041BDEE7013FB1
:10548000E8E700BF54940008C89400082DE9F341F0
:105490000121DDE9087690461D46FFF7D1FC044660
:1054A00030B9024640F20A31244B254800F040FF53
:1054B000C5F31303C5F30A552DBB0193B8F10003DF
:1054C00026D068460093FFF783FD0099F0B1019A5A
:1054D000C0F1200302FA03F30B43C240636101925F
:1054E000019B002B14BF02210121A3612161C5B1E1
:1054F000A5F233450544C0F135003D6030602046DB
:1055000002B0BDE8F08143F48013D6E76161E7E7BC
:1055100001A8FFF75DFD0121019B2161636120303E
:10552000E5E704EB8103A0F2324038601869FFF729
:105530002FFDC0EB41113160E1E700BF549400083A
:10554000C894000870B5A1FB025434B9294600F094
:1055500075F8064628B9304670BD0C220026026058
:10556000F9E72A462146FDF7BDFDF4E738B50546C3
:10557000002940D051F8043C0C1F002BB8BFE418A0
:1055800000F05AFF1C4A136833B963601460284660
:10559000BDE8384000F056BFA34208D92068211862
:1055A0008B4201BF19685B6809182160EDE71A4654
:1055B0005B680BB1A342FAD911685018A0420BD115
:1055C00020680144501883421160E0D118685B687C
:1055D000014411605360DAE702D90C232B60D6E74F
:1055E000206821188B4201BF19685B680918216087
:1055F00063605460CBE738BDD808002070B50E4E0C
:105600000C463168054611B900F020FD3060214696
:10561000284600F01BFD431C0AD0C41C24F00304E0
:10562000A04207D0211A284600F010FD013001D118
:105630004FF0FF34204670BDDC0800202DE9F0411A
:10564000CD1C25F0030508350C2D38BF0C25002D89
:10565000074601DBA94205D90C2300263B603046F2
:10566000BDE8F0812E4E00F0E7FE33681C4634BBE7
:1056700029463846FFF7C2FF431C04464DD1346823
:105680002646002E40D123683146384604EB0308F5
:1056900000F0DCFC80453AD1216803356D1A25F015
:1056A000030508350C2D38BF0C2538462946FFF771
:1056B000A5FF01302BD023682B4423600EE0226825
:1056C000521B1ED40B2A16D96119A342256018BF9C
:1056D0005960636808BF316062514B60384604F11D
:1056E0000B0600F0AFFE26F00706231DF21AB6D017
:1056F0009B1BA350B3E76268A3420CBF32605A60A1
:10570000ECE723466468B2E734467668B9E70C23D1
:1057100038463B6000F096FEA1E72560DEE700BF5B
:10572000D80800202DE9F0478E6882469E420C463C
:1057300090461F4638D88A8912F4906F32D0256877
:1057400009690133A5EB010965694B4405EB450582
:1057500005EBD5756D109D4238BF1D46530531D5FB
:105760002946FFF76BFF064650B90C234FF0FF3078
:10577000CAF80030A38943F04003A381BDE8F08755
:105780004A462169FFF74EFBA38923F4906343F057
:105790008003A38126614E4426603E466561A5EBE9
:1057A0000905A560BE4200D93E4632464146206802
:1057B00000F028FEA36800209B1BA36023683344ED
:1057C0002360DBE72A4600F043FE06460028E1D1CD
:1057D00050462169FFF7CAFEC7E700002DE9F04FE8
:1057E00098468B8907461B060D4614469DB00ED57C
:1057F0000B6963B94021FFF721FF2860286120B9B8
:105800000C233B604FF0FF30D1E040236B6100235D
:10581000099320238DF8293030234FF00109CDF86A
:105820000C80DFF8A4818DF82A3023469A4613F8BD
:10583000012B0AB1252AF9D1BAEB040B0BD05B4638
:10584000224629463846FFF76DFF013000F0AA8056
:10585000099A5A4409929AF80030002B00F0A2806D
:1058600000234FF0FF32CDE905230AF1010A04932A
:1058700007938DF853301A935446052214F8011BF0
:105880005148FDF721FC049AD8B9D00644BF202323
:105890008DF85330110744BF2B238DF853309AF8FD
:1058A00000302A2B15D0544600204FF00A0C079ADE
:1058B000214611F8013B303B092B4ED9B0B107927C
:1058C00014E0A0EB080309FA03F31343A246049380
:1058D000D2E7039B191D1B680391002BBBBF5B42E2
:1058E00042F0020207930793B8BF049223782E2B4D
:1058F0000CD163782A2B35D1039B02341A1D1B6807
:105900000392002BB8BF4FF0FF330593DFF8BCA024
:10591000032250462178FDF7D7FB40B14023A0EB8E
:105920000A0003FA00F0049B01340343049314F8C3
:10593000011B062226488DF82810FDF7C5FB00281C
:1059400038D0244B1BBB039B073323F007030833DA
:105950000393099B3344099367E70C4601200CFB32
:105960000232A5E700234FF00A0C194601340593D3
:10597000204610F8012B303A092A03D9002BC5D054
:105980000591C3E7044601230CFB0121F0E703ABBB
:1059900000932A463846104B04A9FDF749FC421CE7
:1059A0000646D6D1AB895B063FF52CAF09981DB0F2
:1059B000BDE8F08F03AB00932A463846064B04A996
:1059C000FDF7D2FEEBE700BF449600084A960008B8
:1059D0004E960008313200082557000838B54B1C98
:1059E000144603D14FF0FF35284638BD9389CDB218
:1059F00023F020039381636B52688BB1A36B9342B6
:105A000008DD23685A1E226003F8015C63680133D5
:105A10006360E9E7214600F053FC0028F1D0E1E79C
:105A20002169236851B1994208D213F8011CA94297
:105A300004D1013B013223606260D5E7C4E90F3233
:105A400004F1440363630323A363234603F8465F1F
:105A500023600123DCE710B50C46496B69B104F102
:105A60004403994201D0FFF781FD0020236C60635D
:105A7000636013B1E36B236010BD23694FF0FF3007
:105A8000236000236360A38943F02003A381F3E72D
:105A90002DE9F0470C4600210646ADF5227DCDE903
:105AA0004411A7490DF10408A091A649A64FDFF8BB
:105AB0009C92CDF81881A19100931378002B00F0EF
:105AC0005C81D95D551C11F0080119D06368002B69
:105AD0000FDD23681A78BA5C120701D42A46ECE776
