:020000040800F2
:1000000000500020191B0008611B0008611B00083C
:10001000611B0008611B0008611B00080000000054
:10002000000000000000000000000000611B00084C
:10003000611B000800000000611B0008611B000834
:10004000611B0008611B0008611B0008611B0008A0
:10005000611B0008611B0008611B0008611B000890
:10006000611B0008611B0008611B0008611B000880
:10007000611B0008611B0008611B0008611B000870
:10008000611B0008611B0008611B0008611B000860
:10009000611B0008611B0008611B0008611B000850
:1000A000611B0008611B0008611B0008611B000840
:1000B000611B0008611B0008611B0008611B000830
:1000C000611B0008611B0008611B0008611B000820
:1000D000611B0008611B0008611B0008611B000810
:1000E000611B0008611B0008611B00080000000084
:1000F0000000000000000000000000000000000000
:0C01000000000000000000005FF808F1A3
:1001100010B5054C237833B9044B13B10448AFF341
:1001200000800123237010BD0802002000000000A1
:10013000104A000808B5034B1BB103490348AFF34D
:10014000008008BD000000000C020020104A0008DA
:1001500081F0004102E000BF83F0004330B54FEA78
:1001600041044FEA430594EA050F08BF90EA020FE5
:100170001FBF54EA000C55EA020C7FEA645C7FEA78
:10018000655C00F0E2804FEA5454D4EB5555B8BF9B
:100190006D420CDD2C4480EA020281EA030382EA0C
:1001A000000083EA010180EA020281EA0303362D9E
:1001B00088BF30BD11F0004F4FEA01314FF4801C71
:1001C0004CEA113102D0404261EB410113F0004F83
:1001D0004FEA03334CEA133302D0524263EB43033A
:1001E00094EA050F00F0A780A4F10104D5F1200ED8
:1001F0000DDB02FA0EFC22FA05F2801841F1000133
:1002000003FA0EF2801843FA05F359410EE0A5F106
:1002100020050EF1200E012A03FA0EFC28BF4CF037
:10022000020C43FA05F3C01851EBE37101F00045ED
:1002300007D54FF0000EDCF1000C7EEB00006EEBFA
:100240000101B1F5801F1BD3B1F5001F0CD3490884
:100250005FEA30004FEA3C0C04F101044FEA4452DB
:1002600012F5800F80F09A80BCF1004F08BF5FEA62
:10027000500C50F1000041EB045141EA050130BD42
:100280005FEA4C0C404141EB0101013C28BFB1F554
:10029000801FE9D291F0000F04BF01460020B1FA9F
:1002A00081F308BF2033A3F10B03B3F120020CDA72
:1002B0000C3208DD02F1140CC2F10C0201FA0CF050
:1002C00021FA02F10CE002F11402D8BFC2F1200CB5
:1002D00001FA02F120FA0CFCDCBF41EA0C0190406B
:1002E000E41AA2BF01EB0451294330BD6FEA0404B4
:1002F0001F3C1CDA0C340EDC04F11404C4F120029F
:1003000020FA04F001FA02F340EA030021FA04F3B0
:1003100045EA030130BDC4F10C04C4F1200220FA07
:1003200002F001FA04F340EA0300294630BD21FA45
:1003300004F0294630BD94F0000F83F4801306BF0B
:1003400081F480110134013D4EE77FEA645C18BFFF
:100350007FEA655C29D094EA050F08BF90EA020F96
:1003600005D054EA000C04BF1946104630BD91EA8E
:10037000030F1EBF0021002030BD5FEA545C05D191
:100380004000494128BF41F0004130BD14F58004D0
:100390003CBF01F5801130BD01F0004545F0FE4144
:1003A00041F470014FF0000030BD7FEA645C1ABF79
:1003B000194610467FEA655C1CBF0B46024650EAB0
:1003C000013406BF52EA033591EA030F41F40021DC
:1003D00030BD00BF90F0000F04BF0021704730B562
:1003E0004FF4806404F132044FF000054FF0000137
:1003F00050E700BF90F0000F04BF0021704730B5F8
:100400004FF4806404F1320410F0004548BF4042CC
:100410004FF000013EE700BF42004FEAE2014FEA21
:1004200031014FEA02701FBF12F07F4393F07F4FFC
:1004300081F06051704732F07F4208BF704793F0FF
:100440007F4F04BF41F40021704730B54FF4607412
:1004500001F0004521F000411CE700BF50EA010215
:1004600008BF704730B54FF000050AE050EA0102BE
:1004700008BF704730B511F0004502D5404261EB2E
:1004800041014FF4806404F132045FEA915C3FF46F
:10049000D8AE4FF003025FEADC0C18BF03325FEA0C
:1004A000DC0C18BF033202EBDC02C2F1200300FABD
:1004B00003FC20FA02F001FA03FE40EA0E0021FAE2
:1004C00002F11444BDE600BF4FEA4102B2F1E0433D
:1004D00024BFB3F5001CDCF1FE5C0DD901F0004C2B
:1004E0004FEAC0024CEA5070B2F1004F40EB83007B
:1004F00008BF20F00100704711F0804F21D113F1A7
:100500003872BCBF01F00040704741F480114FEADF
:100510005252C2F11802C2F1200C10FA0CF320FA68
:1005200002F018BF40F001004FEAC1234FEAD32385
:1005300003FA0CFC40EA0C0023FA02F34FEA4303EF
:10054000CCE77FEA625307D150EA01331EBF4FF078
:10055000FE4040F44000704701F0004040F0FE4093
:1005600040F40000704700BF42000ED2B2F1FE4FCF
:100570000BD34FF09E03B3EB126209D44FEA002372
:1005800043F0004323FA02F070474FF00000704739
:1005900012F1610F01D1420202D14FF0FF307047DA
:1005A0004FF00000704700BF034613F8012B002AEC
:1005B000FBD1181A0138704770B54FF0FF0C4CF49E
:1005C000E06C1CEA11541DBF1CEA135594EA0C0F91
:1005D00095EA0C0F00F0DEF82C4481EA030621EACC
:1005E0004C5123EA4C5350EA013518BF52EA033507
:1005F00041F4801143F4801338D0A0FB02CE4FF0B9
:100600000005E1FB02E506F00042E0FB03E54FF0E8
:100610000006E1FB03569CF0000F18BF4EF0010EE0
:10062000A4F1FF04B6F5007F64F5407404D25FEADC
:100630004E0E6D4146EB060642EAC62141EA55518F
:100640004FEAC52040EA5E504FEACE2EB4F1FD0CD1
:1006500088BFBCF5E06F1ED8BEF1004F08BF5FEA4F
:10066000500E50F1000041EB045170BD06F0004601
:1006700046EA010140EA020081EA0301B4EB5C04AE
:10068000C2BFD4EB0C0541EA045170BD41F48011A6
:100690004FF0000E013C00F3AB8014F1360FDEBFCB
:1006A000002001F0004170BDC4F10004203C35DAA7
:1006B0000C341BDC04F11404C4F1200500FA05F32A
:1006C00020FA04F001FA05F240EA020001F00042CB
:1006D00021F0004110EBD37021FA04F642EB060141
:1006E0005EEA430E08BF20EAD37070BDC4F10C046B
:1006F000C4F1200500FA04F320FA05F001FA04F22F
:1007000040EA020001F0004110EBD37041F100011A
:100710005EEA430E08BF20EAD37070BDC4F1200525
:1007200000FA05F24EEA020E20FA04F301FA05F28D
:1007300043EA020321FA04F001F0004121FA04F235
:1007400020EA020000EBD3705EEA430E08BF20EA05
:10075000D37070BD94F0000F0FD101F0004640003F
:1007600041EB010111F4801F08BF013CF7D041EAC1
:10077000060195F0000F18BF704703F000465200C5
:1007800043EB030313F4801F08BF013DF7D043EA96
:100790000603704794EA0C0F0CEA135518BF95EA4C
:1007A0000C0F0CD050EA410618BF52EA4306D1D1D3
:1007B00081EA030101F000414FF0000070BD50EAF2
:1007C000410606BF1046194652EA430619D094EA7C
:1007D0000C0F02D150EA013613D195EA0C0F05D166
:1007E00052EA03361CBF104619460AD181EA0301BA
:1007F00001F0004141F0FE4141F470014FF0000072
:1008000070BD41F0FE4141F4780170BD70B54FF00C
:10081000FF0C4CF4E06C1CEA11541DBF1CEA13558C
:1008200094EA0C0F95EA0C0F00F0A7F8A4EB05046E
:1008300081EA030E52EA03354FEA013100F0888065
:100840004FEA03334FF0805545EA131343EA12632E
:100850004FEA022245EA111545EA10654FEA0026E3
:100860000EF000419D4208BF964244F1FD0404F59C
:10087000407402D25B084FEA3202B61A65EB0305F8
:100880005B084FEA32024FF480104FF4002CB6EBB5
:10089000020E75EB030E22BFB61A754640EA0C0035
:1008A0005B084FEA3202B6EB020E75EB030E22BF75
:1008B000B61A754640EA5C005B084FEA3202B6EBB6
:1008C000020E75EB030E22BFB61A754640EA9C0075
:1008D0005B084FEA3202B6EB020E75EB030E22BF45
:1008E000B61A754640EADC0055EA060E18D04FEA03
:1008F000051545EA16754FEA06164FEAC30343EAA3
:1009000052734FEAC2025FEA1C1CC0D111F4801F6F
:100910000BD141EA00014FF000004FF0004CB6E768
:1009200011F4801F04BF01430020B4F1FD0C88BF07
:10093000BCF5E06F3FF6AFAEB5EB030C04BFB6EB12
:10094000020C5FEA500C50F1000041EB045170BD05
:100950000EF0004E4EEA113114EB5C04C2BFD4EB32
:100960000C0541EA045170BD41F480114FF0000EB6
:10097000013C90E645EA060E8DE60CEA135594EA32
:100980000C0F08BF95EA0C0F3FF43BAF94EA0C0F35
:100990000AD150EA01347FF434AF95EA0C0F7FF4AA
:1009A00025AF104619462CE795EA0C0F06D152EAFE
:1009B00003353FF4FDAE1046194622E750EA4106E2
:1009C00018BF52EA43067FF4C5AE50EA41047FF4F3
:1009D0000DAF52EA43057FF4EBAE12E74FF0FF3C58
:1009E00006E000BF4FF0010C02E000BF4FF0010C29
:1009F0004DF804CD4FEA410C7FEA6C5C4FEA430CA2
:100A000018BF7FEA6C5C1BD001B050EA410C0CBFF0
:100A100052EA430C91EA030F02BF90EA020F002052
:100A2000704710F1000F91EA030F58BF994208BFB9
:100A300090422CBFD8176FEAE37040F00100704776
:100A40004FEA410C7FEA6C5C02D150EA013C07D1CD
:100A50004FEA430C7FEA6C5CD6D152EA033CD3D018
:100A60005DF8040B704700BF8446104662468C4612
:100A70001946634600E000BF01B5FFF7B7FF002845
:100A800048BF10F1000F01BD4DF808EDFFF7F4FF6E
:100A90000CBF012000205DF808FB00BF4DF808EDF9
:100AA000FFF7EAFF34BF012000205DF808FB00BF1C
:100AB0004DF808EDFFF7E0FF94BF012000205DF83E
:100AC00008FB00BF4DF808EDFFF7CEFF94BF0120F3
:100AD00000205DF808FB00BF4DF808EDFFF7C4FFEC
:100AE00034BF012000205DF808FB00BF4FEA410C35
:100AF0007FEA6C5C02D150EA013C0AD14FEA430C18
:100B00007FEA6C5C02D152EA033C02D14FF0000054
:100B100070474FF0010070474FEA410212F5001292
:100B200015D211D56FF47873B3EB625212D94FEA34
:100B3000C12343F0004343EA505311F0004F23FA1E
:100B400002F018BF404270474FF00000704750EA73
:100B5000013005D111F0004008BF6FF00040704730
:100B60004FF00000704700BF00B583B0012108209E
:100B700000F08AFD4FF48043ADF8043048238DF82F
:100B8000073001A9024800F015FD03B05DF804FB31
:100B9000000C014000B583B00121082000F074FD75
:100BA0004FF48043ADF8043010238DF80730032351
:100BB0008DF8063001A9034800F0FCFC03B05DF895
:100BC00004FB00BF000C014070B582B00121082079
:100BD00000F05AFD0121082000F056FD01210820F7
:100BE00000F052FD4FF40053ADF8043010268DF89C
:100BF000076003258DF806500F4C01A9204600F030
:100C0000D9FC4FF48043ADF804308DF807608DF8BF
:100C1000065001A9204600F0CDFC4FF40043ADF88A
:100C200004308DF807608DF8065001A9204600F0C9
:100C3000C1FC02B070BD00BF000C014070B505469C
:100C4000FFF7A8FF002412E04FF480410E4800F0A7
:100C500013FD6D080C4E4FF40051304600F00AFDB4
:100C60004FF40051304600F007FD0134E4B2072C88
:100C700008D815F0010FE7D04FF48041024800F08A
:100C8000F9FCE6E770BD00BF000C014070B50646F8
:100C90000D460E4C4FF40041204600F0EDFC4FF4A1
:100CA0000051204600F0E8FC4FF40041204600F0DF
:100CB000E1FC3046FFF7C2FF2846FFF7BFFF4FF4C5
:100CC0000041204600F0D8FC70BD00BF000C014080
:100CD00070B5FFF749FF00252C460CE00E4E4FF48F
:100CE0000051304600F0C6FC4FF40051304600F091
:100CF000C3FC0134E4B2072C0BD86D084FF48041DB
:100D0000054800F0B0FC0128E8D165F07F05EDB2A0
:100D1000E4E7284670BD00BF000C014038B5054629
:100D20000E4C4FF40041204600F0A6FC4FF4005159
:100D3000204600F0A1FC4FF40041204600F09AFC50
:100D40002846FFF77BFFFFF7C3FF05464FF400413E
:100D5000204600F091FC284638BD00BF000C014041
:100D600000220AE0835C03F00F0C1B0903EB8303F2
:100D70000CEB430383540132D2B28A42F2D3704760
:100D800000238B4214D210B4C25C0A4CA4FB024C68
:100D90004FEADC04A44604EB8404A2EB440242EADA
:100DA0000C12C2540133DBB28B42EDD310BC70473E
:100DB000704700BFCDCCCCCC10B5FFF705FF154C6C
:100DC00007212046FFF7DCFF80218E20FFF75EFF22
:100DD00021788C20FFF75AFF61788820FFF756FFB3
:100DE000A1788620FFF752FFE1788420FFF74EFFBD
:100DF00021798220FFF74AFF61798020FFF746FFC3
:100E0000A1798A20FFF742FF80218E20FFF73EFF65
:100E100010BD00BF0000002010B58D20FFF77EFF41
:100E20000F4C20708920FFF779FF60708720FFF753
:100E300075FFA0708520FFF771FFE0708320FFF73A
:100E40006DFF20718120FFF769FF60718B20FFF734
:100E500065FFA07107212046FFF782FF10BD00BF8C
:100E60000000002000B583B0044B1B68019301A96A
:100E7000034800F09FFB03B05DF804FB284A00081C
:100E80000008014000B583B0044B5B68019301A9E1
:100E9000034800F08FFB03B05DF804FB284A00080C
:100EA0000008014030B583B00121042000F0ECFBC4
:100EB0000C4B9B6801930C4C01A9204600F07AFB77
:100EC0000121204600F0D6FB0425ADF804500DEBBF
:100ED0000501204600F06EFB2946204600F0CCFBC1
:100EE00003B030BD284A00080008014010B5FFF7E4
:100EF000C9FF0E4C0221204600F0BCFB0221204617
:100F000000F0BAFB4FF4FA7000F05AFCFFF7AAFFAA
:100F1000462000F055FC0221204600F0A4FB0446C8
:100F20004FF4FA7000F04CFC204610BD0008014060
:100F300038B50446FFF7A6FF094D0221284600F008
:100F40009BFB0A2000F03CFC22460221284600F0D0
:100F500095FB322000F034FCFFF784FF38BD00BF62
:100F60000008014010B5FFF78DFF0B4C0221204611
:100F700000F082FB052000F023FCFFF773FF052043
:100F800000F01EFC0221204600F06DFB04463C20D0
:100F900000F016FC204610BD0008014038B505469B
:100FA000002406E00120A0402840FFF7C1FF0134E3
:100FB000E4B2072CF6D938BD38B500252C4601E03F
:100FC0000134E4B2072C08D8FFF7CCFF0028F7D093
:100FD0000123A3401D43EDB2F2E7284638BD08B512
:100FE000FFF784FFCC20FFF7D9FF4420FFF7D6FF9F
:100FF00008BD000010B5FFF779FFCC20FFF7CEFF4A
:10100000BE20FFF7CBFFFFF7D7FF0446FFF7D4FF63
:1010100044EA0020FFF7EEF90022034BFFF7CCFA79
:10102000FFF752FA10BD00BF0000B03F08B530B95D
:1010300000214FF48062034800F0B8FD08BDFF2195
:10104000F7E700BF2C0200207F2815D83F2913D8CE
:10105000104B1B7913B1B2FA82F25209012A0CD05B
:10106000CB0800EBC31001F0070101238B400A4AB3
:10107000115C21EA030111547047CB0800EBC31047
:1010800001F0070101238B40034A115C19431154FD
:10109000704700BF240200202C020020014B188062
:1010A00059807047240200202DE9F8439046244BD4
:1010B0001B880A7813447F2B3EDC81460D46204B6B
:1010C0005B884A7813443F2B38DC002620E01C4B19
:1010D0001888598831442044B8FA88F2520989B2F4
:1010E00080B2FFF7B1FF01342B78A3420FD907FA82
:1010F00004F313F4004FEAD0114B18885988314497
:101100002044424689B280B2FFF79EFFEBE70136EA
:101110006A78B24208D96968A9F1200302FB036327
:1011200031F813700024DFE72B78054A11880B444F
:1011300013804846BDE8F8830020FBE70020F9E76C
:101140002402002070B504460E46154600E0013426
:10115000207838B12A463146FFF7A6FF03462078AB
:101160008342F4D070BD2DE9F04F83B004460E46A3
:10117000174698469DF830B07F2800D97F247F2FEE
:1011800000D97F273F2E00D93F26B8F13F0F01D964
:101190004FF03F08BC4220D2A7EB04090FFA89F9AF
:1011A00046451FD2A8EB060A0FFA8AFABC421ED2A5
:1011B00001231A4646451ED201230093D1451EDD68
:1011C00009EBD9756D10B9F1000F1ED0BAF1000FFF
:1011D00034D0CDF80480904654E0A4EB07090FFA10
:1011E00089F9DDE7A6EB080A0FFA8AFADEE74FF085
:1011F000FF331A46DEE74FF0FF330093DEE70AEBDA
:10120000DA756D106D422DB2DDE7464502D84346D2
:10121000B0461E46BC4200D827460FFA88F80AE0BE
:101220001FFA88F85A4641463846FFF70DFF08F185
:1012300001080FFA88F8B045F2DD17E0464500D8FE
:10124000B046BC4202D83B4627461C463FB207E0A8
:10125000BFB25A4641463846FFF7F6FE01373FB265
:10126000A742F5DD02E0019B9E4212D103B0BDE82A
:10127000F08F2B46554504DA4B441BB2009A1644B6
:10128000B6B21D465A4631462046FFF7DDFEBC4247
:10129000E9D0C9F100039D42EBDDA5EB0A031BB2C7
:1012A0004444A4B2E6E7000070B582B001210820F2
:1012B00000F0EAF914238DF8073003238DF8063087
:1012C0004FF48076ADF804600C4C01A9204600F084
:1012D00071F94FF40075ADF8045001A9204600F0F3
:1012E00069F901223146204600F0C8F90122294659
:1012F000204600F0C3F902B070BD00BF000C0140F1
:1013000010B50D4C01224FF40071204600F0B6F9E3
:1013100001224FF48071204600F0B0F900224FF412
:101320000071204600F0AAF900224FF48071204697
:1013300000F0A4F910BD00BF000C014010B50A4C2C
:1013400000224FF40071204600F098F901224FF47A
:101350008071204600F092F901224FF4007120467E
:1013600000F08CF910BD00BF000C014070B50646BE
:10137000002416E080222241124D32404FF40071C9
:10138000284600F07BF901224FF48071284600F0D6
:1013900075F900224FF48071284600F06FF901348E
:1013A000E4B2072CE6D9074C01224FF480712046A5
:1013B00000F064F900224FF48071204600F05EF9DD
:1013C00070BD00BF000C0140F8B507460C4616463C
:1013D0001D46FFF795FF3846FFF7C8FF2046FFF789
:1013E000C5FF002403E0305DFFF7C0FF0134A542D4
:1013F000F9DCFFF7A3FFF8BD70B506460D461446AD
:10140000FFF77EFF3046FFF7B1FF2846FFF7AEFF3C
:101410002046FFF7ABFFFFF791FF70BD10B500242A
:101420001AE0A4F15002D2B200217820FFF7E4FFC5
:10143000002211467820FFF7DFFF102200217820DC
:10144000FFF7DAFF8023064A02EBC412402178201E
:10145000FFF7BAFF0134E4B2072CE2D910BD00BF98
:101460002C02002008B5FFF71FFF40F6C41300E070
:10147000013B002BFCD1AE2200217820FFF7BCFFFE
:10148000202200217820FFF7B7FF102200217820CA
:10149000FFF7B2FFB02200217820FFF7ADFFC8228E
:1014A00000217820FFF7A8FF002211467820FFF7DF
:1014B000A3FF102200217820FFF79EFF4022002189
:1014C0007820FFF799FF812200217820FFF794FF11
:1014D000FF2200217820FFF78FFFA1220021782032
:1014E000FFF78AFFA62200217820FFF785FFA822B8
:1014F00000217820FFF780FF3F2200217820FFF7AE
:101500007BFFA42200217820FFF776FFD322002161
:101510007820FFF771FF002211467820FFF76CFF5B
:10152000D52200217820FFF767FFF02200217820E4
:10153000FFF762FFD92200217820FFF75DFF22220A
:1015400000217820FFF758FFDA2200217820FFF7EA
:1015500053FF122200217820FFF74EFFDB220021EB
:101560007820FFF749FF202200217820FFF744FF71
:101570008D2200217820FFF73FFF142200217820E0
:10158000FFF73AFFAF2200217820FFF735FF2E2228
:1015900000217820FFF730FF0020FFF747FDFFF71D
:1015A0003DFF034B00221A805A800120587108BD6C
:1015B0002402002030B5CB7803F00F02964613F0DA
:1015C000100F03D091F802E04EEA020E0B7803B33D
:1015D0000468002301E042610133072B18D801227F
:1015E0009A40B1F800C032EA0C05F5D14FEA830CFD
:1015F0000F2505FA0CF524EA05040EFA0CFC4CEA5A
:101600000404CD78282DE6D0482DE5D10261E3E72A
:1016100004600B88FF2B25D94468002303E0CD78B4
:10162000482D1CD00133072B1BD803F1080C0122D5
:1016300002FA0CF2B1F800C032EA0C05F2D14FEA1E
:10164000830C0F2505FA0CF524EA05040EFA0CFCB0
:101650004CEA0404CD78282DE1D14261DFE7026134
:10166000E0E7446030BD8368194201D00120704733
:101670000020704701617047416170470AB1016104
:10168000704741617047000021B1054A93691843D2
:1016900090617047024A936923EA000090617047A5
:1016A0000010024082B00023019300932C4A13687B
:1016B00043F4803313602A4B1B6803F40033009318
:1016C000019B01330193009B1BB9019BB3F5A06FF4
:1016D000F1D1234B1B6813F4003F06D00123009384
:1016E000009B012B04D002B0704700230093F7E762
:1016F0001C4B1A6842F010021A601A6822F00302AA
:101700001A601A6842F002021A60A3F580535A6800
:101710005A605A685A605A6842F480625A605A683D
:1017200022F47C125A605A6842F4E8125A601A682D
:1017300042F080721A600A4B1B6813F0007FFAD0E7
:10174000074B5A6822F003025A605A6842F00202BC
:101750005A60034B5B6803F00C03082BF9D1C2E716
:10176000001002400020024008B5FFF79BFF08BDB3
:1017700008B5104B1A6842F001021A6059680E4A07
:101780000A405A601A6822F0847222F480321A6089
:101790001A6822F480221A605A6822F4FE025A6003
:1017A0004FF41F029A60FFF7DFFF044B4FF0006217
:1017B0009A6008BD001002400000FFF800ED00E054
:1017C00000EBC000C0004FF0E023586100229A6196
:1017D00005221A614FF0E0231B6913F4803FF9D012
:1017E0004FF0E02304221A6170470000144B1A786E
:1017F000931FDBB2052B03D8124B00221A707047DF
:10180000A2F10C01C9B2042903D80E4B01221A70AF
:101810007047A2F11101C9B2012907D9133AD2B216
:10182000022A07D8074B02221A707047054B032281
:101830001A7070470F2B02D9024B04221A7070479E
:101840003A060020420600200E4B1A78D31EDBB267
:10185000022B03D80C4B00221A707047931FDBB287
:10186000022B03D8084B01221A707047093AD2B2F2
:10187000022A03D8044B02221A707047024B03223B
:101880001A7070473C0600203D060020094A0B23D1
:1018900013700A215170084A072111701E215170DE
:1018A000064A0221117006215170054A13705370C7
:1018B000704700BF40060020380600203406002094
:1018C0003006002008B5FFF7A7FA0B4B19780B4A32
:1018D000117059780A4A117099780A4A1170D978AA
:1018E000094A11701979094A11705979084A117019
:1018F0009A79084B1A7008BD0000002044060020A9
:101900003C060020360600203A0600203B06002058
:101910003E060020430600201D4B1B78162B03D9E2
:101920001C4B1D4A1A607047152B03D9194B1B4AD3
:101930001A607047122B03D9164B194A1A60704768
:10194000112B03D9134B174A1A6070470D2B03D97B
:10195000104B134A1A6070470C2B03D90D4B0E4ADB
:101960001A6070470B2B03D90A4B0E4A1A60704756
:10197000072B03D9074B0A4A1A607047062B03D975
:10198000044B084A1A607047024B034A1A607047BA
:101990003A0600202C060020487200085072000809
:1019A000587200086072000808B5FFF78BFFFFF758
:1019B000B3FFFFF71BFFFFF747FF08BD08B5FFF7B1
:1019C00065FFFFF7F9F9FFF7EFFF08BD30B589B004
:1019D000FFF705FBFFF70EFBFEF7C6FDC2B2344969
:1019E00003A800F04BFD02210020FFF757FB314C0C
:1019F0000122214603A8FFF7A5FB012221462E481C
:101A0000FFF7A0FB2D4D2A782D4BA3FB02139B085B
:101A100003EB4303A2EB4303DBB201222146294837
:101A200050F82300FFF78EFB274B1B78274A1278CC
:101A3000274903A800F022FD10210320FFF72EFB09
:101A40000122244903A8FFF77DFB2A78224903A835
:101A500000F014FD214D0122294603A8FFF772FB77
:101A60002B210020FFF71AFB012221461C48FFF71B
:101A700069FB35210020FFF711FB0122214619489F
:101A8000FFF760FB2D214020FFF708FB01222946CC
:101A9000154B1868FFF756FB012300930F237F2295
:101AA00019460020FFF75FFBFFF7B8FC09B030BD17
:101AB00068720008180000206C7200083E060020C2
:101AC000ABAAAAAA200000203B0600203A0600206C
:101AD00074720008100000207872000808000020CE
:101AE00080720008887200082C06002008B5FFF7F5
:101AF000B9FCFFF7D7F9FFF769FF08BD08B5FFF795
:101B000065FF08BD08B5FFF759FFFFF7EFFFFFF7C7
:101B10004BFFFFF7F3FFFAE70C480D490D4A00238E
:101B200002E0D458C4500433C4188C42F9D30A4A92
:101B30000A4C002301E013600432A242FBD3FFF7FA
:101B400017FE00F00FF8FFF7DDFF704700000020E0
:101B500008020020E4760008080200205C0600204D
:101B6000FEE7000070B500260C4D0D4C641BA41060
:101B7000A64209D102F04CFF00260A4D0A4C641B14
:101B8000A410A64205D170BD55F8043B9847013614
:101B9000EEE755F8043B98470136F2E7DC7600089B
:101BA000DC760008DC760008E07600080346024494
:101BB000934200D1704703F8011BF9E7002B2DE990
:101BC000F0471F46BBBF03F100431F4600232D23F0
:101BD00088B01446129A109D1370149BDDF84CA027
:101BE00023F02008B8F1460F05D0B8F1450F00D119
:101BF0000135022300E0032307AA049206AACDE9D7
:101C000002A2CDE9003522463B4600F0E5FCB8F1E2
:101C1000470F064602D1119BDB0722D5B8F1460FCC
:101C200006EB050910D13378302B0AD100220023AE
:101C300020463946FEF728FF18B9C5F10105CAF854
:101C40000050DAF80030994400220023204639463B
:101C5000FEF71AFF08B1CDF81C903022079B4B45C8
:101C600007D33046079B159A9B1B136008B0BDE84D
:101C7000F087591C07911A70F0E70346F7B5002961
:101C800003F8022BB6BF2D222B22494209294270AC
:101C90002BDD0DF10704A4460A2791FBF7F60A464F
:101CA000A64607FB1615632A05F13005314604F1F7
:101CB000FF340EF8015CF0DC3031AEF1020504F8BF
:101CC000011C2946441C61450AD30DF10902A2EB0F
:101CD0000E02654588BF00221344181A03B0F0BDF8
:101CE00011F8012B04F8012FEDE730233031837018
:101CF000C170031DF1E700002DE9F04F91B00C46D3
:101D0000DDF8688016461F46054601F053FA036861
:101D100018460993FEF748FC00230E93D8F80030CC
:101D20000A90073323F0070303F1080294F8189090
:101D3000D4F800B0C8F80020D3E90023C4E9122386
:101D4000D4E9128A2AF000430B934FF0FF32404649
:101D50009C4B0B99FEF7CAFE70BB4FF0FF3240461A
:101D6000984B0B99FEF7A4FE30BB0022002340469F
:101D70005146FEF793FE10B12D2384F84330924B69
:101D80009248B9F1470F94BF9846804603234FF01D
:101D9000000A23612BF004032360334621462846C2
:101DA00000970FAA00F0D4F9013040F090804FF076
:101DB000FF3011B0BDE8F08F4246534640465146D1
:101DC000FEF794FE48B1BAF1000FB8BF2D2380484A
:101DD000B8BF84F843307F4BD3E7636809F0DF0175
:101DE0005A1C42D106236360002206920EAACDE956
:101DF00004920DAA4BF4806303920DF13302CDE9F6
:101E000001322360636842460093284653460B9193
:101E1000FFF7D4FE0B99804647290D9908D1C81CBD
:101E200002DB6368994240DDA9F102095FFA89F992
:101E3000B9F1650F1FD84A46013904F150000D91E0
:101E4000FFF71BFF0E9A82461318012A236102DC5A
:101E50002268D20701D5013323619DF83330002B6E
:101E60009BD02D2384F8433097E74729BCD1002B22
:101E7000BAD10123B7E7B9F1660F18D10029636819
:101E80000BDD216113B92268D00702D501330B4461
:101E900023614FF0000AA165DFE713B92268D2077A
:101EA00001D50233F4E70123F2E74FF067090E9BF7
:101EB000994205DB23682161D807EAD54B1CE7E787
:101EC0000029CCBF0122C1F102021344E0E72368DC
:101ED0005A0507D42369424631462846B84701309F
:101EE0002BD164E7B9F1650F40F2DD80D4E912012E
:101EF00000220023FEF7C8FD002833D0012331461D
:101F00002846354AB84701303FF451AFDDE90D238B
:101F10009A4202DB2368D8070FD5DDE90923314651
:101F20002846B84701303FF442AF4FF0000804F1B3
:101F30001A090E9B013B434509DC23689B0700F10E
:101F40000281E0680F9B9842B8BF184631E7012331
:101F50004A4631462846B84701303FF428AF08F1D9
:101F60000108E6E70D9B002B38DC012331462846AB
:101F7000194AB84701303FF41AAFDDE90D23134386
:101F800002D12368D907D8D5DDE90923314628468F
:101F9000B84701303FF40BAF4FF0000904F11A0AC3
:101FA0000D9B5B424B4501DC0E9B94E7012352469F
:101FB00031462846B84701303FF4F9AE09F101092E
:101FC000EEE700BFFFFFEF7FC0720008C472000899
:101FD000CC720008C8720008D07200080E9AA36D77
:101FE0009A42A8BF1A46002A914637DC4FF0000BF0
:101FF00029EAE97904F11A02D4F858A0AAEB0903F6
:102000005B4533DCDDE90D239A423BDB2368DA07CD
:1020100038D40E9B0D99A3EB0A02A3EB010991455D
:10202000A8BF9146B9F1000F34DC4FF0000829EA4F
:10203000E97904F11A0ADDE90D239B1AA3EB0903E0
:1020400043457FF77AAF0123524631462846B847C9
:1020500001303FF4ACAE08F10108ECE7134631461D
:1020600042462846B8470130C0D1A0E60123314698
:1020700028460B92B84701303FF499AE0B9A0BF10A
:10208000010BB9E73146DDE909232846B84701309D
:10209000BFD18CE64B463146284608EB0A02B847CA
:1020A0000130C2D183E60E9A012A01DCDB0737D565
:1020B0000123424631462846B84701303FF477AE07
:1020C000DDE9092331462846B84701303FF46FAEB9
:1020D000D4E9120100220023FEF7D6FCD8B90E9BEA
:1020E00008F10102013B31462846B84701300ED1C4
:1020F0005DE601234A4631462846B84701303FF4A1
:1021000056AE08F101080E9B013B4345F1DC5346F6
:1021100004F15002E0E64FF0000804F11A09F2E77A
:1021200001234246DFE701234A4631462846B847A5
:1021300001303FF43CAE08F10108E3680F995B1AE7
:102140004345F0DCFDE64FF0000804F11909F4E71F
:102150002DE9F047164699468A680B69074693426F
:10216000B8BF1346336091F843200C46DDF8208059
:102170000AB1013333602368990642BF33680233E2
:102180003360256815F0060506D104F1190AE368E5
:1021900032689B1AAB4228DC94F84320131E226855
:1021A00018BF012392062DD44946384604F1430254
:1021B000C047013020D02368E56803F00603042BF4
:1021C00018BF002532684FF00006A36808BFAD1A9B
:1021D000226908BF25EAE5759342C4BF9B1AED1832
:1021E0001A34B5421AD1002008E00123524649466C
:1021F0003846C047013003D14FF0FF30BDE8F087CB
:102200000135C4E73020E11881F843005A1C94F8E6
:1022100045102244023382F84310C5E701232246C9
:1022200049463846C0470130E6D00136D9E70000BC
:102230002DE9FF470F7E9146782F80460C469A463F
:102240000C9D01F1430207D8622F0AD8002F00F03D
:10225000D980582F00F0A48004F1420584F8427020
:102260003AE0A7F16303152BF6D801A151F823F04A
:10227000C9220008DD22000859220008592200085E
:102280005922000859220008DD22000859220008BE
:10229000592200085922000859220008EB2300089F
:1022A0000D230008CD2300085922000859220008F8
:1022B0000D240008592200080D23000859220008A7
:1022C00059220008D52300082B681A1D1B682A60B4
:1022D00004F1420584F842300123A4E02068296813
:1022E000060601F104030AD50E682B60002E03DAFE
:1022F0002D23764284F843300A235E4819E00E68A5
:1023000010F0400F2B6018BF36B2EFE72B68206843
:10231000191D2960010601D51E6802E04606FBD59D
:102320001E886F2F0CBF08230A235248002184F80F
:1023300043106568002DA8BF2168A560A4BF21F0E7
:10234000040121600EB9002D4DD01546B6FBF3F106
:1023500003FB1167C75D05F8017D3746BB420E469A
:10236000F4D9082B0BD12368DE0708D523696168EF
:102370009942DEBF302305F8013C05F1FF35521BC1
:1023800022614B4621464046CDF800A003AAFFF744
:10239000DFFE01304CD14FF0FF3004B0BDE8F087D4
:1023A000344881F845702968236851F8046B296026
:1023B0001D0614D5DF0744BF43F0200323601EB978
:1023C000236823F0200323601023AFE7236843F042
:1023D000200323607823284884F84530E3E7590632
:1023E00048BFB6B2E6E71546BBE72B682668181D5E
:1023F0006169286035061B6801D5196002E0700626
:10240000FBD51980002315462361BAE72B6800210C
:102410001A1D2A601D686268284600F0D7FE08B1C0
:10242000401B606063682361002384F84330A8E7A1
:102430002A46494640462369D0470130ABD023683D
:102440009B0713D4E068039B9842B8BF1846A4E7E3
:102450000123324649464046D04701309BD00135E2
:10246000E36803995B1AAB42F2DCEBE7002504F169
:102470001906F5E7D2720008E37200080EB46FF097
:10248000004100B59CB01DAB0290069007910491ED
:102490000848094953F8042B0591006802A90193E3
:1024A00001F07EFB0022029B1A701CB05DF804EB69
:1024B00003B07047380000200802FFFF2DE9F74FF6
:1024C00003690C690746A342C0F28280013C00F117
:1024D000140501F1140805EB8403019358F8243026
:1024E00055F8242001339A42B2FBF3F64FEA840BED
:1024F00008EB840931D34FF0000E4046AC46F2465B
:1025000050F8042B93B206FB03E3120C4FEA134E70
:102510009BB206FB02E2AAEB0303DCF800A04FEA41
:10252000124E1FFA8AFA5344DCF800A092B2C2EBB2
:102530001A4202EB23429BB243EA024381454FEA2F
:10254000224A4CF8043BDBD255F80B302BB9019BE7
:10255000043B9D421A462FD33C61384601F0D0F827
:10256000002825DB28464FF0000C013658F8041BE4
:10257000D0F800E08BB2ACEB03031FFA8EF21344E9
:102580000A0CC2EB1E4202EB23429BB243EA024317
:10259000C1454FEA224C40F8043BE7D255F82420CD
:1025A00005EB840322B9043B9D421A460AD33C61E1
:1025B000304603B0BDE8F08F1268043B002ACBD14F
:1025C000013CC6E71268043B002AF0D1013CEBE76E
:1025D0000020EEE7000000002DE9F04F16461F46F0
:1025E000446A99B00546CDE90467DDF8948074B972
:1025F000102000F0E3FD0246686220B9EA21A84BF2
:10260000A84801F0DDFBC0E901440460C4606B6AC6
:10261000196851B15A68012393404A608B6028467B
:1026200000F030FE00226B6A1A603B1EAFBF002331
:10263000012223F000430593A8BFC8F80030DDF85D
:102640001490994BB8BFC8F8002033EA090319D198
:1026500042F20F73249A1360C9F31303334300F05B
:102660007F85269B53B9914B22E0914B039308330E
:10267000269A1360039819B0BDE8F08F8B4B039333
:102680000333F5E7DDE90434CDE90C34DDE90C0171
:1026900000220023FEF7F8F9804658B10123249A5E
:1026A0001360269B002B00F0588582481860431E5B
:1026B0000393DFE716AB019317AB00932846DDE9E0
:1026C0000C2301F0C5F8C9F30A548346002C7FD0CF
:1026D000DDE90C010D9BA4F2FF34C3F3130343F0B7
:1026E0007F5141F44011CDF84C800022724BFDF730
:1026F00033FD65A3D3E90023FDF75EFF64A3D3E9AF
:102700000023FDF72BFD064620460F46FDF772FE1F
:1027100061A3D3E90023FDF74FFF02460B46304685
:102720003946FDF71BFD06460F46FEF7F5F9002278
:102730008246002330463946FEF7B0F948B150468C
:10274000FDF758FE32463B46FEF79EF908B90AF1FE
:10275000FF3ABAF1160F58D8DDE90C01574B03EBDD
:10276000CA03D3E90023FEF799F900284FD00023CC
:102770000AF1FF3A0F93169B1C1B631E099349BF76
:10278000C4F1010300230693002354BF0693099369
:10279000BAF1000F3DDB099BCDF838A053440993F3
:1027A00000230A93229B092B00F28C80052BC4BFC7
:1027B000043B2293229BC8BF0024A3F10203D8BF8D
:1027C0000124032B00F28A80DFE803F02D4F4D5BDC
:1027D000DDE916431C4404F23243202BC3BFC3F18E
:1027E000400304F2124009FA03F3C3F12003C6BF09
:1027F00026FA00F0184306FA03F0FDF7EBFD01237B
:10280000A1F1F871013C13936FE70123B2E70F9038
:10281000B1E7069BA3EB0A030693CAF100030A93F0
:1028200000230E93BEE700230B93239B002B58DC61
:102830004FF001094B46CDF82090CDF88C90002246
:10284000686A4260042202F114069E4241684ED931
:10285000284600F0D7FC039000284CD102464FF4E4
:10286000D571174BCCE60123DEE700230B93239BA6
:102870000AEB030909F10103012B0893B8BF0123F7
:10288000DDE70123F2E700BF61436F63A787D23F13
:10289000B3C8608B288AC63FFB799F501344D33F4F
:1028A00001730008187300080000F07FFD72000833
:1028B000F4720008D17200080000F83F507400085C
:1028C00096730008012400230B9422934FF0FF39E4
:1028D00000221223CDF820902392B0E701230B931E
:1028E000F4E7DDF88C904B46CDF82090A7E7013156
:1028F00041605200A7E76B6A039A1A60089B0E2B8F
:1029000000F2A880002C00F0A580BAF1000F34DDA1
:102910009A4A0AF00F0302EBC3031AF4807FD3E94B
:102920000034CDE910344FEA2A1416D0DDE90C0149
:10293000934B0327D3E90823FDF768FFCDE9040192
:1029400004F00F048E4E54B9DDE91023DDE90401D3
:10295000FDF75CFFCDE9040129E00227F2E7E1077A
:1029600008D5DDE91001D6E90023FDF725FECDE904
:102970001001013764100836E5E700F0A580DDE9B5
:102980000C01CAF100047D4B04F00F0203EBC203FB
:10299000D3E90023FDF710FE02270023CDE904014F
:1029A000774E2411002C40F08480002BD2D10F9B55
:1029B000002B00F08B80DDE90434CDE91034DDE933
:1029C000100100226F4BFEF769F800287ED0089BAB
:1029D000002B7BD0B9F1000F38DDDDE910010022BA
:1029E000694BFDF7E9FD4C46CDE904010AF1FF38DA
:1029F00001373846FDF7FEFCDDE90423FDF7DCFD79
:102A00000022624BFDF7AAFBA1F15076CDE910013F
:102A10001196002C5DD1DDE9040100225C4BFDF72D
:102A20009BFB02460B46CDE904233346109AFEF782
:102A300053F8002840F09C82DDE90401109A06F169
:102A40000043FEF72BF8002840F09082DDE90C34BB
:102A5000CDE90434179B002BC0F25281BAF10E0F5E
:102A600000F34E81454B03EBCA03D3E90034CDE9B3
:102A70000634239B002B80F2DB80089B002B00F3A5
:102A8000D78040F07282DDE906010022404BFDF75D
:102A900093FDDDE90423FEF715F8089C264600287F
:102AA00040F048823123039F0AF1010A07F8013BF5
:102AB00044E2E20705D5D6E90023FDF77DFD0123B9
:102AC0000137641008366DE7022770E7D046089C8E
:102AD0008FE70399294B214412910B9903EBC4030F
:102AE000DDE9106753E90223002955D00020294968
:102AF000FDF78CFE3B463246FDF72EFBCDE910017B
:102B0000039FDDE90401FEF707F80446FDF772FCB8
:102B100002460B46DDE90401FDF71EFB02460B46AB
:102B20003034CDE90423DDE9102307F8014BFDF72C
:102B3000B5FF002874D1DDE9042300201149FDF719
:102B40000BFBDDE91023FDF7A9FF002840F0B7805B
:102B5000129B9F423FF47AAFDDE9100100220A4B3D
:102B6000FDF72AFD0022CDE91001DDE90401064B45
:102B7000FDF722FDCDE90401C3E700BF5074000852
:102B8000287400080000F03F0000244000001C40B2
:102B9000000014400000E03F30463946FDF70CFDD0
:102BA000129BCDE91001039C1493DDE90401FDF7AC
:102BB000B3FF1590FDF71EFC02460B46DDE904014C
:102BC000FDF7CAFA159B0646303304F8013B129B09
:102BD0000F469C424FF0000224D1DDE91001B04BBA
:102BE000FDF7BCFA02460B4630463946FDF774FF46
:102BF000002863D1DDE910230020A949FDF7ACFAD4
:102C000002460B4630463946FDF748FF00283FF4A0
:102C10001DAF149F7B1E149317F8013C302BF8D086
:102C2000C2463BE09F4BFDF7C7FCCDE90401BCE782
:102C3000039FDDE90489DDE9062340464946FDF7A7
:102C4000E5FDFDF769FF0446FDF7D4FBDDE906234A
:102C5000FDF7B2FC02460B4640464946FDF77CFABA
:102C600004F1300607F8016B039EDDF820C0BE1B9F
:102C7000B44502460B4636D1FDF770FADDE906236E
:102C800080468946FDF728FF58BBDDE9062340460C
:102C90004946FDF7F9FE08B1E10722D42846594616
:102CA00000F0F0FA00233B70249B0AF10100186049
:102CB000269B002B3FF4DEAC1F60DBE427463B463F
:102CC0001F4613F8012D392A07D1039A9A42F7D1EA
:102CD0003022039908F101080A701A7801321A703B
:102CE0009EE7D046EBE700226E4BFDF765FC002225
:102CF000002380468946FDF7C7FE00289BD0CDE71C
:102D00000B9A002A00F0D080229A012A00F3AE80AC
:102D1000139A002A00F0A68003F233430A9C069F10
:102D2000069A01211A440692099A28461A440992E1
:102D300000F05EFB0646002F0CDD099B002B09DD31
:102D4000BB42A8BF3B46069AFF1AD21A0692099ABE
:102D5000D31A09930A9BF3B10B9B002B00F0A880B8
:102D6000002C10DD31462246284600F0FFFB5A4673
:102D700001460646284600F051FB80465946284643
:102D800000F080FAC3460A9B1A1B04D05946284615
:102D900000F0ECFB83460121284600F029FB0E9B46
:102DA0000446002B40F386801A460146284600F070
:102DB000DDFB229B0446012B7FDD4FF000082369D9
:102DC00004EB8303186900F0C5FAC0F12000099BE9
:102DD000184410F01F0000F09280C0F12003042B73
:102DE00040F38A80C0F11C00069B0744034406930D
:102DF000099B03440993069B002B05DD59461A469F
:102E0000284600F00DFC8346099B002B05DD21467A
:102E10001A46284600F004FC04460F9B002B70D095
:102E20002146584600F06CFC00286ADA0023594617
:102E30000A22284600F048FA0B9B83460AF1FF3A23
:102E4000002B00F09481314600230A22284600F02E
:102E50003BFAB9F1000F064600F39380229B022B48
:102E600057DC8EE0169BC3F1360357E7089B5C1EC8
:102E70000A9BA342B7BF0A9B1C1BE21A0E9BBEBF54
:102E80000A949B180E93089BB8BF0024002BBBBF6D
:102E9000069B089A069F9F1AACBF089B00233FE73A
:102EA0000000E03F000024400A9C069F0B9E42E782
:102EB0000A9A6BE7229B012B19DC049BBBB9059B8B
:102EC000C3F313039BB9059B23F000431B0D1B05A4
:102ED00083B14FF00108069B01330693099B013330
:102EE00009930E9B002B7FF46AAF01206FE74FF030
:102EF0000008F6E79846F4E73FF47DAF18461C302B
:102F000072E7089B002B36DC229B022B33DDDDF8B9
:102F10002090B9F1000F0DD121464B4605222846DD
:102F200000F0D2F901460446584600F0E9FB0028BB
:102F30003FF7B8AD239B039F6FEA030A4FF00008E9
:102F40002146284600F09EF9002E3FF4A7AEB8F1C6
:102F5000000F05D0B04503D04146284600F092F955
:102F60003146284600F08EF998E600242646E1E72F
:102F7000C246264696E50B9BDDF82090002B00F01C
:102F8000FD80002F05DD31463A46284600F048FB1B
:102F90000646B8F1000F5CD02846716800F032F99F
:102FA000074628B9024640F2EA217F4BFFF728BBCB
:102FB000326906F10C01023292000C3000F014F973
:102FC00001223946284600F02BFBB0460646039BFB
:102FD00001330893039B4B440A93049B03F00103C2
:102FE0000993089B2146013B58460493FFF766FA74
:102FF000034641463033069058460B9300F080FB61
:10300000324681462146284600F096FBC2680746B4
:103010000B9B02BB0146584600F072FB02460B9B1D
:1030200039462846CDE90B3200F02CF9229B0C9A48
:10303000089F43EA0201099B0B430B9B0DD1392BDF
:1030400029D0B9F1000F01DD069B3133049A1370CA
:1030500076E73046B9E70122E2E7B9F1000F06DB77
:10306000229941EA0909099959EA010120D1002A66
:10307000ECDD594601222846089300F0D1FA21469A
:10308000834600F03DFB0028089B02DCDED1DA0716
:10309000DCD5392BD8D13923049A13703B461F460F
:1030A00017F8012C013B392A50D001321A7047E73A
:1030B000002A03DD392BEED00133C7E7089A0A99BD
:1030C00002F8013C8A422AD0594600230A222846A7
:1030D00000F0FAF8B04583464FF000034FF00A02C3
:1030E0004146284607D100F0EFF880460646089B87
:1030F0000133089375E700F0E7F831468046002376
:103100000A22284600F0E0F80646F0E7B9F1000F81
:10311000CCBF4F4601274FF00008039A1744594689
:1031200001222846089300F07BFA2146834600F0EE
:10313000E7FA0028B2DC02D1089BDB07AED43B469D
:103140001F4613F8012D302AFAD0F9E6039A9A4265
:10315000A5D131230AF1010A79E7144BFFF7A8BA88
:10316000269B002B7FF481AA114BFFF7A1BAB9F17E
:10317000000F03DC229B022B3FF7CBAE039F2146BF
:103180005846FFF79BF9039A00F1300307F8013B1B
:10319000BA1A9145BADD594600230A22284600F0A2
:1031A00093F88346EBE700BF96730008D0720008DF
:1031B000F4720008004870478C010020024B014661
:1031C000186800F01DBC00BF38000020034610B591
:1031D000C9B202449342184601D1002003E00478AA
:1031E00001338C42F6D110BD0A44914200F1FF3305
:1031F00000D1704710B511F8014B914203F8014F0F
:10320000F9D110BD70B5466A04460D4676B9102056
:10321000FFF7D4FF0246606220B96621174B1848B9
:1032200000F0CEFDC0E901660660C660666AF3681C
:1032300083B1636ADB6853F82500B8B9012101FA4C
:1032400005F6721D2046920000F05EFB60B1C0E9F9
:1032500001560EE021220421204600F055FB636A4E
:10326000F060DB68002BE4D1002070BD026843F8F9
:1032700025200023C0E90333F7E700BF01730008EE
:10328000A773000870B5466A05460C4676B910204B
:10329000FFF794FF0246686220B98A21084B09486B
:1032A00000F08EFDC0E901660660C6603CB16B6A45
:1032B0006268DB6853F82210216043F8224070BD39
:1032C00001730008A77300082DE9F04107460C467A
:1032D0001E4600200D6901F1140CDCF800300130AD
:1032E00099B202FB01611E0C0B0C02FB063389B282
:1032F00001EB034185424FEA13464CF8041BECDC1A
:103300000EB3A368AB4219DC616838460131FFF7A0
:1033100079FF804628B90246B5210C4B0C4800F0D5
:103320004FFD226904F10C01023292000C30FFF7CC
:103330005BFF21463846FFF7A5FF444604EB8503B3
:1033400001355E6125612046BDE8F0819673000875
:10335000A7730008020C12040346CAB90304102024
:1033600013F07F4F04BF1B02083013F0704F04BFEF
:103370001B01043013F0404F04BF9B000230002BB0
:1033800005DB13F0804F00F1010008BF20207047DB
:103390000020E5E70368024613F007000BD0D907C9
:1033A00021D4980749BF5B089B08012013605CBFCC
:1033B00002201360704799B209B910201B0CD9B2D2
:1033C00009B908301B0A190704BF1B090430990703
:1033D00004BF9B080230D90703D45B0800F1010049
:1033E00003D0136070470020704720207047000012
:1033F00010B50C460121FFF705FF024628B94FF42E
:10340000A071044B044800F0DBFC0123446103611C
:1034100010BD00BF96730008A77300082DE9F04F98
:1034200091460A69D9F810300C469A42BEBF0B4645
:103430004C4699462769D9F810A0A368616807EB44
:103440000A06B34285B0B8BF0131FFF7DBFE30B9E1
:10345000024640F25D11434B434800F0B1FC00F1DD
:1034600014052B46002205EB8608434521D304F1C1
:10347000140303EB870709F1140303EB8A0202929A
:103480003A1B153A22F00302043204F115018F426F
:1034900038BF04220192029A03939A420CD8002E5C
:1034A00003DD58F8043D002B59D0066105B0BDE896
:1034B000F08F43F8042BD8E7B3F800A0BAF1000F5F
:1034C00023D0A9464FF0000C04F1140E5EF8042B33
:1034D000D9F800101FFA82FB89B20AFB0B11614474
:1034E000D9F800C0120C4FEA1C4C0AFB02C202EBD6
:1034F000114289B241EA024177454FEA124C49F83C
:10350000041BE3D8019A45F802C0039A0433B2F8C9
:103510000290B9F1000F20D0AE464FF0000A2968A2
:1035200004F1140CBCF800B0BEF8022089B209FB0B
:103530000B22924441EA0A414EF8041B5CF8042B2A
:10354000BEF80010120C09FB0211674501EB1A418D
:103550004FEA114AE6D8019AA95004359BE7013E8B
:103560009DE700BF96730008A77300082DE9F84394
:10357000154612F0030206460F4607D0254C013AC5
:10358000002354F82220FFF79FFE0746AD103DD0E0
:10359000746A7CB91020FFF711FE0246706228B9E8
:1035A0004FF4D7711C4B1D4800F00AFCC0E90144E0
:1035B0000460C460D6F82480D8F808404CB940F2C2
:1035C00071213046FFF714FF00230446C8F80800B5
:1035D00003604FF00009EB070AD539462246304612
:1035E000FFF71CFF804639463046FFF74BFE474643
:1035F0006D100BD0206838B9224621463046FFF7BF
:103600000DFF2060C0F800900446E4E73846BDE8AE
:10361000F88300BF1875000801730008A77300083D
:103620002DE9F0470C46074691462369496803EBAC
:103630006218A3684FEA621A08F10106B3420BDB75
:103640003846FFF7DFFD054648B9024640F2D9117A
:10365000294B2A4800F0B4FB01315B00EEE7002360
:1036600000F1140100F110021846534537DB2069C0
:103670002AEAEA7A04F1140319F01F0901EB8A011E
:1036800003EB80002FD08A464FF0000CC9F1200ECA
:103690001A6802FA09F242EA0C024AF8042B53F8BB
:1036A000042B984222FA0EFCF2D8031B153B23F0A0
:1036B0000303043304F11502904238BF042341F898
:1036C00003C0BCF1000F01D008F10206013E3846EC
:1036D00021462E61FFF7D6FD2846BDE8F08742F867
:1036E000040F0133C1E7043953F8042B984241F821
:1036F000042FF9D8EAE700BF96730008A773000803
:1037000003460A69006930B5801A0DD114331431AB
:1037100003EB820401EB820154F8045D51F8042D9F
:10372000954202D004D3012030BDA342F4D3FBE77D
:103730004FF0FF30F8E700002DE9F84F0D4607463F
:10374000114628461446FFF7DBFF061E11D131460D
:103750003846FFF757FD024628B940F232213A4B6E
:103760003A4800F02DFB0123C0E904361046BDE8BD
:10377000F88FA4BF23462C4638466168A6BF1D4675
:1037800000260126FFF73EFD024618B94FF41071DE
:103790002D4BE5E702F11408C2464FF0000C2769F3
:1037A000C6602E6904F1140005F1140900EB870EC0
:1037B00009EB8606103454F804BF59F8043B1FFA8D
:1037C0008BF18C4499B21B0CACEB0101C3EB1B4396
:1037D00003EB214389B24FEA234C4E4541EA0343B0
:1037E0004AF8043BE7D8731B153B23F00303153558
:1037F0000433AE4238BF0423184443441E460546F2
:1038000075450ED30EF10301091A21F003010338A7
:10381000864538BF0021194451F8043D8BB117612A
:10382000A4E755F8048B1FFA88F161440C1404EBEB
:10383000184489B241EA04414FEA244C46F8041B7B
:10384000DEE7013FE8E700BF96730008A7730008B2
:103850002DE9F3410121DDE9087690461D46FFF789
:10386000D1FC044630B9024640F20A31244B2548C7
:1038700000F0A6FAC5F31303C5F30A552DBB019357
:10388000B8F1000326D068460093FFF783FD009946
:10389000F0B1019AC0F1200302FA03F30B43C240D6
:1038A00063610192019B002B14BF02210121A361DE
:1038B0002161C5B1A5F233450544C0F135003D6035
:1038C0003060204602B0BDE8F08143F48013D6E7B3
:1038D0006161E7E701A8FFF75DFD0121019B21611F
:1038E00063612030E5E704EB8103A0F232403860E9
:1038F0001869FFF72FFDC0EB41113160E1E700BF10
:1039000096730008A773000870B5A1FB025434B980
:10391000294600F075F8064628B9304670BD0C22DD
:1039200000260260F9E72A462146FEF73FF9F4E750
:1039300038B50546002940D051F8043C0C1F002B37
:10394000B8BFE41800F098FA1C4A136833B96360F2
:1039500014602846BDE8384000F094BAA34208D964
:10396000206821188B4201BF19685B680918216023
:10397000EDE71A465B680BB1A342FAD911685018FB
:10398000A0420BD120680144501883421160E0D15D
:1039900018685B68014411605360DAE702D90C23B0
:1039A0002B60D6E7206821188B4201BF19685B683D
:1039B0000918216063605460CBE738BD48060020D9
:1039C00070B50E4E0C463168054611B900F0E8F9A5
:1039D00030602146284600F0E3F9431C0AD0C41C9D
:1039E00024F00304A04207D0211A284600F0D8F999
:1039F000013001D14FF0FF34204670BD4C0600204D
:103A00002DE9F041CD1C25F0030508350C2D38BFFC
:103A10000C25002D074601DBA94205D90C23002601
:103A20003B603046BDE8F0812E4E00F025FA336849
:103A30001C4634BB29463846FFF7C2FF431C0446E8
:103A40004DD134682646002E40D123683146384691
:103A500004EB030800F0A4F980453AD1216803354E
:103A60006D1A25F0030508350C2D38BF0C25384696
:103A70002946FFF7A5FF01302BD023682B44236094
:103A80000EE02268521B1ED40B2A16D96119A342DC
:103A9000256018BF5960636808BF316062514B6090
:103AA000384604F10B0600F0EDF926F00706231D59
:103AB000F21AB6D09B1BA350B3E76268A3420CBFB7
:103AC00032605A60ECE723466468B2E734467668B1
:103AD000B9E70C2338463B6000F0D4F9A1E7256034
:103AE000DEE700BF480600202DE9F0478E688246D9
:103AF0009E420C4690461F4638D88A8912F4906F31
:103B000032D0256809690133A5EB010965694B4489
:103B100005EB450505EBD5756D109D4238BF1D467B
:103B2000530531D52946FFF76BFF064650B90C23E4
:103B30004FF0FF30CAF80030A38943F04003A3815F
:103B4000BDE8F0874A462169FFF74EFBA38923F4BD
:103B5000906343F08003A38126614E4426603E4675
:103B60006561A5EB0905A560BE4200D93E46324617
:103B70004146206800F066F9A36800209B1BA36003
:103B8000236833442360DBE72A4600F081F90646C8
:103B90000028E1D150462169FFF7CAFEC7E70000BF
:103BA0002DE9F04F98468B8907461B060D461446B3
:103BB0009DB00ED50B6963B94021FFF721FF286046
:103BC000286120B90C233B604FF0FF30D1E0402347
:103BD0006B610023099320238DF8293030234FF0A7
:103BE0000109CDF80C80DFF8A4818DF82A30234636
:103BF0009A4613F8012B0AB1252AF9D1BAEB040B26
:103C00000BD05B46224629463846FFF76DFF013050
:103C100000F0AA80099A5A4409929AF80030002BC1
:103C200000F0A28000234FF0FF32CDE905230AF116
:103C3000010A049307938DF853301A9354460522D2
:103C400014F8011B5148FFF7C1FA049AD8B9D006FD
:103C500044BF20238DF85330110744BF2B238DF828
:103C600053309AF800302A2B15D0544600204FF0DC
:103C70000A0C079A214611F8013B303B092B4ED91B
:103C8000B0B1079214E0A0EB080309FA03F3134361
:103C9000A2460493D2E7039B191D1B680391002BD6
:103CA000BBBF5B4242F0020207930793B8BF049286
:103CB00023782E2B0CD163782A2B35D1039B023429
:103CC0001A1D1B680392002BB8BF4FF0FF330593FA
:103CD000DFF8BCA0032250462178FFF777FA40B105
:103CE0004023A0EB0A0003FA00F0049B01340343D5
:103CF000049314F8011B062226488DF82810FFF7BC
:103D000065FA002838D0244B1BBB039B073323F0F4
:103D1000070308330393099B3344099367E70C4671
:103D200001200CFB0232A5E700234FF00A0C1946D4
:103D300001340593204610F8012B303A092A03D9A3
:103D4000002BC5D00591C3E7044601230CFB0121DC
:103D5000F0E703AB00932A463846104B04A9FDF761
:103D6000CBFF421C0646D6D1AB895B063FF52CAF94
:103D700009981DB0BDE8F08F03AB00932A46384682
:103D8000064B04A9FEF754FAEBE700BF24750008C0
:103D90002A7500082E750008F91C0008E93A000889
:103DA00038B50023054D044608462B6000F018FE88
:103DB000431C02D12B6803B1236038BD500600209C
:103DC0001FB514461A46094B05461B68D8684CB106
:103DD000074BCDE9013400912B46064900F00EF85F
:103DE00000F0AAFA044B1C46F3E700BF380000209D
:103DF0003575000842750008707500080EB403B5EB
:103E0000014603AB054853F8042B0068019300F00A
:103E100095F802B05DF804EB03B07047380000205D
:103E200082B001B901A942B14BB113780B6012788D
:103E3000101E18BF012002B070471046FBE76FF05C
:103E40000100F8E7884210B501EB020402D9844270
:103E5000234607D8431EA14208D011F8012B03F8CE
:103E6000012FF8E7014602448A4200D110BD13F841
:103E7000014D02F8014DF7E7014800F019BC00BF01
:103E800054060020014800F014BC00BF5406002076
:103E90002DE9F041804614460E4621B91146BDE891
:103EA000F041FFF7ADBD2AB9FFF742FD2546284690
:103EB000BDE8F08100F064FC8442074602D8B4EB10
:103EC000500F12D821464046FFF79AFD05460028BC
:103ED000EDD0BC422246314628BF3A46FFF784F96E
:103EE00031464046FFF724FDE1E73546DFE79368BA
:103EF00010B4013B002B936007DA9469A34201DB05
:103F00000A2902D110BC00F049B91368581C10608E
:103F10001970084610BC7047F8B506460F4614469F
:103F2000D518AC4201D1002007E03A46304614F8DB
:103F3000011BFFF7DCFF431CF3D1F8BD2DE9F04F67
:103F40000D461446984606469DB018B183690BB9D4
:103F500000F010FB894B9D421BD175686B6ED90731
:103F600005D4AB899A0502D4A86D00F0A1FBAB89FA
:103F70001B0701D52B69EBB92946304600F06EF9D5
:103F8000C0B16B6EDC070ED54FF0FF301DB0BDE841
:103F9000F08F7B4B9D4201D1B568DFE7794B9D42A5
:103FA00008BFF568DAE7AB899805EDD4A86D00F095
:103FB00080FBE9E70023099320238DF82930302383
:103FC0004FF00109CDF80C80DFF8BC818DF82A3064
:103FD00023469A4613F8012B0AB1252AF9D1BAEBE8
:103FE000040B0BD05B46224629463046FFF794FF70
:103FF000013000F0AA80099A5A4409929AF80030D8
:10400000002B00F0A28000234FF0FF32CDE9052302
:104010000AF1010A049307938DF853301A9354461A
:10402000052214F8011B5848FFF7D0F8049AD8B9B4
:10403000D10644BF20238DF85330130744BF2B23F0
:104040008DF853309AF800302A2B15D054460020B2
:104050004FF00A0C079A214611F8013B303B092B1F
:104060004ED9B0B1079214E0A0EB080309FA03F3AC
:104070001343A2460493D2E7039B191D1B680391C7
:10408000002BBBBF5B4242F0020207930793B8BF0D
:10409000049223782E2B0CD163782A2B35D1039BE5
:1040A00002341A1D1B680392002BB8BF4FF0FF3378
:1040B0000593DFF8D8A0032250462178FFF786F851
:1040C00040B14023A0EB0A0003FA00F0049B013446
:1040D0000343049314F8011B06222D488DF8281081
:1040E000FFF774F800283FD02A4B1BBB039B073314
:1040F00023F0070308330393099B3B44099367E7C5
:104100000C4601200CFB0232A5E700234FF00A0CFD
:10411000194601340593204610F8012B303A092A3C
:1041200003D9002BC5D00591C3E7044601230CFB3E
:104130000121F0E703AB00932A463046164B04A951
:10414000FDF7DAFD0746781CD6D16B6ED90705D48A
:10415000AB899A0502D4A86D00F0ABFAAB895B0677
:104160003FF512AF099811E703AB00932A4630469A
:10417000094B04A9FEF75CF8E4E700BF9C76000851
:10418000BC7600087C760008247500082A750008B3
:104190002E750008F91C0008193F0008F8B50E46F6
:1041A0001446054618B183690BB900F0E3F9214BB9
:1041B0009C422BD16C68A369A360A3891A072FD5F1
:1041C00023696BB323692068F6B2C01A6369374666
:1041D000834204DC2146284600F038F930BBA3684E
:1041E0000130013BA36023685A1C22601E70636982
:1041F000834204D0A389DB0706D50A2E04D12146C9
:10420000284600F023F988B93846F8BD0A4B9C428D
:1042100001D1AC68CFE7094B9C4208BFEC68CAE704
:104220002146284600F01AF80028CBD04FF0FF377F
:10423000EAE700BF9C760008BC7600087C760008A0
:104240000346084641B1FF2A04D98A224FF0FF30C5
:104250001A60704701200A7070470000324B70B539
:104260001D6806460C4625B1AB6913B9284600F017
:1042700081F92E4B9C420FD16C68A389B4F90C20B4
:1042800019072CD4DD0611D40923336042F0400312
:104290004FF0FF30A3813EE0254B9C4201D1AC683A
:1042A000EBE7244B9C4208BFEC68E6E7580712D5C1
:1042B000616B41B104F14403994202D03046FFF7EB
:1042C00037FB00236363A38923F02403A381002326
:1042D000636023692360A38943F00803A3812369F2
:1042E0004BB9A38903F42073B3F5007F03D02146B3
:1042F000304600F005FAA089B4F90C2010F0010353
:104300000AD00023A36063695B42A361236943B9B8
:1043100010F08000BAD170BD810758BF6369A360F7
:10432000F4E70020F7E700BF380000209C76000883
:10433000BC7600087C760008062008B500F050FA2C
:10434000012000F063FB00008A89F8B505461007DC
:104350000C4657D44B68002B04DC0B6C002B01DCA3
:104360000020F8BDE66A002EFAD0002312F4805235
:104370002F682B6032D0606DA3895A0705D563681A
:10438000C01A636B0BB1236CC01A00230246E66AA5
:104390002846216AB047431CA38906D129681D29F4
:1043A0002CD8294ACA40D60728D500226260226943
:1043B000D904226004D5421C01D12B6803B9606581
:1043C000616B2F600029CBD004F14403994202D0E5
:1043D0002846FFF7ADFA00206063C2E7216A012397
:1043E0002846B047411CC7D12B68002BC4D01D2BD9
:1043F00001D0162B01D12F60B2E7A38943F040030F
:10440000A381AEE70F69002FAAD0930718BF00233E
:104410000E6808BF4B69F61B0F608B60002E9FDD96
:1044200033463A462846216AD4F828C0E047002897
:1044300006DCA3894FF0FF3043F04003A38190E7EF
:104440000744361AEAE700BF0100402038B50B697F
:1044500005460C4613B90025284638BD18B18369B6
:104460000BB900F087F8144B9C421BD16C68B4F96F
:104470000C30002BEFD0626ED00704D4990502D423
:10448000A06D00F015F928462146FFF75DFF636E29
:104490000546DA07E0D4A3899B05DDD4A06D00F0C2
:1044A00008F9D9E7054B9C4201D1AC68DFE7044B22
:1044B0009C4208BFEC68DAE79C760008BC760008EE
:1044C0007C760008002310B50446C0E90033C0E93B
:1044D0000433836081814366C28183611946082267
:1044E0005C30FDF763FB054B24626362044BA362FF
:1044F000044BE362044B236310BD00BF194800085E
:104500003B4800087348000897480008014900F03C
:10451000AFB800BF4D440008682270B54D1E55432A
:104520000E4605F17401FFF76BFA044640B1002115
:10453000C0E900160C30A06005F16802FDF736FBFB
:10454000204670BD014800F0B3B800BF55060020FA
:10455000014800F0AEB800BF55060020014800F049
:10456000A7B800BF56060020014800F0A2B800BF5F
:104570005606002010B50446FFF7F0FFA3691BB1F3
:10458000BDE81040FFF7F0BFC4E912332365134BB9
:10459000134A1B68A262A34208BF0123204608BF3A
:1045A000A36100F01FF86060204600F01BF8A060D7
:1045B000204600F017F800220421E0606068FFF751
:1045C00081FF01220921A068FFF77CFF022212214E
:1045D000E068FFF777FF0123A361D1E7BC72000811
:1045E0000D450008F8B50746FFF7ACFF1E4B1E68E7
:1045F000B36913B93046FFF7BDFF4836D6E9013439
:10460000013B03D533680BB33668F7E7B4F90C50B8
:10461000D5B9164B04F15800E360656600F047F821
:10462000FFF796FF08222946C4E90155C4E904555D
:104630002560A56104F15C00FDF7B8FAC4E90D55E9
:10464000C4E912552046F8BD6834D9E7042138463C
:10465000FFF762FF044630600028D5D1FFF778FFEE
:104660000C233B60EEE700BFBC7200080100FFFFB7
:104670002DE9F84306468846002700F14804D4E9AE
:104680000195B9F1010905D52468002CF7D1384608
:10469000BDE8F883AB89012B07D9B5F90E3001339A
:1046A00003D029463046C04707436835E9E77047DD
:1046B0007047704770B50E46B1F90E1014460029C8
:1046C0001D4696B008DA0022B6F90C302A601A06A8
:1046D00010D44FF480630EE06A4600F003F900281E
:1046E000F1DB019A02F47042A2F500535A425A419A
:1046F0002A60EEE740230020236016B070BD000062
:104700008B8973B59D0706460C4607D504F1470310
:10471000236023610123636102B070BD6A4601AB6F
:10472000FFF7C8FF009905463046FFF769F948B919
:10473000B4F90C309A05EFD423F0030343F00203DD
:10474000A381E3E70D4BB362A389206043F08003AC
:10475000A381009B20616361019B5BB13046B4F98A
:104760000E1000F0D1F828B1A38923F0030343F021
:104770000103A381A0890543A581CDE70D4500086C
:1047800051F8043C181F002BBCBF0B58C0187047D1
:104790001F2938B504460D4604D9162303604FF08F
:1047A000FF3038BD426C12B152F821304BB920466F
:1047B00000F030F82A4601462046BDE8384000F0B7
:1047C00017B8012B0AD0591C03D11623036001200E
:1047D000E7E70024284642F8254098470020E0E714
:1047E000024B01461868FFF7D3BF00BF3800002016
:1047F00038B50023064D0446084611462B6000F0EC
:10480000D7F8431C02D12B6803B1236038BD00BF29
:104810005006002000F0BCB810B50C46B1F90E10DF
:1048200000F094F80028ABBF636DA3891B1823F434
:104830008053ACBF6365A38110BD2DE9F0411F46D5
:104840008B890546DB050C46164605D5022300225A
:10485000B1F90E1000F068F8A389324623F48053B2
:10486000A38128463B46B4F90E10BDE8F04100F0A4
:1048700017B810B50C46B1F90E1000F055F8431CEE
:10488000A38915BF606523F4805343F48053A3814B
:1048900018BFA38110BDB1F90E1000F013B80000CD
:1048A00038B50446084611460022054D2A601A46CE
:1048B00000F0A4F8431C02D12B6803B1236038BD7B
:1048C0005006002038B50023054D044608462B60ED
:1048D00000F04EF8431C02D12B6803B1236038BDB1
:1048E0005006002038B50023064D04460846114600
:1048F0002B6000F045F8431C02D12B6803B1236004
:1049000038BD00BF5006002038B50023054D0446D1
:1049100008462B6000F044F8431C02D12B6803B119
:10492000236038BD5006002038B5044608461146BD
:104930000022054D2A601A4600F042F8431C02D1BD
:104940002B6803B1236038BD5006002038B50446FB
:10495000084611460022054D2A601A4600F038F834
:10496000431C02D12B6803B1236038BD50060020E0
:104970005822024B4FF0FF301A607047500600205B
:104980005822024B4FF0FF301A607047500600204B
:104990005822024B4FF0FF301A607047500600203B
:1049A0005822024B00201A60704700BF50060020BA
:1049B0005822024B4FF0FF301A607047500600201B
:1049C0005822024B4FF0FF301A607047500600200B
:1049D0005822024B4FF0FF301A60704750060020FB
:1049E000044A05491368002B08BF0B4618441060A1
:1049F0001846704758060020600600205822024BD7
:104A00004FF0FF301A60704750060020FEE700BFED
:104A1000F8B500BFF8BC08BC9E467047F8B500BFAB
:084A2000F8BC08BC9E4670477B
:104A28000200034802000310010003100000000008
:104A3800000000000000000000000000000000006E
:104A4800000000000000000000000000000000005E
:104A58000000000C000C000C000C000C000C000CFA
:104A6800000C000C000C000C0000000C000C0000F6
:104A7800000000000000001B001B001B001B001BA7
:104A8800000000000000000000000000000000001E
:104A98000000000000000000000080198019801943
:104AA8008019C07FC07F80190033C07FC07F00336A
:104AB8000033003300330000000000000000001E37
:104AC800003F807580650074003C001E000780056B
:104AD800806580658075003F001E000400040000AA
:104AE8000000007000D840D8C0D880D900730006F4
:104AF800000C801BC036C066C046C006800300009C
:104B0800000000000000001E003F003300330033A7
:104B1800001E000CC03CC066806380618063C03E9C
:104B2800801C0000000000000000000C000C000CBD
:104B3800000C000C00000000000000000000000055
:104B480000000000000000000000000080000001DC
:104B58000003000600060004000C000C000C000C0A
:104B6800000C000C00040006000600030001800091
:104B7800002000100018000C000C000400060006BD
:104B880000060006000600060004000C000C0018D1
:104B9800001000200000000C002D003F001E003314
:104BA80000000000000000000000000000000000FD
:104BB8000000000000000000000000000000000CE1
:104BC800000C000C000CC0FFC0FF000C000C000C17
:104BD800000C0000000000000000000000000000C1
:104BE80000000000000000000000000000000000BD
:104BF800000000000000000C000C00040004000885
:104C0800000000000000000000000000000000009C
:104C18000000001E001E0000000000000000000050
:104C2800000000000000000000000000000000007C
:104C38000000000000000000000000000000000C60
:104C4800000C000000000000000000030003000347
:104C58000006000600060006000C000C000C000C04
:104C68000018001800180000000000000000001ED6
:104C7800003F0033806180618061806D806D80615C
:104C8800806180610033003F001E000000000000CA
:104C980000000006000E001E003600260006000672
:104CA80000060006000600060006000600060000D2
:104CB800000000000000001E003F807380618061DA
:104CC800800100030006000C001800300060807F9F
:104CD800807F0000000000000000001C003E006310
:104CE80000630003000E000E000380018001806154
:104CF8008073003F001E0000000000000000000656
:104D0800000E000E001E001E00160036003600665B
:104D1800807F807F0006000600060000000000007B
:104D28000000007F007F006000600060006E007F70
:104D380080638001800180618073003F001E000055
:104D4800000000000000001E003F8033806100600A
:104D5800006E007F80738061806180618033003FD6
:104D6800001E0000000000000000807F807F80019E
:104D78000003000300060006000C000C000C0008ED
:104D88000018001800180000000000000000001EB5
:104D9800003F8063806180610021001E003F8061C8
:104DA800806180618061003F001E000000000000FB
:104DB8000000001E003F0073806180618061807385
:104DC800803F801D800180610073003F001E00004D
:104DD8000000000000000000000000000000000CBF
:104DE800000C000000000000000000000000000CA3
:104DF800000C00000000000000000000000000009F
:104E080000000000000C000C000000000000000082
:104E18000000000C000C0004000400080000000062
:104E28000000000080008003000E00380060003899
:104E3800000E800380000000000000000000000059
:104E480000000000000000000000807F807F00005C
:104E58000000807F807F000000000000000000004C
:104E6800000000000000000000000000004000708A
:104E7800001C000780010007001C007000400000B3
:104E880000000000000000000000001F803FC0710B
:104E9800C060C000C00180030007000E000C000CB9
:104EA8000000000C000C0000000000000000001EC4
:104EB800003F803180718063806F806D806D806F6E
:104EC800806700600032003E001C00000000000007
:104ED8000000000E000E001B001B001B001B803191
:104EE8008031803F803F8031C060C060C06000007A
:104EF800000000000000007C007E00630063006387
:104F08000063007E007E0063806180618063007FB3
:104F1800007E0000000000000000001E003F8031FD
:104F28008061006000600060006000600060806177
:104F38008031003F001E0000000000000000007CDF
:104F4800007F00638063806180618061806180612F
:104F5800806100630063007E007C000000000000A8
:104F68000000807F807F0060006000600060007F3C
:104F7800007F0060006000600060807F807F00002C
:104F8800000000000000807F807F006000600060FB
:104F98000060007F007F00600060006000600060CB
:104FA80000600000000000000000001E003F80318B
:104FB8008061006000600060806380638061806160
:104FC8008031803F001E000000000000000080616A
:104FD80080618061806180618061807F807F806185
:104FE8008061806180618061806100000000000054
:104FF8000000003F003F000C000C000C000C000CEF
:10500800000C000C000C000C000C003F003F0000DE
:105018000000000000008001800180018001800103
:105028008001800180018001806180618073003F80
:10503800001E0000000000000000C06080610063E6
:1050480000660066006C0078007C006600660063FD
:1050580080618061C0600000000000000000006006
:105068000060006000600060006000600060006038
:10507800006000600060807F807F0000000000000A
:105088000000C071C071C07BC07AC06AC06AC06EBF
:10509800C064C060C060C060C060C060C060000024
:1050A800000000000000807180718079807980792B
:1050B800806D806D806D80658067806780678063A4
:1050C80080630000000000000000001E003F003365
:1050D80080618061806180618061806180618061C0
:1050E8000033003F001E0000000000000000007EAA
:1050F800007F80638061806180618063007F007EC3
:1051080000600060006000600060000000000000B7
:105118000000001E003F0033806180618061806173
:1051280080618061806580670033803F401E000099
:10513800000000000000007E007F806380618061C5
:105148008063007F007E0066006300638061806189
:10515800C0600000000000000000000E001F803149
:10516800803100300038001E0007800380618061B4
:105178008031003F001E0000000000000000C0FF5A
:10518800C0FF000C000C000C000C000C000C000C04
:10519800000C000C000C000C000C000000000000CB
:1051A80000008061806180618061806180618061D0
:1051B80080618061806180618073003F001E000013
:1051C800000000000000C060C060C0608031803115
:1051D8008031001B001B001B001B000E000E000E80
:1051E80000040000000000000000C0C0C0C0C0C033
:1051F800C0C0C0C0C0CC804C804C805E8052805201
:105208008073806180610000000000000000C0C061
:10521800806080610033003B001E000C000C001E03
:10522800001F003B80718061C0C0000000000000CA
:105238000000C0C08061806100330033001E001E82
:10524800000C000C000C000C000C000C000C000002
:10525800000000000000803F803F80010003000341
:105268000006000C000C0018001800300060807F59
:10527800807F000000000000000F000F000C000CF1
:10528800000C000C000C000C000C000C000C000CB6
:10529800000C000C000C000C000F000F00000018A0
:1052A80000180018000C000C000C000C000600068A
:1052B80000060006000300030003000000000000D1
:1052C800001E001E00060006000600060006000676
:1052D8000006000600060006000600060006000696
:1052E800001E001E0000000C000C001E00120033FF
:1052F80000338061806100000000000000000000B1
:105308000000000000000000000000000000000095
:105318000000000000000000000000000000000085
:105328000000000000000000E0FF0000000000385E
:105338000018000C00000000000000000000000041
:105348000000000000000000000000000000000055
:1053580000000000000000000000001F803F806186
:105368008001801F803F80618063807FC03800009B
:105378000000000000000060006000600060006E37
:10538800007F807380618061806180618073007FAD
:10539800006E000000000000000000000000000097
:1053A8000000001E003F8073806100600060806123
:1053B8008073003F001E0000000000000000800114
:1053C800800180018001801D803F80738061806141
:1053D800806180618073803F801D000000000000B4
:1053E80000000000000000000000001E003F0073E5
:1053F8008061807F807F00608071003F001E000018
:10540800000000000000C007C00F000C000C807FE7
:10541800807F000C000C000C000C000C000C000C31
:10542800000C000000000000000000000000000068
:10543800801D803F8073806180618061806180739E
:10544800803F801D80018063007F003E0000006077
:10545800006000600060006F807F80718061806103
:1054680080618061806180618061000000000000CF
:1054780000000006000600000000003E003E000696
:1054880000060006000600060006000600060000EA
:10549800000000000006000600000000003E003E7C
:1054A80000060006000600060006000600060006C4
:1054B80000060046007E003C0000006000600060BE
:1054C8000060806100630066006C007C0076006309
:1054D80000638061C0600000000000000000003E22
:1054E800003E00060006000600060006000600064C
:1054F8000006000600060006000600000000000086
:105508000000000000000000000080DDC0FFC0CEE9
:10551800C0CCC0CCC0CCC0CCC0CCC0CCC0CC0000AF
:105528000000000000000000000000000000006F04
:10553800807F80718061806180618061806180612D
:105548008061000000000000000000000000000072
:105558000000001E003F807380618061806180616F
:105568008073003F001E00000000000000000000E3
:1055780000000000006E007F8073806180618061A0
:1055880080618073007F006E0060006000600060D2
:105598000000000000000000801D803F80738061D3
:1055A8008061806180618073803F801D80018001FF
:1055B800800180010000000000000000000000677A
:1055C800803F0039003000300030003000300030BB
:1055D8000030000000000000000000000000000093
:1055E8000000001E803F80610060007F803F8001D6
:1055F8008061007F001E0000000000000000000025
:10560800000800180018007F007F00180018001814
:10561800001800180018801F800F0000000000000C
:1056280000000000000000000000806180618061CF
:1056380080618061806180618063807F803D00003F
:105648000000000000000000000000000000C06032
:10565800803180318031001B001B001B000E000EC2
:10566800000600000000000000000000000000002C
:10567800000080DD80DD80DD005500550055007795
:105688000077002200220000000000000000000057
:10569800000000000000806100330033001E000C91
:1056A800000C001E00330033806100000000000081
:1056B800000000000000000080618061803100333C
:1056C8000033001B001B001B000E000E000E001C08
:1056D800007C007000000000000000000000C07F97
:1056E800C07F800100030006000C00180030C07F56
:1056F800C07F00000000000080038007000600064D
:10570800000600060006000E001C001C000E000625
:105718000006000600060006800780030006000653
:105728000006000600060006000600060006000641
:105738000006000600060006000600060006000631
:105748000038003C000C000C000C000C000C000E93
:1057580000070007000E000C000C000C000C000CE9
:10576800003C0038000000000000000000000000BD
:1057780000008038807F0047000000000000000023
:105788000000000000000000000000000000000011
:105798000000000000000000000000000000000001
:1057A80000000000000000000000000000000000F1
:1057B800000000000000000000000000E003E0031B
:1057C800E003E003E003E003E003E003C003C003F9
:1057D800C001C001C001C001C001000000000000FC
:1057E800E003E003E0030000000000000000000008
:1057F8003C1E3C1E3C1E3C1E3C1E3C1E3C1E00002B
:105808000000000000000000000000000000000090
:105818000000000000000000000000000000000080
:1058280000000000CE01CE03DE039E039C039C070C
:10583800FF3FFF7F3807380F780F780F780EFFFF8C
:10584800FFFFF01EF01CE01CE03CE03DE0390000EA
:105858000000000000000000FC03FE0FEE1FE01E29
:10586800E01EE01EE01EE01FE00FE007F003FC0171
:10587800FE01FE01FE01FE01FE01FE01FE3DFC3FB0
:10588800F00FE001E001000000000000033E07F710
:105898008FE78EE79EE3BCE3B8E7F8E7F0F7E03F71
:1058A800C001FF03FF07F307F30FF31EF33CF338C0
:1058B800F3787FF03FE000000000000000000000E7
:1058C800E007F80F780F781F781F781F780FF00F10
:1058D800E00F801FC37FC3FBE7F3F7F1F7F0FFF09A
:1058E8007FF03EF87F7CFF3FEF1F000000000000C4
:1058F80000000000E003E003E003E003E003C0036E
:10590800C0010000000000000000000000000000CE
:10591800000000000000000000000000000000007F
:1059280000000000000000003F007C00F001E001E2
:10593800C003C00780078007800F000F000F000F0B
:10594800000F000F000F800F80078007C007C003FB
:10595800E001F0017C003F000F000000007E001F06
:10596800C007C003E001F001F000F000F800780083
:1059780078007800780078007800F800F000F000EF
:10598800F001E001C003C007001F007E007800009E
:10599800E003C003C001CE39FF3F7F3F20037003FF
:1059A800F807780F3C1F38060000000000000000D0
:1059B80000000000000000000000000000000000DF
:1059C80000000000000000000000000000000000CF
:1059D800C001C001C001C001C001C001C001FFFF7A
:1059E800FFFFC001C001C001C001C001C00100002B
:1059F800000000000000000000000000000000009F
:105A0800000000000000000000000000000000008E
:105A180000000000000000000000E003E003E003D5
:105A2800E003E001E001E001C001800300000000A4
:105A3800000000000000000000000000000000005E
:105A48000000FE3FFE3F00000000000000000000D4
:105A5800000000000000000000000000000000003E
:105A6800000000000000000000000000000000002E
:105A7800000000000000000000000000000000001E
:105A88000000E003E003E003E00300000000000082
:105A9800000000000F000F001E001E003C003C002C
:105AA80078007800F000F000E001E001C003C003D6
:105AB80080078007000F000F001E001E003C003CFE
:105AC8000078007800F00000F007F80F7C1F3E3ED9
